:100000000C9435000C945D000C945D000C945D0024
:100010000C945D000C945D000C945D000C945D00EC
:100020000C945D000C945D000C945D000C945D00DC
:100030000C945D000C945D000C945D000C945D00CC
:100040000C9436020C945D000C9404020C94DE01B6
:100050000C945D000C945D000C945D000C945D00AC
:100060000C945D000C945D00B50311241FBECFEF0E
:10007000D8E0DEBFCDBF11E0A0E0B1E0E8E1F8E0FC
:1000800002C005900D92AE32B107D9F721E0AEE281
:10009000B1E001C01D92A63DB207E1F710E0C5E353
:1000A000D0E004C02197FE010E940404C433D107AC
:1000B000C9F70E9480020C940A040C940000AF92CD
:1000C000BF92CF92DF92EF92FF920F931F93CF9345
:1000D000DF936C017B018B01040F151FEB015E01A7
:1000E000AE18BF08C017D10759F06991D601ED913C
:1000F000FC910190F081E02DC6010995892B79F7DB
:10010000C501DF91CF911F910F91FF90EF90DF908C
:10011000CF90BF90AF900895FC01538D448D252F53
:1001200030E0842F90E0821B930B541710F0CF9691
:10013000089501970895FC01918D828D981761F0C3
:10014000A28DAE0FBF2FB11D5D968C91928D9F5FDA
:100150009F73928F90E008958FEF9FEF0895FC01B9
:10016000918D828D981731F0828DE80FF11D858D6C
:1001700090E008958FEF9FEF0895FC01918D228DFF
:10018000892F90E0805C9F4F821B91098F73992784
:10019000089589E391E00E94BD0021E0892B09F4D4
:1001A00020E0822F089580E090E0892B29F00E94C2
:1001B000C90081110C9400000895FC01A48DA80FC2
:1001C000B92FB11DA35ABF4F2C91848D90E0019699
:1001D0008F739927848FA689B7892C93A089B189B9
:1001E0008C91837080648C93938D848D981306C05A
:1001F0000288F389E02D80818F7D80830895EF92BE
:10020000FF920F931F93CF93DF93EC0181E0888FD0
:100210009B8D8C8D98131AC0E889F989808185FFA0
:1002200015C09FB7F894EE89FF896083E889F98942
:1002300080818370806480839FBF81E090E0DF9144
:10024000CF911F910F91FF90EF900895F62E0B8D97
:1002500010E00F5F1F4F0F731127E02E8C8D8E1152
:100260000CC00FB607FCFACFE889F989808185FFB9
:10027000F5CFCE010E94DD00F1CFEB8DEC0FFD2F0D
:10028000F11DE35AFF4FF0829FB7F8940B8FEA8974
:10029000FB8980818062CFCFCF93DF93EC01888D83
:1002A0008823B9F0AA89BB89E889F9898C9185FDF1
:1002B00003C0808186FD0DC00FB607FCF7CF8C917F
:1002C00085FFF2CF808185FFEDCFCE010E94DD005A
:1002D000E9CFDF91CF9108953FB7F8948091330132
:1002E00090913401A0913501B091360126B5A89BBB
:1002F00005C02F3F19F00196A11DB11D3FBFBA2FB8
:10030000A92F982F8827BC01CD01620F711D811D77
:10031000911D42E0660F771F881F991F4A95D1F7FC
:1003200008958F929F92AF92BF92CF92DF92EF92F9
:10033000FF924B015C010E946C016B017C010E94E9
:100340006C016C197D098E099F09683E7340810517
:100350009105A8F321E0821A9108A108B10888EE5E
:10036000C80E83E0D81EE11CF11C81149104A10485
:10037000B10429F7FF90EF90DF90CF90BF90AF903E
:100380009F908F900895FC0101900020E9F731972C
:10039000AF01481B590BBC0189E391E00C945F004D
:1003A000CF93DF930E94C301EC0182E191E00E94B0
:1003B000C3018C0F9D1FDF91CF9108951F920F9263
:1003C0000FB60F9211242F933F934F935F936F9328
:1003D0007F938F939F93AF93BF93EF93FF9389E3A3
:1003E00091E00E94DD00FF91EF91BF91AF919F914D
:1003F0008F917F916F915F914F913F912F910F90CE
:100400000FBE0F901F9018951F920F920FB60F926C
:1004100011242F938F939F93EF93FF93E0914901C2
:10042000F0914A018081E0914F01F091500182FDED
:100430001BC09081809152018F5F8F732091530177
:10044000821741F0E0915201F0E0E75CFE4F958F9A
:1004500080935201FF91EF919F918F912F910F9077
:100460000FBE0F901F9018958081F4CF1F920F92AE
:100470000FB60F9211242F933F938F939F93AF93B7
:10048000BF9380912F0190913001A0913101B091E3
:10049000320130912E0123E0230F2D3758F50196BC
:1004A000A11DB11D20932E0180932F019093300147
:1004B000A0933101B09332018091330190913401C6
:1004C000A0913501B09136010196A11DB11D809317
:1004D000330190933401A0933501B0933601BF915D
:1004E000AF919F918F913F912F910F900FBE0F90E1
:1004F0001F90189526E8230F0296A11DB11DD2CF9B
:10050000CF93DF93CDB7DEB7A1970FB6F894DEBFD8
:100510000FBECDBF789484B5826084BD84B5816000
:1005200084BD85B5826085BD85B5816085BD8091BE
:100530006E00816080936E00109281008091810036
:10054000826080938100809181008160809381002E
:10055000809180008160809380008091B1008460F0
:100560008093B1008091B00081608093B000809151
:100570007A00846080937A0080917A008260809310
:100580007A0080917A00816080937A0080917A006D
:10059000806880937A001092C100E0914901F09147
:1005A0004A0182E08083E0914501F091460110828A
:1005B000E0914701F09148018FEC80831092510146
:1005C000E0914D01F0914E0186E08083E0914B0176
:1005D000F0914C01808180618083E0914B01F0912A
:1005E0004C01808188608083E0914B01F0914C0147
:1005F000808180688083E0914B01F0914C01808183
:100600008F7D808380E4782E9AE0892E912CA12C16
:10061000B12C00E010E070927C0080917A00806440
:1006200080937A0080917A0086FDFCCF90917800CB
:1006300080917900892798278927909338018093A2
:10064000370168EE73E080E090E00E94910185E15F
:1006500091E00E94C301C0903701D09038010D2C69
:10066000000CEE08FF08F7FE4DC06DE289E391E053
:100670000E94FF0022273327A9012C193D094E09AA
:100680005F0919A2CE0181967C01CA01B901A501B9
:1006900094010E94E203605DF70162937F012115DE
:1006A00031054105510589F7E114F10419F0C7013D
:1006B0000E94C30182E191E00E94C3018091370151
:1006C000909138018139F1E09F0794F580E291E043
:1006D0000E94D00168EC70E080E090E00E949101FF
:1006E00064EF71E080E090E00E9491010115110536
:1006F00009F491CF0E94C900882309F48CCF0E948D
:10070000000089CFA701960119A2CE0181967C0134
:10071000CA01B901A50194010E94E203605DF701DD
:1007200062937F01211531054105510589F7BCCF41
:10073000873222E092072CF48FE191E00E94D001F1
:10074000CFCF8237E2E09E074CF483E291E00E9433
:10075000D00164EF71E080E090E0C0CF8D3B92402B
:100760000CF0BECF87E291E0E9CFE9E3F1E013823C
:10077000128288EE93E0A0E0B0E084839583A683A4
:10078000B78384E091E09183808385EC90E0958746
:10079000848784EC90E09787868780EC90E0918B4B
:1007A000808B81EC90E0938B828B82EC90E0958B38
:1007B000848B86EC90E0978B868B118E128E138E35
:1007C000148E0895A1E21A2EAA1BBB1BFD010DC0B9
:1007D000AA1FBB1FEE1FFF1FA217B307E407F507F1
:1007E00020F0A21BB30BE40BF50B661F771F881FCD
:1007F000991F1A9469F760957095809590959B0163
:10080000AC01BD01CF010895EE0FFF1F0590F491DB
:08081000E02D0994F894FFCFDC
:1008180000000000FF005F008C004C01BD009B0041
:10082800AF000D0A0073656E736F72203D200035AE
:0E0838003025003735250031303025200000F6
:107E0000112484B714BE81FFF0D085E080938100F7
:107E100082E08093C00088E18093C10086E0809377
:107E2000C20080E18093C4008EE0C9D0259A86E02C
:107E300020E33CEF91E0309385002093840096BBD3
:107E4000B09BFECF1D9AA8958150A9F7CC24DD24C4
:107E500088248394B5E0AB2EA1E19A2EF3E0BF2EE7
:107E6000A2D0813461F49FD0082FAFD0023811F036
:107E7000013811F484E001C083E08DD089C08234E0
:107E800011F484E103C0853419F485E0A6D080C0E4
:107E9000853579F488D0E82EFF2485D0082F10E0AE
:107EA000102F00270E291F29000F111F8ED06801E7
:107EB0006FC0863521F484E090D080E0DECF843638
:107EC00009F040C070D06FD0082F6DD080E0C81688
:107ED00080E7D80618F4F601B7BEE895C0E0D1E017
:107EE00062D089930C17E1F7F0E0CF16F0E7DF06D8
:107EF00018F0F601B7BEE89568D007B600FCFDCFD4
:107F0000A601A0E0B1E02C9130E011968C91119780
:107F100090E0982F8827822B932B1296FA010C0160
:107F200087BEE89511244E5F5F4FF1E0A038BF0790
:107F300051F7F601A7BEE89507B600FCFDCF97BE46
:107F4000E89526C08437B1F42ED02DD0F82E2BD052
:107F50003CD0F601EF2C8F010F5F1F4F84911BD097
:107F6000EA94F801C1F70894C11CD11CFA94CF0C13
:107F7000D11C0EC0853739F428D08EE10CD085E9AC
:107F80000AD08FE07ACF813511F488E018D01DD067
:107F900080E101D065CF982F8091C00085FFFCCF94
:107FA0009093C60008958091C00087FFFCCF809118
:107FB000C00084FD01C0A8958091C6000895E0E648
:107FC000F0E098E1908380830895EDDF803219F02E
:107FD00088E0F5DFFFCF84E1DECF1F93182FE3DFCA
:107FE0001150E9F7F2DF1F91089580E0E8DFEE27F6
:047FF000FF270994CA
:027FFE00040479
:0400000300007E007B
:00000001FF
