:100000000C9462000C948A000C948A000C948A0070
:100010000C948A000C948A000C948A000C9435038A
:100020000C948A000C948A000C948A000C948A0028
:100030000C948A000C948A000C948A000C948A0018
:100040000C94EB020C948A000C94B9020C94930269
:100050000C948A000C948A000C948A000C948A00F8
:100060000C948A000C948A000000000023002600F3
:10007000290000000008000201000003040700003E
:1000800000000000000000000000250028002B00F8
:1000900000000000240027002A00040404040404D3
:1000A0000404020202020202030303030303010227
:1000B00004081020408001020408102001020408F6
:1000C0001020150411241FBECFEFD8E0DEBFCDBF36
:1000D00011E0A0E0B1E0ECEFF9E102C005900D9273
:1000E000A238B107D9F723E0A2E8B1E001C01D9220
:1000F000A430B207E1F710E0C2E6D0E004C02197D7
:10010000FE010E94E70CC136D107C9F70E944704DF
:100110000C94FC0C0C940000CF92DF92EF92FF92B3
:10012000CF93DF93EC01072E000C880B990B0E94F4
:10013000790B6B017C0120E030E040E45FE30E943A
:10014000290C20E030E048E452E40E94CF0A0E94EB
:10015000410BC617D707D4F020E030E040EA5FE358
:10016000C701B6010E94290C20E030E048E452E4C7
:100170000E94CF0A20E030E040E85FE30E945E0A80
:100180000E94410B21E06C177D070CF420E0822FC8
:1001900090E0DF91CF91FF90EF90DF90CF900895A6
:1001A0008F929F92AF92BF92CF92DF92EF92FF9287
:1001B0000F931F93CF93DF93FC0120813181E09156
:1001C0009701F091980101E010E02E173F070CF025
:1001D00043C0D901AA0FBB1FE0919501F091960190
:1001E000EA0FFB1FA080B180890100951095017076
:1001F000112720FD23C02CE93FEFEA016B017C01B0
:100200004901840E951EB401C5010E948C00892B02
:10021000C1F48C0E9D1EB401C5010E948C00892B77
:1002200049F5BE01680D791DC5010E948C0023E0CF
:1002300030E0892B41F40FEF1FEF0EC024E630E0D1
:10024000DCCF21E030E0F6018081918101968217B8
:1002500093079CF491838083C801DF91CF911F9114
:100260000F91FF90EF90DF90CF90BF90AF909F9055
:100270008F90089522E030E0E6CF11821082F701DE
:10028000808191810196E6CFAF92BF92CF92DF92AB
:10029000EF92FF920F931F93CF93DF936C017B013B
:1002A0008B01040F151FEB015E01AE18BF08C017CC
:1002B000D10759F06991D601ED91FC910190F0813F
:1002C000E02DC6010995892B79F7C501DF91CF9102
:1002D0001F910F91FF90EF90DF90CF90BF90AF9064
:1002E0000895FC01538D448D252F30E0842F90E03C
:1002F000821B930B541710F0CF9608950197089521
:10030000FC01918D828D981761F0A28DAE0FBF2FE9
:10031000B11D5D968C91928D9F5F9F73928F90E03F
:1003200008958FEF9FEF0895FC01918D828D9817AE
:1003300031F0828DE80FF11D858D90E008958FEFEB
:100340009FEF0895FC01918D228D892F90E0805CB4
:100350009F4F821B91098F739927089589E991E036
:100360000E94A20121E0892B09F420E0822F089548
:1003700080E090E0892B29F00E94AE0181110C945D
:1003800000000895FC01A48DA80FB92FB11DA35A38
:10039000BF4F2C91848D90E001968F739927848FA5
:1003A000A689B7892C93A089B1898C9183708064C8
:1003B0008C93938D848D981306C00288F389E02D69
:1003C00080818F7D80830895EF92FF920F931F931A
:1003D000CF93DF93EC0181E0888F9B8D8C8D9813F8
:1003E0001AC0E889F989808185FF15C09FB7F89404
:1003F000EE89FF896083E889F98980818370806450
:1004000080839FBF81E090E0DF91CF911F910F919A
:10041000FF90EF900895F62E0B8D10E00F5F1F4FA9
:100420000F731127E02E8C8D8E110CC00FB607FCB8
:10043000FACFE889F989808185FFF5CFCE010E9446
:10044000C201F1CFEB8DEC0FFD2FF11DE35AFF4FF1
:10045000F0829FB7F8940B8FEA89FB8980818062D4
:10046000CFCFCF93DF93EC01888D8823B9F0AA8991
:10047000BB89E889F9898C9185FD03C0808186FD5F
:100480000DC00FB607FCF7CF8C9185FFF2CF8081AE
:1004900085FFEDCFCE010E94C201E9CFDF91CF9160
:1004A00008953FB7F8948091870190918801A091B9
:1004B0008901B0918A0126B5A89B05C02F3F19F08C
:1004C0000196A11DB11D3FBFBA2FA92F982F8827D4
:1004D000BC01CD01620F711D811D911D42E0660FAF
:1004E000771F881F991F4A95D1F70895CF93DF93FF
:1004F000FC0101900020E9F73197AF01481B590B2F
:10050000BC0189E991E00E944401EC0142E050E025
:1005100062E171E089E991E00E9444018C0F9D1F26
:10052000DF91CF9108951F920F920FB60F92112471
:100530002F933F934F935F936F937F938F939F93EB
:10054000AF93BF93EF93FF9389E991E00E94C201BB
:10055000FF91EF91BF91AF919F918F917F916F919B
:100560005F914F913F912F910F900FBE0F901F9071
:1005700018951F920F920FB60F9211242F938F93FD
:100580009F93EF93FF93E091A901F091AA018081DD
:10059000E091AF01F091B00182FD1BC0908180918C
:1005A000B2018F5F8F732091B301821741F0E09108
:1005B000B201F0E0E756FE4F958F8093B201FF91B4
:1005C000EF919F918F912F910F900FBE0F901F90E1
:1005D00018958081F4CF1F920F920FB60F921124BD
:1005E0002F933F938F939F93AF93BF9380918301FA
:1005F00090918401A0918501B09186013091820192
:1006000023E0230F2D3758F50196A11DB11D20932E
:1006100082018093830190938401A0938501B0931C
:1006200086018091870190918801A0918901B09104
:100630008A010196A11DB11D8093870190938801C5
:10064000A0938901B0938A01BF91AF919F918F913F
:100650003F912F910F900FBE0F901F90189526E895
:10066000230F0296A11DB11DD2CF1F920F920FB67C
:100670000F9211242F933F938F939F93AF93BF9328
:10068000EF93FF938091360290E0FC01EE58FF4F0C
:100690002491FC01E255FF4F3491FC01E656FF4FD7
:1006A000E491EE23C1F0222359F0233009F44DC028
:1006B00008F040C0213009F44EC0223009F44FC088
:1006C000F0E0EE0FFF1FE859FF4FA591B491EC91B8
:1006D0003E2381E009F480E02091390230913A0212
:1006E0002F5F3F4F30933A022093390290910303DA
:1006F000943618F095E0909337029091370293303A
:1007000009F469C0C8F5923009F43EC090913802EE
:10071000992319F0811187C02D9AFF91EF91BF9114
:10072000AF919F918F913F912F910F900FBE0F909E
:100730001F9018952730B1F02830D1F0243009F0FF
:10074000BFCF809180008F7D03C0809180008F7724
:1007500080938000B5CF84B58F7784BDB1CF84B549
:100760008F7DFBCF8091B0008F778093B000A8CFB2
:100770008091B0008F7DF9CF943009F448C0953056
:1007800029F68111C3CF09C08111C0CF2091390250
:1007900030913A022436310528F410923A02109230
:1007A0003902B4CF10920303E091030391E09E0F4E
:1007B00090930303F0E02091390230913A02EE0F5A
:1007C000FF1FEA5CFD4F3683258310923A02109298
:1007D000390293E019C0813009F098CFE09103030A
:1007E00091E09E0F90930303F0E020913902309145
:1007F0003A02EE0FFF1FEA5CFD4F3683258310920D
:100800003A021092390294E0909337027FCF882306
:1008100059F22091390230913A022536310508F417
:1008200075CF95E0F1CF2D9878CFE9E9F1E013820B
:10083000128288EE93E0A0E0B0E084839583A683E3
:10084000B78384E091E09183808385EC90E0958785
:10085000848784EC90E09787868780EC90E0918B8A
:10086000808B81EC90E0938B828B82EC90E0958B77
:10087000848B86EC90E0978B868B118E128E138E74
:10088000148EE6E3F2E08BE0808312820895CF932A
:10089000DF93CDB7DEB72C970FB6F894DEBF0FBE4F
:1008A000CDBF789484B5826084BD84B5816084BDF9
:1008B00085B5826085BD85B5816085BD80916E00FE
:1008C000816080936E00109281008091810082602F
:1008D000809381008091810081608093810080916C
:1008E00080008160809380008091B100846080935B
:1008F000B1008091B00081608093B00080917A0057
:10090000846080937A0080917A00826080937A007C
:1009100080917A00816080937A0080917A0080686B
:1009200080937A001092C100E091A901F091AA0190
:1009300012E01083E091A501F091A6011082E091F0
:10094000A701F091A8018FEC80831092B101E09192
:10095000AD01F091AE0186E08083E091AB01F091B2
:10096000AC01808180618083E091AB01F091AC01AA
:10097000808188608083E091AB01F091AC0180813F
:1009800080688083E091AB01F091AC0180818F7D24
:10099000808385E191E00E947602F8941093B00084
:1009A0001093B10084E68093B3001092B2001093CC
:1009B00070007894109337021092030380913602EE
:1009C00090E0FC01E255FF4F249186569F4FFC01B9
:1009D00084918823C9F090E0880F991FFC01E057AB
:1009E000FF4F45915491FC01EA57FF4FA591B491F7
:1009F0009FB7F894FA0180812095822380838C919F
:100A0000E22FE823EC939FBF22242394312C44242B
:100A10004A94542C32018BE392E090939601809398
:100A200095018091030390E0909398018093970142
:100A300080913702853009F012C580913D02909176
:100A40003E02885891098D35910508F086C0809145
:100A50000303843009F055C080913F029091400219
:100A60008097479708F04DC08091410290914202D3
:100A70000997099708F045C01092940110929301CC
:100A800040928F0150929001609291017092920178
:100A900030928C0120928B0180918F019091900176
:100AA000A0919101B09192018739E8E69E07EFEF9E
:100AB000AE07B10509F4E9C408F057C48D3D22E240
:100AC00092072FEFA207B10509F4D9C408F02BC48F
:100AD0008F3EF0E19F07FFEFAF07B10509F4DEC4D9
:100AE000873E28E192072FEFA207B10509F4DCC485
:100AF0008D3F9240AF4FB10509F024C48BE391E0E4
:100B000082C480910303843440F180913F0290912C
:100B10004002825491098E9700F590E080E040E019
:100B200050E0BA01FC01EF5BFD4F2081318129507B
:100B300031092930310588F4FC01ED5BFD4F20813E
:100B40003181265131092131310530F12081318146
:100B50002650310927303105C0F1809103038A31D5
:100B600008F468C080913B0290913C02843F914020
:100B700088F5109294011092930140928F01509247
:100B80009001609291017092920189E090E09093BF
:100B90008C0180938B0180CF440F551F661F771FF8
:100BA000416004968038910509F0BCCFA0E2B0E026
:100BB000B0939401A093930140938F0150939001BF
:100BC000609391017093920163CF440F551F661F8C
:100BD000771FE7CF80913D0290913E0285974B971A
:100BE00048F5E6E3F2E082E090E040E050E0BA0150
:100BF000A09103039C012F5F3F4FA217130609F03A
:100C00000CF4F2C021853285275031092730310597
:100C100008F0EAC023853485235131092F3031058E
:100C200008F4D5C0238534852A503109293031058F
:100C300008F4D5C0809103038A3108F43FC0809145
:100C40003B0290913C028032934008F492CF809115
:100C50003D0290913E02C697869780F580913F02B3
:100C600090914002C697869748F5E6E3F2E083E06C
:100C700090E040E050E0BA01A09103039C012F5F97
:100C80003F4FA217130609F00CF4D8C02385348512
:100C90002C5031092B30310508F0D0C02585368520
:100CA000255231092B31310508F4BBC02585368525
:100CB0002C5031092A30310508F4BBC08091030360
:100CC000823238F180913D0290913E02069707975B
:100CD00000F5E6E3F2E082E090E040E050E0BA01A7
:100CE000DC011196209103032A171B0609F00CF46E
:100CF000D1C0218532852E5131092731310508F4C3
:100D0000B4C0218532852C5031092B30310508F4CF
:100D1000BBC0809103038D3008F4EDC03C822B8270
:100D20001A82198249E753E0BE016F5F7F4FCE01FF
:100D300003960E94D000892B09F0DDC049E753E0FB
:100D4000BE016F5F7F4FCE0103960E94D0000197D6
:100D500009F0D1C049E753E0BE016F5F7F4FCE017C
:100D600003960E94D0008C01892B09F0C4C0812C0D
:100D7000912C5401209103038B819C812817190623
:100D800009F00CF4A9C049E753E0BE016F5F7F4F43
:100D9000CE0103960E94D0007C0149E753E0BE01DA
:100DA0006F5F7F4FCE0103960E94D00021E0E216D4
:100DB000F10409F088C0892B09F09DC0880C991CAA
:100DC000AA1CBB1C689480F80F5F1F4FD3CF440F41
:100DD000551F661F771F41600296349609CF440F56
:100DE000551F661F771FF8CF0197959587959093AC
:100DF0009401809393010C972CF41092940110921B
:100E0000930118CF40938F0150939001609391010B
:100E100070939201E2E0F0E0F0938C01E0938B019B
:100E20003BCE440F551F661F771F416002963496D4
:100E300023CF440F551F661F771FF8CF0197959555
:100E4000879590939401809393010C972CF41092C2
:100E500094011092930132CF40938F0150939001EF
:100E6000609391017093920190CE440F551F661FBD
:100E7000771F41602385348534962350310925300E
:100E8000310538F402962CCF440F551F661F771F8B
:100E9000F1CFCD010197959587959093940180931B
:100EA000930140972CF4109294011092930131CF4A
:100EB00040938F0150939001609391017093920140
:100EC0008AE090E064CEEF28B1F40197A1F4880C99
:100ED000991CAA1CBB1C78CF10939401009393011A
:100EE00080928F0190929001A0929101B092920114
:100EF00083E090E04CCEE0919501F09196018091D5
:100F0000970190919801181619060CF07EC03C824A
:100F10002B828281938189974E9708F076C082E078
:100F200090E09C838B83848195810B970A9708F0CE
:100F30006CC083E090E09C838B831A8219824CEB17
:100F400051E0BE016F5F7F4FCE0103960E94D0003B
:100F50008C01892B09F059C04CEB51E0BE016F5F49
:100F60007F4FCE0103960E94D000019709F04DC03B
:100F7000812C912C540120919701309198018B8103
:100F80009C81821793070CF0AEC04CEB51E0BE0180
:100F90006F5F7F4FCE0103960E94D0007C0103302B
:100FA000110539F14CEB51E0BE016F5F7F4FCE016F
:100FB00003960E94D0006C010330110561F44CEBE4
:100FC00051E0BE016F5F7F4FCE0103960E94D000BB
:100FD000C816D906D1F4E114F10409F477C0EA94F3
:100FE000EF2899F4CD2889F4880C991CAA1CBB1C05
:100FF00077C04CEB51E0BE016F5F7F4FCE0103968F
:101000000E94D000E816F90669F2E0919501F0918E
:10101000960182819381C697869778F58481958120
:101020004B97459750F5DF0116967F0126ECE20EAF
:10103000F11C20E030E040E050E060E070E080E053
:1010400090E00D911C91119709501109083011057C
:10105000A0F412960D911C911397015111090D30B6
:10106000110508F44FC012960D911C91139704506E
:1010700011090530110508F46AC08091030382321A
:1010800009F069C0828193810A97099708F063C0CB
:10109000A0910303B0E0A150B048AA0FBB1FAE0F50
:1010A000BF1F8D919C910A97099708F054C0109228
:1010B00094011092930140928F015092900160929E
:1010C00091017092920188E090E061CDCA94CD28A0
:1010D00009F09BCF880C991CAA1CBB1C689480F853
:1010E0000F5F1F4F48CF109394010093930180929C
:1010F0008F0190929001A0929101B092920184E0B0
:1011000090E045CD01E00E94B10C21601496AE152F
:10111000BF0509F096CF20938F0130939001409343
:1011200091015093920100E20E94CC0C20938D011A
:1011300030938E0187E090E090938C0180938B0137
:1011400080E390E09093940180939301A5CC01E01B
:101150000E94B10CDBCF828193818957910983353D
:10116000910568F580910303813248F1848195816E
:10117000CA97899720F59F012A5F3F4FC12CD12C38
:10118000760143E050E0D9016D917C9111976A504E
:1011900071096930710598F412966D917C911397DD
:1011A000665171096131710508F48BC012966D9119
:1011B0007C91665071096730710508F4AFC0809169
:1011C00097019091980198878F8306970CF442C1FC
:1011D000DF011296BE83AD8395ECC92E9DE9D92E11
:1011E0009CE1E92E91E8F92E03E010E0ED81FE810B
:1011F00064817581A080B18090E080E00E94770BCF
:1012000069877A878B879C87B50190E080E00E9490
:10121000770B4B015C012DEC3CEC4CE45FE30E944E
:10122000290C9B01AC0169857A858B859C850E9480
:10123000CA0AF0E0E0E087FD16C02DEC3CEC4CE47F
:101240005FE369857A858B859C850E94290C9B01CB
:10125000AC01C501B4010E94CA0AE2E0F0E087FDDA
:1012600002C0E1E0F0E0A701960163E971E080E0EF
:1012700091E00E94960C6F01FF0FEE08FF08C62652
:10128000D726E826F9260F5F1F4F8D819E81029693
:101290009E838D83AF81B885A017B10709F0A6CFD3
:1012A000C0928F01D0929001E0929101F092920150
:1012B000E0E2F0E0F0939401E09393018FEF9FEF71
:1012C00066CCD701C601880F991FAA1FBB1F6C01EE
:1012D0007D016894C0F84E5F5F4F2C5F3F4F4332F3
:1012E000510509F050CF9F012A5B3F4FD9012D9145
:1012F0003C912A5031092930310508F060CF20E1B6
:1013000030E03093940120939301C0928F01D092EA
:101310009001E0929101F0929201D5CECC0CDD1CAF
:10132000EE1CFF1CD8CF853BFAE49F07FFEFAF0709
:10133000B10509F4BCC048F4873C9843AF4FB105F0
:1013400009F4B8C080E791E05EC0853AFAE59F07EE
:10135000FFEFAF07B10509F4A4C08D399246AF4F36
:10136000B10581F782E391E04EC08F34E0EB9E0738
:10137000EFEFAE07B10509F48EC000F5873628E916
:1013800092072FEFA207B10509F482C040F48F360F
:101390009049AF4FB105B1F687E491E034C08D3587
:1013A00022EA92072FEFA207B10559F18735984A33
:1013B000AF4FB10539F684E491E025C08F31F0EEEE
:1013C0009F07FFEFAF07B10509F45CC048F48D3308
:1013D000924CAF4FB10509F0B5CF8EE391E013C049
:1013E0008D31F2EE9F07FFEFAF07B10509F444C05E
:1013F0008F3F9F4FAF4FBF4F09F0A4CF88E691E0DA
:1014000002C08FE291E00E9476020E9451024B01DD
:101410005C0184EFC82EDD24D394E12CF12C0E94D2
:101420005102681979098A099B09683E7340810550
:101430009105A8F381E0C81AD108E108F10898EEF7
:10144000890E93E0991EA11CB11CC114D104E104C2
:10145000F10429F782E0809337021092030380E0C1
:1014600090E0892B09F4D7CA0E94AE01882309F4C1
:10147000D2CA0E940000CFCA85E391E0C4CF88E3BE
:1014800091E0C1CF81E491E0BECF89E491E0BBCF90
:101490008CE491E0B8CF8FE491E0B5CF82E591E0A4
:1014A000B2CF87E591E0AFCF8DE591E0ACCF80E69C
:1014B00091E0A9CF85E691E0A6CF5058BB27AA2797
:1014C0000E94750A0C94EF0B0E94E10B38F00E9409
:1014D000E80B20F039F49F3F19F426F40C94DE0B4E
:1014E0000EF4E095E7FB0C94D80BE92F0E94000C5A
:1014F00058F3BA17620773078407950720F079F449
:10150000A6F50C94220C0EF4E0950B2EBA2FA02D0C
:101510000B01B90190010C01CA01A0011124FF27A0
:10152000591B99F0593F50F4503E68F11A16F0409B
:10153000A22F232F342F4427585FF3CF469537959A
:101540002795A795F0405395C9F77EF41F16BA0B5F
:10155000620B730B840BBAF09150A1F0FF0FBB1F0D
:10156000661F771F881FC2F70EC0BA0F621F731F56
:10157000841F48F4879577956795B795F7959E3FB3
:1015800008F0B0CF9395880F08F09927EE0F979544
:10159000879508950E94B40B08F481E008950E9495
:1015A000E30A0C94EF0B0E94E80B58F00E94E10B49
:1015B00040F029F45F3F29F00C94D80B51110C94A2
:1015C000230C0C94DE0B0E94000C68F39923B1F3FA
:1015D000552391F3951B550BBB27AA276217730759
:1015E000840738F09F5F5F4F220F331F441FAA1FED
:1015F000A9F335D00E2E3AF0E0E832D091505040A9
:10160000E695001CCAF72BD0FE2F29D0660F771F56
:10161000881FBB1F261737074807AB07B0E809F03C
:10162000BB0B802DBF01FF2793585F4F3AF09E3FC1
:10163000510578F00C94D80B0C94230C5F3FE4F325
:10164000983ED4F3869577956795B795F7959F5F04
:10165000C9F7880F911D9695879597F90895E1E050
:10166000660F771F881FBB1F621773078407BA07AF
:1016700020F0621B730B840BBA0BEE1F88F7E0950A
:1016800008950E94480B6894B1110C94230C08959E
:101690000E94080C88F09F5798F0B92F9927B751EE
:1016A000B0F0E1F0660F771F881F991F1AF0BA9506
:1016B000C9F714C0B13091F00E94220CB1E0089536
:1016C0000C94220C672F782F8827B85F39F0B93F28
:1016D000CCF3869577956795B395D9F73EF49095B9
:1016E0008095709561957F4F8F4F9F4F0895E89437
:1016F00009C097FB3EF490958095709561957F4F5A
:101700008F4F9F4F9923A9F0F92F96E9BB27939507
:10171000F695879577956795B795F111F8CFFAF417
:10172000BB0F11F460FF1BC06F5F7F4F8F4F9F4F48
:1017300016C0882311F096E911C0772321F09EE8A6
:10174000872F762F05C0662371F096E8862F70E00C
:1017500060E02AF09A95660F771F881FDAF7880FE6
:101760009695879597F90895990F0008550FAA0B3C
:10177000E0E8FEEF16161706E807F907C0F01216A4
:101780001306E407F50798F0621B730B840B950BA7
:1017900039F40A2661F0232B242B252B21F40895FC
:1017A0000A2609F4A140A6958FEF811D811D089599
:1017B00097F99F6780E870E060E008959FEF80EC04
:1017C000089500240A9416161706180609060895A7
:1017D00000240A9412161306140605060895092E0D
:1017E0000394000C11F4882352F0BB0F40F4BF2B7C
:1017F00011F460FF04C06F5F7F4F8F4F9F4F0895BC
:1018000057FD9058440F551F59F05F3F71F04795B1
:10181000880F97FB991F61F09F3F79F08795089596
:10182000121613061406551FF2CF4695F1DF08C0B5
:10183000161617061806991FF1CF869571056105D2
:1018400008940895E894BB2766277727CB0197F97A
:1018500008950E943C0C0C94EF0B0E94E10B38F0B1
:101860000E94E80B20F0952311F00C94D80B0C94F7
:10187000DE0B11240C94230C0E94000C70F3959F36
:10188000C1F3950F50E0551F629FF001729FBB2777
:10189000F00DB11D639FAA27F00DB11DAA1F649F13
:1018A0006627B00DA11D661F829F2227B00DA11DC6
:1018B000621F739FB00DA11D621F839FA00D611D4C
:1018C000221F749F3327A00D611D231F849F600D6D
:1018D000211D822F762F6A2F11249F5750409AF096
:1018E000F1F088234AF0EE0FFF1FBB1F661F771F22
:1018F000881F91505040A9F79E3F510580F00C94ED
:10190000D80B0C94230C5F3FE4F3983ED4F38695F8
:1019100077956795B795F795E7959F5FC1F7FE2B8C
:10192000880F911D9695879597F90895DB018F9300
:101930009F930E94A60CBF91AF91A29F800D911D15
:10194000A39F900DB29F900D112408950E94ED0C5D
:10195000A59F900DB49F900DA49F800D911D112403
:101960000895002E083090F0982F872F762F652F3E
:10197000542F432F322F22270850F4CF220F331F2A
:10198000441F551F661F771F881F991F0A95B2F7BE
:10199000002D089597FD1094002E083098F00850FF
:1019A000232F342F452F562F672F782F892F912DD6
:1019B000F4CF1594979587957795679557954795A3
:1019C000379527950A95AAF71124002D0895EE0F53
:1019D000FF1F0590F491E02D0994A29FB001B39FE1
:1019E000C001A39F700D811D1124911DB29F700D28
:0C19F000811D1124911D0895F894FFCF73
:1019FC0000000000E401440171013102A2018001E8
:101A0C0094010D0A0049522052656365697665722E
:101A1C0020427574746F6E204465636F646500209A
:101A2C0031002032002033002034002035002036D5
:101A3C00002037002038003900202A0020300020F8
:101A4C0023004C6566740052696768740055500039
:101A5C00444F574E004F4B002052455045415400C7
:101A6C00206F7468657220627574746F6E2020200C
:021A7C00000068
:107E0000112484B714BE81FFF0D085E080938100F7
:107E100082E08093C00088E18093C10086E0809377
:107E2000C20080E18093C4008EE0C9D0259A86E02C
:107E300020E33CEF91E0309385002093840096BBD3
:107E4000B09BFECF1D9AA8958150A9F7CC24DD24C4
:107E500088248394B5E0AB2EA1E19A2EF3E0BF2EE7
:107E6000A2D0813461F49FD0082FAFD0023811F036
:107E7000013811F484E001C083E08DD089C08234E0
:107E800011F484E103C0853419F485E0A6D080C0E4
:107E9000853579F488D0E82EFF2485D0082F10E0AE
:107EA000102F00270E291F29000F111F8ED06801E7
:107EB0006FC0863521F484E090D080E0DECF843638
:107EC00009F040C070D06FD0082F6DD080E0C81688
:107ED00080E7D80618F4F601B7BEE895C0E0D1E017
:107EE00062D089930C17E1F7F0E0CF16F0E7DF06D8
:107EF00018F0F601B7BEE89568D007B600FCFDCFD4
:107F0000A601A0E0B1E02C9130E011968C91119780
:107F100090E0982F8827822B932B1296FA010C0160
:107F200087BEE89511244E5F5F4FF1E0A038BF0790
:107F300051F7F601A7BEE89507B600FCFDCF97BE46
:107F4000E89526C08437B1F42ED02DD0F82E2BD052
:107F50003CD0F601EF2C8F010F5F1F4F84911BD097
:107F6000EA94F801C1F70894C11CD11CFA94CF0C13
:107F7000D11C0EC0853739F428D08EE10CD085E9AC
:107F80000AD08FE07ACF813511F488E018D01DD067
:107F900080E101D065CF982F8091C00085FFFCCF94
:107FA0009093C60008958091C00087FFFCCF809118
:107FB000C00084FD01C0A8958091C6000895E0E648
:107FC000F0E098E1908380830895EDDF803219F02E
:107FD00088E0F5DFFFCF84E1DECF1F93182FE3DFCA
:107FE0001150E9F7F2DF1F91089580E0E8DFEE27F6
:047FF000FF270994CA
:027FFE00040479
:0400000300007E007B
:00000001FF
