:100000000C9462000C948A000C948A000C948A0070
:100010000C948A000C948A000C948A000C942E0391
:100020000C948A000C948A000C948A000C948A0028
:100030000C948A000C948A000C948A000C948A0018
:100040000C94E4020C948A000C94B2020C948C027E
:100050000C948A000C948A000C948A000C948A00F8
:100060000C948A000C948A000000000023002600F3
:10007000290000000008000201000003040700003E
:1000800000000000000000000000250028002B00F8
:1000900000000000240027002A00040404040404D3
:1000A0000404020202020202030303030303010227
:1000B00004081020408001020408102001020408F6
:1000C00010200E0411241FBECFEFD8E0DEBFCDBF3D
:1000D00022E0ACE3B1E001C01D92A23CB207E1F71F
:1000E00011E0A0E0B1E0E0E5FEE102C005900D9274
:1000F000AC33B107D9F710E0C2E6D0E004C02197D5
:10010000FE010E942E0DC136D107C9F70E9440049E
:100110000C94260F0C940000CF92DF92EF92FF9286
:10012000CF93DF93EC01072E000C880B990B0E94F4
:10013000650A6B017C0120E030E040E45FE30E944F
:10014000C40A20E030E048E452E40E94400C0E94DF
:10015000B20CC617D707D4F020E030E040EA5FE3E6
:10016000C701B6010E94C40A20E030E048E452E42E
:100170000E94400C20E030E040E85FE30E94D40B96
:100180000E94B20C21E06C177D070CF420E0822F56
:1001900090E0DF91CF91FF90EF90DF90CF900895A6
:1001A0008F929F92AF92BF92CF92DF92EF92FF9287
:1001B0000F931F93CF93DF93FC0120813181E09156
:1001C0005101F091520101E010E02E173F070CF0B1
:1001D00043C0D901AA0FBB1FE0914F01F09150011C
:1001E000EA0FFB1FA080B180890100951095017076
:1001F000112720FD23C02CE93FEFEA016B017C01B0
:100200004901840E951EB401C5010E948C00892B02
:10021000C1F48C0E9D1EB401C5010E948C00892B77
:1002200049F5BE01680D791DC5010E948C0023E0CF
:1002300030E0892B41F40FEF1FEF0EC024E630E0D1
:10024000DCCF21E030E0F6018081918101968217B8
:1002500093079CF491838083C801DF91CF911F9114
:100260000F91FF90EF90DF90CF90BF90AF909F9055
:100270008F90089522E030E0E6CF11821082F701DE
:10028000808191810196E6CFDC0114962D913C91FD
:1002900015976217730728F4ED91FC91E60FF71F8D
:1002A00040830895AF92BF92CF92DF92EF92FF9278
:1002B0000F931F93CF93DF936C017B018B01040F8E
:1002C000151FEB015E01AE18BF08C017D10759F02A
:1002D0006991D601ED91FC910190F081E02DC6016C
:1002E0000995892B79F7C501DF91CF911F910F9166
:1002F000FF90EF90DF90CF90BF90AF900895FC01FA
:10030000538D448D252F30E0842F90E0821B930B7A
:10031000541710F0CF96089501970895FC01918D20
:10032000828D981761F0A28DAE0FBF2FB11D5D9623
:100330008C91928D9F5F9F73928F90E008958FEFC5
:100340009FEF0895FC01918D828D981731F0828D79
:10035000E80FF11D858D90E008958FEF9FEF0895D0
:10036000FC01918D228D892F90E0805C9F4F821B34
:1003700091098F739927089583E591E00E94B00158
:1003800021E0892B09F420E0822F089580E090E09D
:10039000892B29F00E94BC0181110C940000089562
:1003A000FC01A48DA80FB92FB11DA35ABF4F2C91EA
:1003B000848D90E001968F739927848FA689B789E1
:1003C0002C93A089B1898C91837080648C93938DD8
:1003D000848D981306C00288F389E02D80818F7D7B
:1003E00080830895EF92FF920F931F93CF93DF9333
:1003F000EC0181E0888F9B8D8C8D98131AC0E88961
:10040000F989808185FF15C09FB7F894EE89FF892F
:100410006083E889F98980818370806480839FBFCD
:1004200081E090E0DF91CF911F910F91FF90EF90CD
:100430000895F62E0B8D10E00F5F1F4F0F731127DD
:10044000E02E8C8D8E110CC00FB607FCFACFE88918
:10045000F989808185FFF5CFCE010E94D001F1CFCF
:10046000EB8DEC0FFD2FF11DE35AFF4FF0829FB78C
:10047000F8940B8FEA89FB8980818062CFCFCF937C
:10048000DF93EC01888D8823B9F0AA89BB89E889BC
:10049000F9898C9185FD03C0808186FD0DC00FB662
:1004A00007FCF7CF8C9185FFF2CF808185FFEDCFE0
:1004B000CE010E94D001E9CFDF91CF9108953FB7DF
:1004C000F8948091410190914201A0914301B09133
:1004D000440126B5A89B05C02F3F19F00196A11D28
:1004E000B11D3FBFBA2FA92F982F8827BC01CD017E
:1004F000620F711D811D911D42E0660F771F881FDD
:10050000991F4A95D1F7089542E050E068E171E003
:1005100083E591E00C9452011F920F920FB60F9257
:1005200011242F933F934F935F936F937F938F93F8
:100530009F93AF93BF93EF93FF9383E591E00E9466
:10054000D001FF91EF91BF91AF919F918F917F91DA
:100550006F915F914F913F912F910F900FBE0F9030
:100560001F9018951F920F920FB60F9211242F9380
:100570008F939F93EF93FF93E0916301F091640158
:100580008081E0916901F0916A0182FD1BC0908138
:1005900080916C018F5F8F7320916D01821741F004
:1005A000E0916C01F0E0ED5AFE4F958F80936C0165
:1005B000FF91EF919F918F912F910F900FBE0F9010
:1005C0001F9018958081F4CF1F920F920FB60F9253
:1005D00011242F933F938F939F93AF93BF93809159
:1005E0003D0190913E01A0913F01B09140013091B9
:1005F0003C0123E0230F2D3758F50196A11DB11DB5
:1006000020933C0180933D0190933E01A0933F01D4
:10061000B09340018091410190914201A09143012A
:10062000B09144010196A11DB11D809341019093A9
:100630004201A0934301B0934401BF91AF919F91B8
:100640008F913F912F910F900FBE0F901F90189593
:1006500026E8230F0296A11DB11DD2CF1F920F9243
:100660000FB60F9211242F933F938F939F93AF93C5
:10067000BF93EF93FF938091F00190E0FC01EE585F
:10068000FF4F2491FC01E255FF4F3491FC01E656E7
:10069000FF4FE491EE23C1F0222359F0233009F4F7
:1006A0004DC008F040C0213009F44EC0223009F49A
:1006B0004FC0F0E0EE0FFF1FE859FF4FA591B49136
:1006C000EC913E2381E009F480E02091F301309128
:1006D000F4012F5F3F4F3093F4012093F301909189
:1006E000BD02943618F095E09093F1019091F101DC
:1006F000933009F469C0C8F5923009F43EC0909176
:10070000F201992319F0811187C02D9AFF91EF9181
:10071000BF91AF919F918F913F912F910F900FBEFD
:100720000F901F9018952730B1F02830D1F0243069
:1007300009F0BFCF809180008F7D03C08091800041
:100740008F7780938000B5CF84B58F7784BDB1CF8C
:1007500084B58F7DFBCF8091B0008F778093B00000
:10076000A8CF8091B0008F7DF9CF943009F448C0B4
:10077000953029F68111C3CF09C08111C0CF2091D6
:10078000F3013091F4012436310528F41092F4017C
:100790001092F301B4CF1092BD02E091BD0291E03E
:1007A0009E0F9093BD02F0E02091F3013091F4018F
:1007B000EE0FFF1FE051FE4F368325831092F401A8
:1007C0001092F30193E019C0813009F098CFE091C5
:1007D000BD0291E09E0F9093BD02F0E02091F301E5
:1007E0003091F401EE0FFF1FE051FE4F3683258359
:1007F0001092F4011092F30194E09093F1017FCFF5
:10080000882359F22091F3013091F4012536310506
:1008100008F475CF95E0F1CF2D9878CFE3E5F1E0BE
:100820001382128288EE93E0A0E0B0E08483958387
:10083000A683B7838AE091E09183808385EC90E082
:100840009587848784EC90E09787868780EC90E09A
:10085000918B808B81EC90E0938B828B82EC90E08B
:10086000958B848B86EC90E0978B868B118E128E05
:10087000138E148EE0EFF1E082E0808312820895FF
:10088000CF93DF93CDB7DEB760970FB6F894DEBF96
:100890000FBECDBF789484B5826084BD84B581607D
:1008A00084BD85B5826085BD85B5816085BD80913B
:1008B0006E00816080936E001092810080918100B3
:1008C00082608093810080918100816080938100AB
:1008D000809180008160809380008091B10084606D
:1008E0008093B1008091B00081608093B0008091CE
:1008F0007A00846080937A0080917A00826080938D
:100900007A0080917A00816080937A0080917A00E9
:10091000806880937A001092C100E0916301F091A9
:10092000640112E01083E0915F01F0916001108298
:10093000E0916101F09162018FEC808310926B0174
:10094000E0916701F091680186E08083E0916501A4
:10095000F0916601808180618083E0916501F09172
:100960006601808188608083E0916501F091660175
:10097000808180688083E0916501F09166018081CB
:100980008F7D808349E150E06BE171E083E591E088
:100990000E9452010E948402F8941093B0001093B8
:1009A000B10084E68093B3001092B20010937000FF
:1009B00078941093F1011092BD028091F00190E0C3
:1009C000FC01E255FF4F249186569F4FFC01849114
:1009D0008823C9F090E0880F991FFC01E057FF4F72
:1009E00045915491FC01EA57FF4FA591B4919FB7EF
:1009F000F894FA0180812095822380838C91E22FE4
:100A0000E823EC939FBF22242394312C1A8219826D
:100A10001C821B821E821D8266E070E090E080E0F6
:100A20000E94590E009709F473C49A83898325E0C4
:100A300030E03C832B832D813E81232B11F4DC019C
:100A40001C9225E030E03E832D8365E371E00E9437
:100A50001F0F6AC48091BD02843440F18091F90176
:100A60009091FA01825491098E9700F590E080E010
:100A700040E050E0BA01FC01E550FE4F2081318199
:100A8000295031092930310588F4FC01E350FE4F2B
:100A900020813181265131092131310548F12081F0
:100AA00031812650310927303105D8F18091BD02BE
:100AB0008A3108F46BC08091F5019091F601843F72
:100AC0009140A0F510924E0110924D018FEF9FEFD3
:100AD000DC018093490190934A01A0934B01B093AC
:100AE0004C0189E090E0909346018093450162C4F7
:100AF000440F551F661F771F41600496803891058B
:100B000009F0B9CFA0E2B0E0B0934E01A0934D013F
:100B10004093490150934A0160934B0170934C01FB
:100B200045C4440F551F661F771FE7CF8091F7011B
:100B30009091F80185974B9748F5E0EFF1E082E05E
:100B400090E040E050E0BA01A091BD029C012F5F0F
:100B50003F4FA217130609F00CF4F2C0218532852D
:100B6000275031092730310508F0EAC02385348544
:100B7000235131092F30310508F4D5C02385348540
:100B80002A5031092930310508F4D5C08091BD02C1
:100B90008A3108F43FC08091F5019091F6018032CE
:100BA000934008F48FCF8091F7019091F801C69798
:100BB000869780F58091F9019091FA01C697869702
:100BC00048F5E0EFF1E083E090E040E050E0BA016A
:100BD000A091BD029C012F5F3F4FA217130609F0A1
:100BE0000CF4D8C0238534852C5031092B303105C5
:100BF00008F0D0C025853685255231092B313105C5
:100C000008F4BBC0258536852C5031092A303105C2
:100C100008F4BBC08091BD02823238F18091F701A7
:100C20009091F8010697079700F5E9EFF1E082E06F
:100C300090E040E050E0BA01DC0111962091BD0245
:100C40002A171B0609F00CF4D1C0208131812E51E6
:100C500031092731310508F4B4C0208131812C508D
:100C600031092B30310508F4BBC08091BD028D30B5
:100C700008F4EDC03A86298618861F8249E753E0BA
:100C8000BE01695F7F4FCE0109960E94D000892B7B
:100C900009F0DDC049E753E0BE01695F7F4FCE0137
:100CA00009960E94D000019709F0D1C049E753E0AE
:100CB000BE01695F7F4FCE0109960E94D0008C0172
:100CC000892B09F0C4C0812C912C54012091BD02C4
:100CD00089859A852817190609F00CF4A9C049E7F7
:100CE00053E0BE01695F7F4FCE0109960E94D0009C
:100CF0007C0149E753E0BE01695F7F4FCE01099651
:100D00000E94D000E1E0EE16F10409F088C0892BC2
:100D100009F09DC0880C991CAA1CBB1C689480F823
:100D20000F5F1F4FD3CF440F551F661F771F4160C2
:100D30000296349609CF440F551F661F771FF8CFD0
:100D400001979595879590934E0180934D010C974F
:100D50002CF410924E0110924D0118CF409349018E
:100D600050934A0160934B0170934C01A2E0B0E0B4
:100D7000B0934601A09345011DC3440F551F661F44
:100D8000771F41600296349623CF440F551F661F8C
:100D9000771FF8CF01979595879590934E01809393
:100DA0004D010C972CF410924E0110924D0132CF50
:100DB0004093490150934A0160934B0170934C0159
:100DC00090CE440F551F661F771F416022813381EB
:100DD0003496235031092530310538F402962CCF52
:100DE000440F551F661F771FF1CFCD0101979595D1
:100DF000879590934E0180934D0140972CF410926B
:100E00004E0110924D0131CF4093490150934A0158
:100E100060934B0170934C018AE090E064CEEF2820
:100E2000B1F40197A1F4880C991CAA1CBB1C78CFC3
:100E300010934E0100934D018092490190924A0116
:100E4000A0924B01B0924C0183E090E04CCEE09137
:100E50004F01F0915001809151019091520118166B
:100E600019060CF07EC03A86298682819381899783
:100E70004E9708F076C022E030E03A8729878481D7
:100E800095810B970A9708F06CC083E090E09A87F1
:100E9000898718861F824CEB51E0BE01695F7F4F46
:100EA000CE0109960E94D0008C01892B09F059C00F
:100EB0004CEB51E0BE01695F7F4FCE0109960E9465
:100EC000D000019709F04DC0412C512C32012091E6
:100ED00051013091520189859A85821793070CF050
:100EE000B1C04CEB51E0BE01695F7F4FCE01099666
:100EF0000E94D0005C010330110539F14CEB51E048
:100F0000BE01695F7F4FCE0109960E94D0007C012F
:100F10000330110561F44CEB51E0BE01695F7F4F76
:100F2000CE0109960E94D000E816F906D1F4A1146A
:100F3000B10409F47AC0AA94AB2899F4EF2889F493
:100F4000440C551C661C771C7AC04CEB51E0BE016A
:100F5000695F7F4FCE0109960E94D000A816B9069E
:100F600069F2E0914F01F091500182819381C6971F
:100F7000869778F5848195814B97459750F5DF01E9
:100F800016967F0196ECE90EF11C20E030E040E07F
:100F900050E060E070E080E090E00D911C911197CE
:100FA0000950110908301105A0F412960D911C91F9
:100FB0001397015111090D30110508F452C0129612
:100FC0000D911C911397045011090530110508F477
:100FD0006DC08091BD02823209F06CC08281938124
:100FE0000A97099708F066C0A091BD02B0E0A15031
:100FF000B048AA0FBB1FAE0FBF1F8D919C910A97DF
:10100000099708F057C010924E0110924D018FEFD2
:101010009FEFDC018093490190934A01A0934B011B
:10102000B0934C0188E090E05ECDEA94EF2809F09F
:1010300098CF440C551C661C771C689440F80F5FD1
:101040001F4F45CF10934E0100934D01409249012F
:1010500050924A0160924B0170924C0184E090E002
:1010600042CD01E00E94F80C21601496EA16FB06BE
:1010700009F093CF2093490130934A0140934B01EB
:1010800050934C0100E20E94130D209347013093CE
:10109000480187E090E0909346018093450180E30A
:1010A00090E090934E0180934D0184C101E00E9435
:1010B000F80CDBCF828193818957910983359105A3
:1010C00068F58091BD02813248F184819581CA978B
:1010D000899720F59F012A5F3F4F812C912C540165
:1010E00043E050E0D9016D917C9111976A507109EC
:1010F0006930710598F412966D917C911397665141
:1011000071096131710508F48DC012966D917C9161
:10111000665071096730710508F4B1C02091510122
:1011200030915201388B2F87263031050CF465C180
:101130007F0132E0E30EF11C95EC492E9DE9592E1A
:101140009CE1692E91E8792E03E010E0D701149616
:101150006D917C911597ED91FC91FC87EB8790E068
:1011600080E00E94630A4B015C012B853C85B9013C
:1011700090E080E00E94630A6B877C878D879E8762
:101180002DEC3CEC4CE45FE30E94C40A9B01AC01F3
:10119000C501B4010E945E0AF0E0E0E087FD16C0E0
:1011A0002DEC3CEC4CE45FE3C501B4010E94C40AA1
:1011B0009B01AC016B857C858D859E850E945E0AB6
:1011C000E2E0F0E087FD02C0E1E0F0E0A30192017F
:1011D00063E971E080E091E00E94E80C2F01FF0FCD
:1011E0006608770846265726682679260F5F1F4F20
:1011F00032E0E30EF11C8F8598898017910709F082
:10120000A5CF4092490150924A0160924B017092E1
:101210004C01A0E2B0E0B0934E01A0934D018FEFDE
:101220009FEF61CCD501C401880F991FAA1FBB1F76
:101230004C015D01689480F84E5F5F4F2C5F3F4F1B
:101240004332510509F04ECF9F012A5B3F4FD90130
:101250002D913C912A5031092930310508F05ECF9B
:1012600020E130E030934E0120934D0180924901FE
:1012700090924A01A0924B01B0924C01D3CE880CBF
:10128000991CAA1CBB1CD8CF8D39F2E69F07FFEF33
:10129000AF07B105A9F149E38F369049AF4FB105CA
:1012A00009F0ABC0B601CE0101960E944401A5C071
:1012B0008D3332EC93073FEFA307B10529F170F4AA
:1012C0008D35F2EA9F07FFEFAF07B105B9F048E3AC
:1012D0008735984AAF4FB10529F38FC08F3130EE73
:1012E00093073FEFA307B10589F043E38D31924E99
:1012F000AF4FB105B9F281C040E3D4CF41E3D2CFC3
:1013000042E3D0CF44E3CECF46E3CCCF47E3CACFCE
:1013100089819A81009711F00E94D00D1A8219825A
:101320001E821D821C821B82D12CC12CE5EFF1E0B4
:10133000F0935001E0934F018091BD0290E09093B3
:101340005201809351018091F101853009F05AC01A
:101350008091F7019091F801885891098D35910598
:1013600008F0A4CB8091BD02843009F073CB80914A
:10137000F9019091FA018097479708F06BCB809123
:10138000FB019091FC010997099708F063CB10923B
:101390004E0110924D018FEF9FEFDC0180934901C8
:1013A00090934A01A0934B01B0934C0130924601B7
:1013B000209245018091490190914A01A0914B01F1
:1013C000B0914C018736E8E99E07EFEFAE07B10513
:1013D00009F492CF08F06CCF8D3D22E292072FEFF7
:1013E000A207B10509F48ECF08F04ECF45E38D3F3B
:1013F0009240AF4FB10509F455CF82E08093F101DF
:101400001092BD028D819E81C816D90668F489812B
:101410009A81009749F08C0D9D1DDC018C918D32D5
:1014200019F4B1E0CB1AD1080E945F022B013C01F4
:1014300084EF882E99249394A12CB12C0E945F02F2
:101440006419750986099709683E734081059105FD
:10145000A8F3E1E08E1A9108A108B108F8EE4F0E4A
:10146000F3E05F1E611C711C81149104A104B1049E
:1014700029F74D815E8169817A8183E591E00E943F
:1014800052010E9484023FEFC31AD30A85E0C816B6
:10149000D10409F04BCF89819A81009711F00E9405
:1014A000D00D80E090E0892B09F4B0CA0E94BC0105
:1014B000882309F4ABCA0E940000A8CA0E94A00AAF
:1014C00008F481E00895E89409C097FB3EF49095F4
:1014D0008095709561957F4F8F4F9F4F9923A9F00D
:1014E000F92F96E9BB279395F6958795779567959C
:1014F000B795F111F8CFFAF4BB0F11F460FF1BC0E0
:101500006F5F7F4F8F4F9F4F16C0882311F096E972
:1015100011C0772321F09EE8872F762F05C0662320
:1015200071F096E8862F70E060E02AF09A95660FD9
:10153000771F881FDAF7880F9695879597F9089592
:10154000990F0008550FAA0BE0E8FEEF16161706D4
:10155000E807F907C0F012161306E407F50798F03C
:10156000621B730B840B950B39F40A2661F0232B55
:10157000242B252B21F408950A2609F4A140A695D1
:101580008FEF811D811D08950E94D70A0C94480B8E
:101590000E943A0B38F00E94410B20F0952311F085
:1015A0000C94310B0C94370B11240C947C0B0E947F
:1015B000590B70F3959FC1F3950F50E0551F629F33
:1015C000F001729FBB27F00DB11D639FAA27F00D9C
:1015D000B11DAA1F649F6627B00DA11D661F829FC3
:1015E0002227B00DA11D621F739FB00DA11D621FA8
:1015F000839FA00D611D221F749F3327A00D611DC5
:10160000231F849F600D211D822F762F6A2F1124A6
:101610009F5750409AF0F1F088234AF0EE0FFF1FD9
:10162000BB1F661F771F881F91505040A9F79E3F30
:10163000510580F00C94310B0C947C0B5F3FE4F36C
:10164000983ED4F3869577956795B795F795E79586
:101650009F5FC1F7FE2B880F911D9695879597F98F
:10166000089597F99F6780E870E060E008959FEF24
:1016700080EC089500240A94161617061806090629
:10168000089500240A9412161306140605060895F8
:10169000092E0394000C11F4882352F0BB0F40F480
:1016A000BF2B11F460FF04C06F5F7F4F8F4F9F4FC0
:1016B000089557FD9058440F551F59F05F3F71F042
:1016C0004795880F97FB991F61F09F3F79F08795A9
:1016D0000895121613061406551FF2CF4695F1DF32
:1016E00008C0161617061806991FF1CF86957105C2
:1016F000610508940895E894BB2766277727CB01F6
:1017000097F908950E94C40BA59F900DB49F900D6A
:10171000A49F800D911D112408952F923F924F9206
:101720005F926F927F928F929F92AF92BF92CF9271
:10173000DF92EF92FF920F931F93CF93DF93CDB77A
:10174000DEB7CA1BDB0B0FB6F894DEBF0FBECDBFF2
:1017500009942A88398848885F846E847D848C84C3
:101760009B84AA84B984C884DF80EE80FD800C81CC
:101770001B81AA81B981CE0FD11D0FB6F894DEBFAF
:101780000FBECDBFED010895A29FB001B39FC00170
:10179000A39F700D811D1124911DB29F700D811D9D
:1017A0001124911D08955058BB27AA270E94EB0BC6
:1017B0000C94480B0E943A0B38F00E94410B20F029
:1017C00039F49F3F19F426F40C94370B0EF4E0958E
:1017D000E7FB0C94310BE92F0E94590B58F3BA1711
:1017E000620773078407950720F079F4A6F50C9437
:1017F0007B0B0EF4E0950B2EBA2FA02D0B01B90137
:1018000090010C01CA01A0011124FF27591B99F076
:10181000593F50F4503E68F11A16F040A22F232F82
:10182000342F4427585FF3CF469537952795A795D2
:10183000F0405395C9F77EF41F16BA0B620B730B79
:10184000840BBAF09150A1F0FF0FBB1F661F771FEA
:10185000881FC2F70EC0BA0F621F731F841F48F49F
:10186000879577956795B795F7959E3F08F0B0CF28
:101870009395880F08F09927EE0F9795879508950F
:101880000E94540C0C94480B0E94410B58F00E948B
:101890003A0B40F029F45F3F29F00C94310B5111C1
:1018A0000C947C0B0C94370B0E94590B68F3992312
:1018B000B1F3552391F3951B550BBB27AA2762174C
:1018C0007307840738F09F5F5F4F220F331F441F59
:1018D000AA1FA9F335D00E2E3AF0E0E832D091508D
:1018E0005040E695001CCAF72BD0FE2F29D0660F7A
:1018F000771F881FBB1F261737074807AB07B0E8BD
:1019000009F0BB0B802DBF01FF2793585F4F3AF0C2
:101910009E3F510578F00C94310B0C947C0B5F3F8B
:10192000E4F3983ED4F3869577956795B795F79548
:101930009F5FC9F7880F911D9695879597F9089530
:10194000E1E0660F771F881FBB1F621773078407CC
:10195000BA0720F0621B730B840BBA0BEE1F88F7DB
:10196000E09508950E94B90C6894B1110C947C0B19
:1019700008950E94610B88F09F5798F0B92F99271E
:10198000B751B0F0E1F0660F771F881F991F1AF06A
:10199000BA95C9F714C0B13091F00E947B0BB1E049
:1019A00008950C947B0B672F782F8827B85F39F048
:1019B000B93FCCF3869577956795B395D9F73EF403
:1019C00090958095709561957F4F8F4F9F4F0895AB
:1019D000DB018F939F930E94820BBF91AF91A29FD7
:1019E000800D911DA39F900DB29F900D112408951D
:1019F000002E083090F0982F872F762F652F542FC8
:101A0000432F322F22270850F4CF220F331F441FB9
:101A1000551F661F771F881F991F0A95B2F7002D63
:101A2000089597FD1094002E083098F00850232F49
:101A3000342F452F562F672F782F892F912DF4CFD4
:101A40001594979587957795679557954795379509
:101A500027950A95AAF71124002D0895EE0FFF1F70
:101A60000590F491E02D09940F931F93CF93DF938A
:101A70008230910510F482E090E0E091C002F09194
:101A8000C10230E020E0B0E0A0E0309799F42115E9
:101A9000310509F44AC0281B390B24303105D8F52B
:101AA0008A819B816115710589F1FB019383828392
:101AB000FE0111C0408151810281138148175907ED
:101AC000E0F04817590799F4109761F012960C93BB
:101AD000129713961C933296CF01DF91CF911F91ED
:101AE0000F9108950093C0021093C102F4CF211505
:101AF000310551F04217530738F0A901DB019A0173
:101B0000BD01DF01F801C1CFEF01F9CF9093C10210
:101B10008093C002CDCFFE01E20FF31F819391931A
:101B20002250310939832883D7CF2091BE023091CA
:101B3000BF02232B41F42091020130910301309325
:101B4000BF022093BE0220910001309101012115B6
:101B5000310541F42DB73EB7409104015091050184
:101B6000241B350BE091BE02F091BF02E217F30790
:101B7000A0F42E1B3F0B2817390778F0AC014E5FFD
:101B80005F4F2417350748F04E0F5F1F5093BF0279
:101B90004093BE02819391939FCFF0E0E0E09CCF11
:101BA000CF93DF930097E9F0FC0132971382128202
:101BB000A091C002B091C102ED0130E020E0109789
:101BC000A1F420813181820F931F2091BE023091B8
:101BD000BF022817390709F061C0F093BF02E093F4
:101BE000BE02DF91CF910895EA01CE17DF07E8F535
:101BF0004A815B819E0141155105B1F7E901FB83E3
:101C0000EA8349915991C40FD51FEC17FD0761F480
:101C1000808191810296840F951FE90199838883C1
:101C2000828193819B838A83F0E0E0E012968D911C
:101C30009C9113970097B9F52D913C911197CD0187
:101C40000296820F931F2091BE023091BF02281787
:101C5000390739F6309751F51092C1021092C0023F
:101C6000B093BF02A093BE02BCCFD383C283408196
:101C70005181840F951FC817D90761F44E5F5F4FDC
:101C800088819981480F591F518340838A819B81A4
:101C9000938382832115310509F0B0CFF093C102FF
:101CA000E093C0029ECFFD01DC01C0CF13821282FF
:101CB000D7CFB0E0A0E0EFE5FEE00C948F0B8C01F5
:101CC000009751F4CB010E94340D8C01C801CDB7AF
:101CD000DEB7E0E10C94AB0BFC01E60FF71F9C01B3
:101CE00022503109E217F30708F49DC0D901CD91C4
:101CF000DC911197C617D70798F0C530D10530F39E
:101D0000CE0104978617970708F3C61BD70B2297B7
:101D1000C193D1936D937C93CF010E94D00DD6CF08
:101D20005B01AC1ABD0A4C018C0E9D1EA091C00235
:101D3000B091C102512C412CF12CE12C109731F5BE
:101D40008091BE029091BF028815990509F05CC090
:101D50004616570608F058C0809100019091010185
:101D6000009741F48DB79EB7409104015091050151
:101D7000841B950BE817F90708F055C0F093BF02D4
:101D8000E093BE02F90171836083A0CF8D919C9195
:101D9000119712966C90129713967C901397A81532
:101DA000B90559F56C0142E0C40ED11CCA14DB041C
:101DB00020F1AC014A195B09DA011296159780F0FF
:101DC0006282738251834083D9016D937C93E114C5
:101DD000F10471F0D7011396FC93EE93129776CF2E
:101DE00022968C0F9D1FF90191838083F301EFCF21
:101DF000F093C102E093C00269CF4816590608F477
:101E00002C017D01D3019ACFCB010E94340D7C01BE
:101E1000009749F0AE01B8010E94160FC8010E9458
:101E2000D00D870153CF10E000E050CFFB01DC0163
:101E300002C001900D9241505040D8F70895FB0127
:101E4000DC0101900D920020E1F70895F894FFCF96
:101E50000000C202800000000000F20152017F0178
:101E60003F02B0018E01A2010D0A004952205265C5
:101E700063656976657220427574746F6E2044657F
:0C1E8000636F6465002D2D2D2D2D0000DA
:107E0000112484B714BE81FFF0D085E080938100F7
:107E100082E08093C00088E18093C10086E0809377
:107E2000C20080E18093C4008EE0C9D0259A86E02C
:107E300020E33CEF91E0309385002093840096BBD3
:107E4000B09BFECF1D9AA8958150A9F7CC24DD24C4
:107E500088248394B5E0AB2EA1E19A2EF3E0BF2EE7
:107E6000A2D0813461F49FD0082FAFD0023811F036
:107E7000013811F484E001C083E08DD089C08234E0
:107E800011F484E103C0853419F485E0A6D080C0E4
:107E9000853579F488D0E82EFF2485D0082F10E0AE
:107EA000102F00270E291F29000F111F8ED06801E7
:107EB0006FC0863521F484E090D080E0DECF843638
:107EC00009F040C070D06FD0082F6DD080E0C81688
:107ED00080E7D80618F4F601B7BEE895C0E0D1E017
:107EE00062D089930C17E1F7F0E0CF16F0E7DF06D8
:107EF00018F0F601B7BEE89568D007B600FCFDCFD4
:107F0000A601A0E0B1E02C9130E011968C91119780
:107F100090E0982F8827822B932B1296FA010C0160
:107F200087BEE89511244E5F5F4FF1E0A038BF0790
:107F300051F7F601A7BEE89507B600FCFDCF97BE46
:107F4000E89526C08437B1F42ED02DD0F82E2BD052
:107F50003CD0F601EF2C8F010F5F1F4F84911BD097
:107F6000EA94F801C1F70894C11CD11CFA94CF0C13
:107F7000D11C0EC0853739F428D08EE10CD085E9AC
:107F80000AD08FE07ACF813511F488E018D01DD067
:107F900080E101D065CF982F8091C00085FFFCCF94
:107FA0009093C60008958091C00087FFFCCF809118
:107FB000C00084FD01C0A8958091C6000895E0E648
:107FC000F0E098E1908380830895EDDF803219F02E
:107FD00088E0F5DFFFCF84E1DECF1F93182FE3DFCA
:107FE0001150E9F7F2DF1F91089580E0E8DFEE27F6
:047FF000FF270994CA
:027FFE00040479
:0400000300007E007B
:00000001FF
