:100000000C9462000C948A000C948A000C948A0070
:100010000C948A000C948A000C948A000C94F80BBF
:100020000C948A000C948A000C948A000C948A0028
:100030000C948A000C948A000C948A000C948A0018
:100040000C94AE0B0C948A000C947C0B0C94560B05
:100050000C948A000C948A000C948A000C948A00F8
:100060000C948A000C948A000000000024002700F1
:100070002A0000000000250028002B0000000000DE
:1000800023002600290004040404040404040202DA
:100090000202020203030303030301020408102007
:1000A0004080010204081020010204081020000012
:1000B0000008000201000003040700000000000027
:1000C0000000970C11241FBECFEFD8E0DEBFCDBFDC
:1000D00023E0A6E0B2E001C01D92A93AB207E1F721
:1000E00012E0A0E0B1E0E6EDFDE202C005900D9265
:1000F000A630B107D9F710E0C2E6D0E004C02197DE
:10010000FE010E94F114C136D107C9F70E94FD0C0F
:100110000C94E9160C940000E82F8F37F9F0803129
:1001200060F40E2E000CFF0BEB59FE4F8081909176
:10013000A003911190E8890F089580ED8E0F8A3009
:1001400030F40E2E000CFF0BEB5CFE4FEFCFE052B5
:10015000EB3520F4F0E0E65FFE4FE8CF80E0E7CF3C
:10016000CF92DF92EF92FF92CF93DF93EC01072EB5
:10017000000C880B990B0E94FA116B017C0120E0A6
:1001800030E040E45FE30E94591220E030E048E4B0
:1001900052E40E94D5130E944714C617D707D4F023
:1001A00020E030E040EA5FE3C701B6010E94591247
:1001B00020E030E048E452E40E94D51320E030E033
:1001C00040E85FE30E9469130E94471421E06C1726
:1001D0007D070CF420E0822F90E0DF91CF91FF901B
:1001E000EF90DF90CF9008958F929F92AF92BF9241
:1001F000CF92DF92EF92FF920F931F93CF93DF93F3
:10020000FC0120813181E0911D02F0911E0201E08C
:1002100010E02E173F070CF043C0D901AA0FBB1FF7
:10022000E0911B02F0911C02EA0FFB1FA080B1803D
:100230008901009510950170112720FD23C02CE93C
:100240003FEFEA016B017C014901840E951EB40168
:10025000C5010E94B000892BC1F48C0E9D1EB40113
:10026000C5010E94B000892B49F5BE01680D791DBA
:10027000C5010E94B00023E030E0892B41F40FEF6C
:100280001FEF0EC024E630E0DCCF21E030E0F601C5
:10029000808191810196821793079CF491838083DA
:1002A000C801DF91CF911F910F91FF90EF90DF90E8
:1002B000CF90BF90AF909F908F90089522E030E054
:1002C000E6CF11821082F701808191810196E6CFFD
:1002D0002F923F924F925F926F927F928F929F9256
:1002E000AF92BF92CF92DF92EF92FF920F931F9344
:1002F000CF93DF9300D000D000D0CDB7DEB781EC34
:1003000092E090931C0280931B028091890390E0FD
:1003100090931E0280931D028091BD02853009F0EA
:1003200062C48091C3029091C402885891098D35AE
:10033000910508F054C080918903843021F58091A3
:10034000C5029091C60280974797E8F48091C70252
:100350009091C80209970997B0F410921A0210926E
:1003600019028FEF9FEFDC01809315029093160224
:10037000A0931702B093180281E090E090931202CC
:100380008093110243C380918903843440F18091AA
:10039000C5029091C602825491098E9700F530E013
:1003A00020E080E090E0DC01F901E953FD4F40815D
:1003B0005181495051094930510588F4F901E753F9
:1003C000FD4F40815181465151094131510528F17C
:1003D00040815181465051094730510580F180914B
:1003E00089038A3108F460C08091C1029091C202F1
:1003F000843F914048F510921A02109219028FEF33
:100400009FEFDC018093150290931602A0931702D0
:10041000B093180289E090E0B1CF880F991FAA1F0E
:10042000BB1F81602C5F3F4F2038310509F0BCCFE6
:1004300020E230E030931A022093190295CF880F02
:10044000991FAA1FBB1FEECF8091C3029091C402D7
:1004500085974B9748F5ECEBF2E082E090E040E0C6
:1004600050E0BA01A09189039C012F5F3F4FA21772
:10047000130609F00CF4F6C02185328527503109A6
:100480002730310508F0EEC023853485235131092A
:100490002F30310508F4D9C0238534852A5031091D
:1004A0002930310508F4D9C0809189038A3108F4D4
:1004B0003FC08091C1029091C2028032934008F403
:1004C0009ACF8091C3029091C402C697869780F517
:1004D0008091C5029091C602C697869748F5ECEBCD
:1004E000F2E083E090E040E050E0BA01A09189039F
:1004F0009C012F5F3F4FA217130609F00CF4D8C0E0
:10050000238534852C5031092B30310508F0D0C0BB
:1005100025853685255231092B31310508F4BBC0BC
:10052000258536852C5031092A30310508F4BBC0A9
:1005300080918903823238F18091C3029091C40284
:100540000697079700F5ECEBF2E082E090E040E0E0
:1005500050E0BA01DC011196209189032A171B068D
:1005600009F00CF4D1C0218532852E513109273193
:10057000310508F4B4C0218532852C5031092B3067
:10058000310508F4BBC0809189038D3008F40AC19D
:1005900081E090E09C838B831A82198249E753E0C3
:1005A000BE016F5F7F4FCE0103960E94F400892B3E
:1005B00009F0F8C049E753E0BE016F5F7F4FCE01FD
:1005C00003960E94F4008C01019709F0EBC049E703
:1005D00053E0BE016F5F7F4FCE0103960E94F4008F
:1005E0005C01892B09F0DEC0C12CD12C7601209151
:1005F00089038B819C812817190609F00CF4A6C089
:1006000049E753E0BE016F5F7F4FCE0103960E9422
:10061000F4004C0149E753E0BE016F5F7F4FCE010C
:1006200003960E94F400B1E08B16910409F085C096
:10063000892B09F0B7C0CC0CDD1CEE1CFF1C6894A4
:10064000C0F8EFEFAE1ABE0AD2CF440F551F661F97
:10065000771F41600296349605CF440F551F661FE1
:10066000771FF8CF01979595879590931A028093FD
:1006700019020C972CF410921A021092190214CF3E
:10068000409315025093160260931702709318025C
:1006900082E090E073CE440F551F661F771F4160C4
:1006A0000296349623CF440F551F661F771FF8CF4D
:1006B00001979595879590931A02809319020C974C
:1006C0002CF410921A021092190232CF40931502A4
:1006D0005093160260931702709318029BCE440F3A
:1006E000551F661F771F416023853485349623503C
:1006F00031092530310538F402962CCF440F551FAF
:10070000661F771FF1CFCD0101979595879590933F
:100710001A028093190240972CF410921A02109238
:10072000190231CF409315025093160260931702BD
:10073000709318028AE090E021CE892899F50197FC
:1007400089F5CC0CDD1CEE1CFF1C7BCFB0921A028D
:10075000A0921902C0921502D0921602E0921702DE
:10076000F092180283E090E09093120280931102BD
:10077000C80126960FB6F894DEBF0FBECDBFDF913D
:10078000CF911F910F91FF90EF90DF90CF90BF908E
:10079000AF909F908F907F906F905F904F903F9021
:1007A0002F90089580911D0290911E02181619062F
:1007B0000CF087C0E0911B02F0911C0281E090E0F8
:1007C0009C838B838281938189974E9708F079C0AF
:1007D00082E090E09C838B83848195810B970A97BC
:1007E00008F06FC083E090E09C838B831A821982AB
:1007F0004CEB51E0BE016F5F7F4FCE0103960E942C
:10080000F4007C01892B09F05CC04CEB51E0BE0187
:100810006F5F7F4FCE0103960E94F4008C01019719
:1008200009F04FC0412C512C320120911D02309112
:100830001E028B819C81821793070CF0B4C04CEB95
:1008400051E0BE016F5F7F4FCE0103960E94F4001E
:100850005C01F3E0EF16F10441F14CEB51E0BE0115
:100860006F5F7F4FCE0103960E94F4006C0123E07E
:10087000E216F10461F44CEB51E0BE016F5F7F4F73
:10088000CE0103960E94F400C816D906D1F4A11433
:10089000B10409F47AC0AA94AB2899F4CD2889F45C
:1008A000440C551C661C771C7AC04CEB51E0BE0111
:1008B0006F5F7F4FCE0103960E94F400A816B90621
:1008C00061F2E0911B02F0911C0282819381C69734
:1008D000869778F5848195814B97459750F5DF0190
:1008E00016967F0126ECE20EF11C20E030E040E09D
:1008F00050E060E070E080E090E00D911C91119775
:100900000950110908301105A0F412960D911C919F
:100910001397015111090D30110508F453C01296B7
:100920000D911C911397045011090530110508F41D
:1009300070C080918903823209F06FC082819381F7
:100940000A97099708F069C0A0918903B0E0A15007
:10095000B048AA0FBB1FAE0FBF1F8D919C910A9785
:10096000099708F05AC010921A02109219028FEFDC
:100970009FEFDC018093150290931602A09317025B
:10098000B093180288E090E0F9CCCA94CD2809F021
:1009900098CF440C551C661C771C689440F8AFEF48
:1009A000EA1AFA0A42CFF0921A02E0921902409231
:1009B000150250921602609217027092180284E09B
:1009C00090E0D2CE01E00E94BB1421601496EA169A
:1009D000FB0609F092CF2093150230931602409344
:1009E00017025093180200E20E94D61420931302BB
:1009F0003093140287E090E09093120280931102EA
:100A000080E390E090931A028093190201E010E0D5
:100A1000AFCE01E00E94BB14D9CF82819381895768
:100A200091098335910568F580918903813248F1F8
:100A300084819581CA97899720F59F012A5F3F4F4E
:100A4000C12CD12C760143E050E0D9016D917C910D
:100A500011976A5071096930710598F412966D9179
:100A60007C911397665171096131710508F484C056
:100A700012966D917C91665071096730710508F48A
:100A8000A8C080911D0290911E029E838D830697BF
:100A90000CF4A4C08F010E5F1F4F85ECC82E8DE9AA
:100AA000D82E8CE1E82E81E8F82E93E0292E312C07
:100AB000D80114966D917C911597AD90BC9090E003
:100AC00080E00E94F8112B013C01B50190E080E02C
:100AD0000E94F8114B015C012DEC3CEC4CE45FE30F
:100AE0000E9459129B01AC01C301B2010E94F31193
:100AF000F0E0E0E087FD14C02DEC3CEC4CE45FE35B
:100B0000C301B2010E9459129B01AC01C501B4019D
:100B10000E94F311E2E0F0E087FD02C0E1E0F0E0C6
:100B2000A701960163E971E080E091E00E947D14E5
:100B30006F01FF0FEE08FF08C626D726E826F92624
:100B4000BFEF2B1A3B0A0E5F1F4FED81FE812E1661
:100B50003F0609F0ADCFC0921502D0921602E09286
:100B60001702F092180280E290E090931A028093AC
:100B700019028FEF9FEF02CCD701C601880F991F92
:100B8000AA1FBB1F6C017D016894C0F84E5F5F4FC8
:100B90002C5F3F4F4332510509F057CF9F012A5B2D
:100BA0003F4FD9012D913C912A503109293031050F
:100BB00008F067CF20E130E030931A022093190249
:100BC000C0921502D0921602E0921702F09218021B
:100BD000D9CECC0CDD1CEE1CFF1CD8CF82E080935C
:100BE000BD021092890310E000E0C2CDDC01149632
:100BF0002D913C9115976217730728F4ED91FC91A4
:100C0000E60FF71F408308950895AF92BF92CF92E9
:100C1000DF92EF92FF920F931F93CF93DF936C01BC
:100C20007B018B01040F151FEB015E01AE18BF089D
:100C3000C017D10759F06991D601ED91FC9101904F
:100C4000F081E02DC6010995892B79F7C501DF9167
:100C5000CF911F910F91FF90EF90DF90CF90BF90B9
:100C6000AF900895FC01538D448D252F30E0842FE3
:100C700090E0821B930B541710F0CF9608950197C4
:100C80000895FC01918D828D981761F0A28DAE0FB1
:100C9000BF2FB11D5D968C91928D9F5F9F73928F38
:100CA00090E008958FEF9FEF0895FC01918D828D64
:100CB000981731F0828DE80FF11D858D90E0089531
:100CC0008FEF9FEF0895FC01918D228D892F90E089
:100CD000805C9F4F821B91098F73992708958FE144
:100CE00092E00E94630621E0892B09F420E0822F24
:100CF000089580E090E0892B29F00E946F06811111
:100D00000C9400000895FC01A48DA80FB92FB11D0B
:100D1000A35ABF4F2C91848D90E001968F73992731
:100D2000848FA689B7892C93A089B1898C9183700F
:100D300080648C93938D848D981306C00288F38908
:100D4000E02D80818F7D80830895EF92FF920F9335
:100D50001F93CF93DF93EC0181E0888F9B8D8C8D67
:100D600098131AC0E889F989808185FF15C09FB75B
:100D7000F894EE89FF896083E889F989808183701E
:100D8000806480839FBF81E090E0DF91CF911F91CD
:100D90000F91FF90EF900895F62E0B8D10E00F5FEE
:100DA0001F4F0F731127E02E8C8D8E110CC00FB6C4
:100DB00007FCFACFE889F989808185FFF5CFCE015C
:100DC0000E948306F1CFEB8DEC0FFD2FF11DE35A4E
:100DD000FF4FF0829FB7F8940B8FEA89FB898081DF
:100DE0008062CFCFCF93DF93EC01888D8823B9F059
:100DF000AA89BB89E889F9898C9185FD03C0808126
:100E000086FD0DC00FB607FCF7CF8C9185FFF2CFA2
:100E1000808185FFEDCFCE010E948306E9CFDF916F
:100E2000CF910895833081F028F4813099F0823099
:100E3000A9F008958730A9F08830C9F08430B1F462
:100E4000809180008F7D03C0809180008F77809398
:100E50008000089584B58F7784BD089584B58F7D13
:100E6000FBCF8091B0008F778093B0000895809180
:100E7000B0008F7DF9CFCF93DF93282F30E0F901B9
:100E8000E255FF4F8491F901E656FF4FD491F901E5
:100E9000EA57FF4FC491CC23A1F081110E941207A1
:100EA000EC2FF0E0EE0FFF1FE458FF4FA591B49137
:100EB000EC91ED2381E090E009F480E0DF91CF91A7
:100EC000089580E090E0FACF1F93CF93DF93282F0F
:100ED00030E0F901E255FF4F8491F901E656FF4FEA
:100EE000D491F901EA57FF4FC491CC23A9F0162FF2
:100EF00081110E941207EC2FF0E0EE0FFF1FEE5859
:100F0000FF4FA591B4918FB7F894EC91111108C0DF
:100F1000D095DE23DC938FBFDF91CF911F91089591
:100F2000DE2BF8CFCF93DF93CDE9D3E061E08E8164
:100F30000E94640761E08F810E94640760E08F81F6
:100F40000E94640760E08E81DF91CF910C9464076A
:100F5000CF93DF93CDE9D3E060E08E810E946407F8
:100F600060E08F810E94640761E08E810E946407C7
:100F700061E08F81DF91CF910C946407CF93DF9371
:100F800090E0FC01E656FF4F24918A579F4FFC01E9
:100F900084918823D1F090E0880F991FFC01E859D3
:100FA000FF4FA591B491FC01EE58FF4FC591D4912C
:100FB00061110EC09FB7F8948C91E22FE0958E23BB
:100FC0008C932881E223E8839FBFDF91CF9108951E
:100FD0008FB7F894EC91E22BEC938FBFF6CF0F9381
:100FE0001F93CF93DF93D82FC8E060E08091A303D5
:100FF0000E9464070D2F0D2E000C110B61E0D0FF35
:1010000060E08091A4030E94640715950795D02F96
:1010100061E08091A3030E946407C15031F760E052
:101020008091A3030E94640761E08091A4030E9461
:10103000640761E08091A3030E94640760E08091EF
:10104000A4030E94BE0783EC90E00197F1F7809122
:10105000A4030E943B078C0181110AC061E08091CA
:10106000A4030E94BE0760E08091A4030E9464076D
:10107000C3ECD0E0CE010197F1F761E08091A403C9
:101080000E94BE072197F1F7C8019927DF91CF9100
:101090001F910F910895CF93DF93D82F862F0E9431
:1010A0008C00C82F0E94920784E40E94EF070E94E0
:1010B000A8070E9492078D2F806C0E94EF078C2F4B
:1010C0000E94EF070E94A8070E94920780919F0349
:1010D0000E94EF07DF91CF910C94A8073FB7F894D7
:1010E00080910B0290910C02A0910D02B0910E0222
:1010F00026B5A89B05C02F3F19F00196A11DB11D73
:101100003FBFBA2FA92F982F8827BC01CD01620FAE
:10111000711D811D911D42E0660F771F881F991F69
:101120004A95D1F708958F929F92AF92BF92CF9236
:10113000DF92EF92FF926B017C010E946E084B01DF
:101140005C01C114D104E104F104B9F00E946E08FD
:10115000681979098A099B09683E734081059105E0
:1011600080F321E0C21AD108E108F10888EE880E68
:1011700083E0981EA11CB11CE4CFFF90EF90DF909C
:10118000CF90BF90AF909F908F9008951F93CF9373
:10119000DF9360E0809193030E94BE0710E0D0E0EF
:1011A000C0E0809193030E943B0799270C2E01C059
:1011B000880F0A94EAF7182B61E0809194030E944B
:1011C000640760E0809194030E9464072196C83010
:1011D000D10539F7812FDF91CF911F9108950F939A
:1011E0001F93CF93DF93D82F61E0809193030E94E8
:1011F000BE071091940300919303C8E06D2F6170B6
:10120000802F0E946407D69561E0812F0E946407B9
:1012100060E0812F0E946407C15081F7DF91CF9178
:101220001F910F9108950F931F93CF93DF93182F62
:10123000062FC2E9D3E060E08A810E94640761E082
:1012400088810E946407812F880F80680E94EF08C0
:10125000802F0E94EF0860E08881DF91CF911F917D
:101260000F910C9464079F92AF92BF92CF92DF923E
:10127000EF92FF920F931F93CF93DF93CDB7DEB71B
:10128000ADB6BEB6C090A103D090A2038DB79EB7F5
:101290008C199D090FB6F8949EBF0FBE8DBFADB7D8
:1012A000BEB711967D0120E0822F90E08C159D0540
:1012B00054F4F701E80FF91F80509F4FDC018C9127
:1012C00080832F5FF1CF912C092D10E00C151D05A7
:1012D00054F40E0D1F1DF80180810E948C00D8016E
:1012E0008C939394F1CF0E94920780E40E94EF07C1
:1012F0000E94A8070E94920780919E030E94EF0718
:1013000010E0812F90E02091A1033091A203821779
:10131000930744F48E0D9F1DFC0180810E94EF070E
:101320001F5FEFCF0E94A8070E94920780919F0342
:101330000E94EF070E94A8070FB6F894BEBE0FBE2A
:10134000ADBEDF91CF911F910F91FF90EF90DF9095
:10135000CF90BF90AF909F900895EF92FF920F9320
:101360001F93CF93DF937C0110E000E0E701099029
:101370000020E9F72197CE19DF098091A103909110
:10138000A2030C171D0758F508171907F4F064EFAE
:1013900071E080E090E00E949308D0E0C0E09E0100
:1013A0008091A1039091A203219628173907A4F4F4
:1013B000F801EC0FFD1FE81BF90BEE0DFF1D60811E
:1013C0008C2F81500E944B08EACFF701E00FF11FEC
:1013D0006081802F0E944B080F5F1F4FC7CF809105
:1013E000A1039091A203C817D90734F46FE78C2F9B
:1013F0000E944B082196F3CFDF91CF911F910F915F
:10140000FF90EF900895FC0101900020E9F73197DB
:10141000AF01481B590BBC018FE192E00C9405060B
:101420008F929F92AF92BF920F931F93CF93DF93B0
:10143000CDB7DEB7A1970FB6F894DEBF0FBECDBF14
:1014400019A2423008F44AE08E010F5D1F4F842E2E
:10145000912CB12CA12CA50194010E949914E62F86
:10146000B901CA01EA30F4F4E05DD801EE938D01D0
:10147000232B242B252B79F790E080E0109719F08F
:10148000CD010E94030AA1960FB6F894DEBF0FBEED
:10149000CDBFDF91CF911F910F91BF90AF909F90E3
:1014A0008F900895E95CE1CFCF92DF92EF92FF92A7
:1014B000CF93DF936B017C016DE28FE192E00E949C
:1014C000A506EC0166277727CB016C197D098E09EB
:1014D0009F094AE00E94100A8C0F9D1FDF91CF9157
:1014E000FF90EF90DF90CF900895BC01990F880B8B
:1014F000990B97FD0C94540A4AE00C94100ACF9370
:10150000DF930E94030AEC0187E891E00E94030A3E
:101510008C0F9D1FDF91CF910895FC0180819181F7
:10152000009711F00C94931508950F931F93CF9388
:10153000DF938C01EB01FC01808191810097E1F048
:101540006881798161157105A9F0428153812C81EF
:101550003D814217530770F00E94E2168C819D81F5
:10156000F801958384831D821C82DF91CF911F91A6
:101570000F9108950E94931588819981F8019183B4
:1015800080838A819B81938382838C819D819583D3
:101590008483198218821B821A82E5CFEF92FF9210
:1015A0000F931F93CF93DF93EC017B018A01888116
:1015B0009981009729F02A813B812417350788F407
:1015C000B8016F5F7F4F0E941C16009791F09983BE
:1015D00088831B830A832C813D81232B11F4FC011A
:1015E00010821D830C83B701888199810E94E216C5
:1015F0000CC088819981009711F00E94931519827F
:1016000018821D821C821B821A82CE01DF91CF912B
:101610001F910F91FF90EF900895EF92FF920F931B
:101620001F93CF93DF93CDB7DEB7A1970FB6F89492
:10163000DEBF0FBECDBF8C01CB01BA01F801118214
:10164000108213821282158214822AE0AE014F5F4B
:101650005F4F7A010E94C111F70101900020E9F764
:101660003197AF014E195F09B701C8010E94CE0A38
:10167000A1960FB6F894DEBF0FBECDBFDF91CF911C
:101680001F910F91FF90EF900895FC01118210823D
:101690001382128215821482FB0101900020E9F767
:1016A0003197AF01461B570B0C94CE0A1F920F9235
:1016B0000FB60F9211242F933F934F935F936F9325
:1016C0007F938F939F93AF93BF93EF93FF938FE19C
:1016D00092E00E948306FF91EF91BF91AF919F919D
:1016E0008F917F916F915F914F913F912F910F90CB
:1016F0000FBE0F901F9018951F920F920FB60F926A
:1017000011242F938F939F93EF93FF93E0912F02D8
:10171000F09130028081E0913502F091360282FD35
:101720001BC09081809138028F5F8F7320913902A6
:10173000821741F0E0913802F0E0E15EFD4F958FB5
:1017400080933802FF91EF919F918F912F910F908D
:101750000FBE0F901F9018958081F4CF1F920F92AB
:101760000FB60F9211242F933F938F939F93AF93B4
:10177000BF938091070290910802A0910902B09155
:101780000A023091060223E0230F2D3758F5019607
:10179000A11DB11D209306028093070290930802B9
:1017A000A0930902B0930A0280910B0290910C025F
:1017B000A0910D02B0910E020196A11DB11D809362
:1017C0000B0290930C02A0930D02B0930E02BF91F6
:1017D000AF919F918F913F912F910F900FBE0F90DE
:1017E0001F90189526E8230F0296A11DB11DD2CF98
:1017F0001F920F920FB60F9211242F933F934F9386
:101800005F936F937F938F939F93AF93BF93EF9368
:10181000FF938091BC020E943B072091BF02309150
:10182000C0022F5F3F4F3093C0022093BF029091C0
:101830008903943618F095E09093BD029091BD0213
:10184000933009F44AC0D0F4923001F19091BE0275
:10185000992319F0811169C02D9AFF91EF91BF91E1
:10186000AF919F918F917F916F915F914F913F9138
:101870002F910F900FBE0F901F901895943009F480
:1018800048C0953019F78111E1CF09C08111DECF31
:101890002091BF023091C0022436310528F4109205
:1018A000C0021092BF02D2CF10928903E091890347
:1018B00091E09E0F90938903F0E02091BF02309158
:1018C000C002EE0FFF1FE454FD4F368325831092B4
:1018D000C0021092BF0293E019C0813009F0B6CF68
:1018E000E091890391E09E0F90938903F0E02091AD
:1018F000BF023091C002EE0FFF1FE454FD4F36834C
:1019000025831092C0021092BF0294E09093BD0212
:101910009DCF882359F22091BF023091C002253615
:10192000310508F493CF95E0F1CF2D9896CFCF9362
:10193000DF93EFE1F2E01382128288EE93E0A0E001
:10194000B0E084839583A683B78389E791E0918390
:10195000808385EC90E09587848784EC90E097877E
:10196000868780EC90E0918B808B81EC90E0938B6C
:10197000828B82EC90E0958B848B86EC90E0978B49
:10198000868B118E128E138E148ECDE9D3E084E0F7
:1019900090E09D838C8381E18E8380E18F8361E081
:1019A00081E10E94BE0761E08F810E94BE07C2E90B
:1019B000D3E088E0888387E0898386E08A8361E0DA
:1019C00088E00E94BE0761E08A810E94BE07ECEBBE
:1019D000F2E082E080831282EAE8F3E08AED97E0A9
:1019E0009683858381E084838383108211821282AF
:1019F00085E08783DF91CF910895CF93DF93CDB7B3
:101A0000DEB7A4970FB6F894DEBF0FBECDBF7894B3
:101A100084B5826084BD84B5816084BD85B58260F3
:101A200085BD85B5816085BD80916E0081608093A4
:101A30006E0010928100809181008260809381000D
:101A4000809181008160809381008091800081601D
:101A5000809380008091B10084608093B100809178
:101A6000B00081608093B00080917A0084608093A0
:101A70007A0080917A00826080937A0080917A0067
:101A8000816080937A0080917A00806880937A00E8
:101A90001092C10060E0809194030E94640761E0AD
:101AA000809192030E94640781E80E94EF080E94DF
:101AB000C608182F60E0809192030E946407612F8E
:101AC0006F7780E00E94130960E087E00E941309AD
:101AD000E0912F02F091300212E01083E0912B028E
:101AE000F0912C021082E0912D02F0912E028FECE9
:101AF000808310923702E0913302F091340286E045
:101B00008083E0913102F091320280818061808394
:101B1000E0913102F0913202808188608083E0910F
:101B20003102F0913202808180688083E09131023D
:101B3000F091320280818F7D80836FE780E00E9488
:101B40004B086FE781E00E944B086FE782E00E943C
:101B50004B086FE783E00E944B0880E480939D036D
:101B600080EC80939E038FE880939F038AE891E046
:101B70000E94AD0961E089E00E94BE0761E08AE051
:101B80000E94BE0761E08BE00E94BE0761E08CE02E
:101B90000E94BE07F8941093B0001093B10084E641
:101BA0008093B3001092B200109370007894109359
:101BB000BD02109289038091BC0260E00E94BE07C2
:101BC0000DE913E0E0E0EE2EE0E0FE2E4AE0B42E58
:101BD0005CE0852E62E0A62E74E6972E60E0809190
:101BE00094030E94640761E0809192030E9464075D
:101BF0008FEB0E94EF0835E9C32E33E0D32E0E940D
:101C0000C608F60181936F010E171F07C1F760E048
:101C1000809192030E94640780919503982F92957A
:101C200097708F70382F9B9D300D112480919603F3
:101C3000982F929597708F70482F9B9D400D11247F
:101C400020919703822F90E0522F5F7027FF59C297
:101C500025FB882780F9889E500D11242091980338
:101C60009091990360919A0380919B0350938A030A
:101C700040938B0330938C03322F329537702F7043
:101C80003B9D200D112420938D03292F2295277031
:101C90009F702B9D900D112490938E03982F9295F9
:101CA0009F708F709B9D800D112490E08053984F02
:101CB0009093900380938F036093910388E891E061
:101CC0000E94030A80918A038A3020F490E080E029
:101CD0000E94750A60918A0370E090E080E04AE01B
:101CE0000E94100A8DE891E00E94030A80918B0304
:101CF0008A3020F490E080E00E94750A60918B03A6
:101D000070E090E080E04AE00E94100A8DE891E0E7
:101D10000E94030A80918C038A3020F490E080E0D6
:101D20000E94750A60918C0370E090E080E04AE0C8
:101D30000E94100ADD24D394D092A00364EF71E0D6
:101D400080E090E00E949308D092A00364EF71E0DD
:101D500080E090E00E9493086FE871E0CE014F961A
:101D60000E94450BD12CC12C0E946801892B09F4DB
:101D700046C08091150290911602A0911702B09171
:101D800018028736F8E99F07FFEFAF07B10509F49E
:101D9000FAC108F0D4C18D3DE2E29E07EFEFAE0735
:101DA000B10509F4F6C108F0B6C145E38D3F924094
:101DB000AF4FB10509F4BDC1809115029091160293
:101DC000A0911702B09118028F34904BAF4FB1051C
:101DD00091F485E991E00E94AD0968EE73E080E03E
:101DE00090E00E9493080E94A80764E670E080E0FB
:101DF00090E00E949308A092BD02109289038BA1EB
:101E00009CA1C816D90668F48F8D98A1009749F057
:101E10008C0D9D1DFC0180818D3219F4F1E0CF1AEB
:101E2000D10864EF71E080E090E00E9493084BA13C
:101E30005CA16F8D78A18FE192E00E94050687E892
:101E400091E00E94030A2FEFC21AD20A85E0C81659
:101E5000D10409F089CF0E946801892B09F466C278
:101E60008091150290911602A0911702B09118026C
:101E70008F34904BAF4FB10501F585E991E00E9499
:101E8000AD0968EE73E080E090E00E9493080E9444
:101E9000A80764E670E080E090E00E94930881E388
:101EA0008093030182E38093020183E38093010125
:101EB00084E3809300010E94330980911502909180
:101EC0001602A0911702B09118028739F8E69F0711
:101ED000FFEFAF07B10509F4CDC108F080C18D3D1A
:101EE000E2E29E07EFEFAE07B105C1F008F057C17F
:101EF0008F3E20E192072FEFA207B10509F4C0C180
:101F0000873EE8E19E07EFEFAE07B10509F4BEC1D9
:101F10008D3F9240AF4FB10509F050C164EF71E0C1
:101F200080E090E00E94930869E871E0CE01499654
:101F30000E94450B69E871E0CE0143960E94450B73
:101F400069E871E0CE010D960E94450B69E871E0E9
:101F5000CE0107960E94450B409115025091160242
:101F60006091170270911802CE0101960E940D0B2C
:101F7000BE016F5F7F4FCE0149960E94950ACE0148
:101F800001960E948D0A40911502509116026091AF
:101F9000170270911802CE0101960E940D0BBE012E
:101FA0006F5F7F4FCE0143960E94950ACE01019646
:101FB0000E948D0A409115025091160260911702FD
:101FC00070911802CE0101960E940D0BBE016F5F49
:101FD0007F4FCE010D960E94950ACE0101960E9478
:101FE0008D0A40911502509116026091170270916E
:101FF0001802CE0101960E940D0BBE016F5F7F4F4C
:10200000CE0107960E94950ACE0101960E948D0A84
:10201000CE0107960E948D0ACE010D960E948D0A70
:10202000CE0143960E948D0ACE0149960E948D0AE8
:10203000A092BD0210928903809115029091160220
:10204000A0911702B0911802853A9A45AF4FB10599
:1020500009F047C080E991E00E94AD0980E48093D7
:102060007C0080917A00806480937A0080917A006D
:1020700086FDFCCF90917800809179008927982780
:1020800089279093100280930F0268EE73E080E03E
:1020900090E00E94930882ED91E00E94030A609113
:1020A0000F0270911002072E000C880B990B97FFFE
:1020B000F6C00E94540A87E891E00E94030A8091CA
:1020C0000F0290911002181619060CF4ECC082E071
:1020D00092E00E94AD0964EF71E080E090E00E9420
:1020E0009308CE014F960E948D0AE114F10409F481
:1020F00075CD0E946F06882309F468CD0E94000008
:1021000065CD24E0959587952A95E1F783708B9DA1
:10211000500D1124A3CD8D39E2E69E07EFEFAE07F7
:10212000B105A9F149E38F369049AF4FB10509F0E8
:1021300043CEB601CE014F960E94F6053DCE8D33BB
:1021400022EC92072FEFA207B10529F170F48D352B
:10215000F2EA9F07FFEFAF07B105B9F048E3873513
:10216000984AAF4FB10529F327CE8F31E0EE9E0795
:10217000EFEFAE07B10589F043E38D31924EAF4FDB
:10218000B105B9F219CE40E3D4CF41E3D2CF42E357
:10219000D0CF44E3CECF46E3CCCF47E3CACF853B95
:1021A0002AE492072FEFA207B10509F472C048F4A0
:1021B000873C9843AF4FB10509F46EC081EC91E0C4
:1021C00056C0853A2AE592072FEFA207B10509F418
:1021D0005AC08D399246AF4FB10581F79FCE8F34EB
:1021E000F0EB9F07FFEFAF07B10509F446C0E0F43D
:1021F0008736E8E99E07EFEFAE07B105B1F130F49D
:102200008F369049AF4FB105C9F688CE8D35E2EAD9
:102210009E07EFEFAE07B10509F480CE8735984AE7
:10222000AF4FB10559F67ACE8F3120EE92072FEFDE
:10223000A207B10509F472CE38F48D33924CAF4F3A
:10224000B10509F0BBCF6ACE8D3122EE92072FEF98
:10225000A207B10509F462CE8F3F9F4FAF4FBF4F2A
:1022600009F0ACCF89EB91E002C08AE991E00E94CD
:102270007F0A54CE8DE991E0FACF80EA91E0F7CF62
:1022800083EA91E0F4CF88EA91E0F1CF8EEA91E021
:10229000EECF81EB91E0EBCF86EB91E0E8CF4AE027
:1022A0000E94100A08CF823491051CF48CED91E055
:1022B00010CF833891051CF480EE91E00ACF843C66
:1022C00091051CF484EE91E004CF853021E0920763
:1022D0001CF488EE91E0FDCE8634E1E09E071CF40C
:1022E0008CEE91E0F6CE8738F1E09F071CF480EF8A
:1022F00091E0EFCE883C21E092071CF484EF91E05E
:10230000E8CE8930E2E09E071CF488EF91E0E1CE50
:102310008A34F2E09F071CF48CEF91E0DACE8B3820
:1023200092400CF0D8CE80E092E0D3CE0E946801BB
:10233000892B09F0D6CE30918B0320918A03832F0D
:102340006B2D0E948D1490930301832F692D0E94A1
:102350008D14892F6B2D0E948D1480930201822F82
:102360000E948D1490930101822F692D0E948D147B
:10237000892F6B2D0E948D14809300010E943309D8
:10238000B0CEBB27FA01A62F621771058105910512
:10239000330B30FB66F0AA27660F771F881F991F43
:1023A000AA1FA21710F0A21B63953850A9F7A05DD1
:1023B000AA3308F0A95DA19336F7B111B193108249
:1023C000CA010C94E311DC01FC01672F71917723A2
:1023D000E1F7329704C07C916D9370836291AE17E0
:1023E000BF07C8F308950E94351208F481E00895EC
:1023F000E89409C097FB3EF490958095709561959F
:102400007F4F8F4F9F4F9923A9F0F92F96E9BB2754
:102410009395F695879577956795B795F111F8CFD0
:10242000FAF4BB0F11F460FF1BC06F5F7F4F8F4F3B
:102430009F4F16C0882311F096E911C0772321F031
:102440009EE8872F762F05C0662371F096E8862FC9
:1024500070E060E02AF09A95660F771F881FDAF720
:10246000880F9695879597F90895990F0008550F4D
:10247000AA0BE0E8FEEF16161706E807F907C0F00A
:1024800012161306E407F50798F0621B730B840B12
:10249000950B39F40A2661F0232B242B252B21F4EC
:1024A00008950A2609F4A140A6958FEF811D811D8C
:1024B00008950E946C120C94DD120E94CF1238F025
:1024C0000E94D61220F0952311F00C94C6120C94A1
:1024D000CC1211240C9411130E94EE1270F3959FEC
:1024E000C1F3950F50E0551F629FF001729FBB270B
:1024F000F00DB11D639FAA27F00DB11DAA1F649FA7
:102500006627B00DA11D661F829F2227B00DA11D59
:10251000621F739FB00DA11D621F839FA00D611DDF
:10252000221F749F3327A00D611D231F849F600D00
:10253000211D822F762F6A2F11249F5750409AF029
:10254000F1F088234AF0EE0FFF1FBB1F661F771FB5
:10255000881F91505040A9F79E3F510580F00C9480
:10256000C6120C9411135F3FE4F3983ED4F38695A2
:1025700077956795B795F795E7959F5FC1F7FE2B20
:10258000880F911D9695879597F9089597F99F67FC
:1025900080E870E060E008959FEF80EC08950024EB
:1025A0000A941616170618060906089500240A94B8
:1025B00012161306140605060895092E0394000C3E
:1025C00011F4882352F0BB0F40F4BF2B11F460FFCD
:1025D00004C06F5F7F4F8F4F9F4F089557FD9058F6
:1025E000440F551F59F05F3F71F04795880F97FBD7
:1025F000991F61F09F3F79F0879508951216130691
:102600001406551FF2CF4695F1DF08C016161706BF
:102610001806991FF1CF86957105610508940895F4
:10262000E894BB2766277727CB0197F908950E9486
:102630005913A59F900DB49F900DA49F800D911DDF
:10264000112408952F923F924F925F926F927F9242
:102650008F929F92AF92BF92CF92DF92EF92FF92B2
:102660000F931F93CF93DF93CDB7DEB7CA1BDB0B5E
:102670000FB6F894DEBF0FBECDBF09942A88398803
:1026800048885F846E847D848C849B84AA84B9840A
:10269000C884DF80EE80FD800C811B81AA81B98116
:1026A000CE0FD11D0FB6F894DEBF0FBECDBFED012A
:1026B0000895A29FB001B39FC001A39F700D811D1B
:1026C0001124911DB29F700D811D1124911D08953B
:1026D0005058BB27AA270E9480130C94DD120E9439
:1026E000CF1238F00E94D61220F039F49F3F19F42F
:1026F00026F40C94CC120EF4E095E7FB0C94C61271
:10270000E92F0E94EE1258F3BA1762077307840785
:10271000950720F079F4A6F50C9410130EF4E095CB
:102720000B2EBA2FA02D0B01B90190010C01CA018B
:10273000A0011124FF27591B99F0593F50F4503E36
:1027400068F11A16F040A22F232F342F4427585F28
:10275000F3CF469537952795A795F0405395C9F740
:102760007EF41F16BA0B620B730B840BBAF09150F8
:10277000A1F0FF0FBB1F661F771F881FC2F70EC097
:10278000BA0F621F731F841F48F48795779567956A
:10279000B795F7959E3F08F0B0CF9395880F08F056
:1027A0009927EE0F9795879508950E94E9130C9449
:1027B000DD120E94D61258F00E94CF1240F029F488
:1027C0005F3F29F00C94C61251110C9411130C9414
:1027D000CC120E94EE1268F39923B1F3552391F3C2
:1027E000951B550BBB27AA2762177307840738F080
:1027F0009F5F5F4F220F331F441FAA1FA9F335D0DD
:102800000E2E3AF0E0E832D091505040E695001C90
:10281000CAF72BD0FE2F29D0660F771F881FBB1F4A
:10282000261737074807AB07B0E809F0BB0B802D28
:10283000BF01FF2793585F4F3AF09E3F510578F054
:102840000C94C6120C9411135F3FE4F3983ED4F33A
:10285000869577956795B795F7959F5FC9F7880F28
:10286000911D9695879597F90895E1E0660F771F7A
:10287000881FBB1F621773078407BA0720F0621B0B
:10288000730B840BBA0BEE1F88F7E09508950E9436
:102890004E146894B1110C94111308950E94F6120D
:1028A00088F09F5798F0B92F9927B751B0F0E1F011
:1028B000660F771F881F991F1AF0BA95C9F714C0C1
:1028C000B13091F00E941013B1E008950C941013F0
:1028D000672F782F8827B85F39F0B93FCCF38695FA
:1028E00077956795B395D9F73EF490958095709557
:1028F00061957F4F8F4F9F4F0895DB018F939F937B
:102900000E941713BF91AF91A29F800D911DA39FAD
:10291000900DB29F900D11240895991B79E004C089
:10292000991F961708F0961B881F7A95C9F780950E
:102930000895A1E21A2EAA1BBB1BFD010DC0AA1F00
:10294000BB1FEE1FFF1FA217B307E407F50720F018
:10295000A21BB30BE40BF50B661F771F881F991F93
:102960001A9469F760957095809590959B01AC01DC
:10297000BD01CF010895002E083090F0982F872FC9
:10298000762F652F542F432F322F22270850F4CF54
:10299000220F331F441F551F661F771F881F991F63
:1029A0000A95B2F7002D089597FD1094002E083077
:1029B00098F00850232F342F452F562F672F782F4C
:1029C000892F912DF4CF15949795879577956795D5
:1029D00057954795379527950A95AAF71124002D05
:1029E0000895EE0FFF1F0590F491E02D09940F93C9
:1029F0001F93CF93DF938230910510F482E090E033
:102A0000E091A703F091A80330E020E0B0E0A0E05F
:102A1000309799F42115310509F44AC0281B390B68
:102A200024303105D8F58A819B816115710589F1C2
:102A3000FB0193838283FE0111C040815181028199
:102A4000138148175907E0F04817590799F4109770
:102A500061F012960C93129713961C933296CF0145
:102A6000DF91CF911F910F9108950093A7031093C9
:102A7000A803F4CF2115310551F04217530738F060
:102A8000A901DB019A01BD01DF01F801C1CFEF010E
:102A9000F9CF9093A8038093A703CDCFFE01E20F57
:102AA000F31F819391932250310939832883D7CF23
:102AB0002091A5033091A603232B41F42091060118
:102AC000309107013093A6032093A50320910401C0
:102AD000309105012115310541F42DB73EB74091E4
:102AE000080150910901241B350BE091A503F091D9
:102AF000A603E217F307A0F42E1B3F0B2817390794
:102B000078F0AC014E5F5F4F2417350748F04E0F49
:102B10005F1F5093A6034093A503819391939FCF8A
:102B2000F0E0E0E09CCFCF93DF930097E9F0FC0169
:102B3000329713821282A091A703B091A803ED01EE
:102B400030E020E01097A1F420813181820F931FA3
:102B50002091A5033091A6032817390709F061C019
:102B6000F093A603E093A503DF91CF910895EA01C6
:102B7000CE17DF07E8F54A815B819E0141155105BB
:102B8000B1F7E901FB83EA8349915991C40FD51F3D
:102B9000EC17FD0761F4808191810296840F951FE7
:102BA000E90199838883828193819B838A83F0E002
:102BB000E0E012968D919C9113970097B9F52D91B5
:102BC0003C911197CD010296820F931F2091A5038E
:102BD0003091A6032817390739F6309751F510922E
:102BE000A8031092A703B093A603A093A503BCCF9C
:102BF000D383C28340815181840F951FC817D907A1
:102C000061F44E5F5F4F88819981480F591F51834E
:102C100040838A819B81938382832115310509F04A
:102C2000B0CFF093A803E093A7039ECFFD01DC0192
:102C3000C0CF13821282D7CFB0E0A0E0E2E2F6E18B
:102C40000C9424138C01009751F4CB010E94F714CB
:102C50008C01C801CDB7DEB7E0E10C944013FC0154
:102C6000E60FF71F9C0122503109E217F30708F421
:102C70009DC0D901CD91DC911197C617D70798F067
:102C8000C530D10530F3CE0104978617970708F3B6
:102C9000C61BD70B2297C193D1936D937C93CF0121
:102CA0000E949315D6CF5B01AC1ABD0A4C018C0E65
:102CB0009D1EA091A703B091A803512C412CF12C8B
:102CC000E12C109731F58091A5039091A60388150A
:102CD000990509F05CC04616570608F058C0809167
:102CE000040190910501009741F48DB79EB7409182
:102CF000080150910901841B950BE817F90708F0AA
:102D000055C0F093A603E093A503F9017183608396
:102D1000A0CF8D919C91119712966C90129713965B
:102D20007C901397A815B90559F56C0142E0C40EC3
:102D3000D11CCA14DB0420F1AC014A195B09DA0189
:102D40001296159780F06282738251834083D90175
:102D50006D937C93E114F10471F0D7011396FC9309
:102D6000EE93129776CF22968C0F9D1FF9019183D7
:102D70008083F301EFCFF093A803E093A70369CF1B
:102D80004816590608F42C017D01D3019ACFCB01D6
:102D90000E94F7147C01009749F0AE01B8010E942F
:102DA000D916C8010E949315870153CF10E000E0A7
:102DB00050CFFB01DC0102C001900D924150504008
:102DC000D8F70895FB01DC0101900D920020E1F796
:062DD0000895F894FFCF06
:102DD600000102030000A9038000000000000000BB
:102DE600000000006300004000000000000000003A
:102DF6000000000000000000000000777C395E79CA
:102E0600713576061E753837545C737B506D781CA9
:102E16003E7E766E1B0000000108005F7C585E79DE
:102E26007135740416753837545C7367506D781CA9
:102E36003E2A766E1B3F065B4F666D7D077F6F777A
:102E46007C395E797100000000A50605063206F29F
:102E5600066306410655060D0A004F6E003A002D20
:102E66002D2D2D2D00486F757200203000202A0070
:102E76002023004C656674005269676874005550DB
:102E860000444F574E004F4B002052455045415489
:102E960000206F7468657220627574746F6E2020EE
:102EA600200073656E736F72203D20003130500034
:102EB600323050003330500034307000353050001E
:102EC600363050003730500038305000393050001E
:062ED60031303050000015
:00000001FF
