:100000000C9462000C948A000C948A000C948A0070
:100010000C948A000C948A000C948A000C948A0038
:100020000C948A000C948A000C948A000C948A0028
:100030000C948A000C948A000C948A000C948A0018
:100040000C9436040C948A000C9404040C94DE0383
:100050000C948A000C948A000C948A000C948A00F8
:100060000C948A000C948A000000000024002700F1
:100070002A0000000000250028002B0000000000DE
:1000800023002600290004040404040404040202DA
:100090000202020203030303030301020408102007
:1000A0004080010204081020010204081020000012
:1000B0000008000201000003040700000000000027
:1000C0000000800411241FBECFEFD8E0DEBFCDBFFB
:1000D00011E0A0E0B1E0EAE4FEE002C005900D927C
:1000E000A638B107D9F722E0A6E8B1E001C01D9219
:1000F000A734B207E1F710E0C2E6D0E004C02197D0
:10010000FE010E941D07C136D107C9F70E94E10414
:100110000C9423070C940000E82F8F37F9F08031FE
:1001200060F40E2E000CFF0BE15AFE4F808190917F
:100130004202911190E8890F089580ED8E0F8A3068
:1001400030F40E2E000CFF0BE15DFE4FEFCFE052BE
:10015000EB3520F4F0E0EC5FFE4FE8CF80E0E7CF36
:10016000AF92BF92CF92DF92EF92FF920F931F93C5
:10017000CF93DF936C017B018B01040F151FEB0103
:100180005E01AE18BF08C017D10759F06991D601BA
:10019000ED91FC910190F081E02DC6010995892B2C
:1001A00079F7C501DF91CF911F910F91FF90EF90EB
:1001B000DF90CF90BF90AF900895FC01538D448D98
:1001C000252F30E0842F90E0821B930B541710F002
:1001D000CF96089501970895FC01918D828D98170F
:1001E00061F0A28DAE0FBF2FB11D5D968C91928DE7
:1001F0009F5F9F73928F90E008958FEF9FEF089518
:10020000FC01918D828D981731F0828DE80FF11DE0
:10021000858D90E008958FEF9FEF0895FC01918DFB
:10022000228D892F90E0805C9F4F821B91098F73F4
:10023000992708958FE891E00E940E0121E0892B13
:1002400009F420E0822F089580E090E0892B29F0C6
:100250000E941A0181110C9400000895FC01A48DE4
:10026000A80FB92FB11DA35ABF4F2C91848D90E0D8
:1002700001968F739927848FA689B7892C93A089BB
:10028000B1898C91837080648C93938D848D981345
:1002900006C00288F389E02D80818F7D80830895D8
:1002A000EF92FF920F931F93CF93DF93EC0181E0C6
:1002B000888F9B8D8C8D98131AC0E889F98980816D
:1002C00085FF15C09FB7F894EE89FF896083E889A0
:1002D000F98980818370806480839FBF81E090E092
:1002E000DF91CF911F910F91FF90EF900895F62E1F
:1002F0000B8D10E00F5F1F4F0F731127E02E8C8DB9
:100300008E110CC00FB607FCFACFE889F9898081FD
:1003100085FFF5CFCE010E942E01F1CFEB8DEC0FC2
:10032000FD2FF11DE35AFF4FF0829FB7F8940B8F1A
:10033000EA89FB8980818062CFCFCF93DF93EC0184
:10034000888D8823B9F0AA89BB89E889F9898C91BD
:1003500085FD03C0808186FD0DC00FB607FCF7CF79
:100360008C9185FFF2CF808185FFEDCFCE010E9479
:100370002E01E9CFDF91CF910895833081F028F4E9
:10038000813099F08230A9F008958730A9F0883043
:10039000C9F08430B1F4809180008F7D03C08091DA
:1003A00080008F7780938000089584B58F7784BD17
:1003B000089584B58F7DFBCF8091B0008F778093B7
:1003C000B00008958091B0008F7DF9CFCF93DF9377
:1003D000282F30E0F901E255FF4F8491F901E656EC
:1003E000FF4FD491F901EA57FF4FC491CC23A1F0FC
:1003F00081110E94BD01EC2FF0E0EE0FFF1FE458C9
:10040000FF4FA591B491EC91ED2381E090E009F4C8
:1004100080E0DF91CF91089580E090E0FACF1F93C4
:10042000CF93DF93282F30E0F901E255FF4F8491FD
:10043000F901E656FF4FD491F901EA57FF4FC491F5
:10044000CC23A9F0162F81110E94BD01EC2FF0E002
:10045000EE0FFF1FEE58FF4FA591B4918FB7F894A0
:10046000EC91111108C0D095DE23DC938FBFDF9192
:10047000CF911F910895DE2BF8CFCF93DF93CFE379
:10048000D2E061E08E810E940F0261E08F810E94C4
:100490000F0260E08F810E940F0260E08E81DF9189
:1004A000CF910C940F02CF93DF93CFE3D2E060E0C3
:1004B0008E810E940F0260E08F810E940F0261E036
:1004C0008E810E940F0261E08F81DF91CF910C94A9
:1004D0000F02CF93DF9390E0FC01E656FF4F24918B
:1004E0008A579F4FFC0184918823D1F090E0880FB8
:1004F000991FFC01E859FF4FA591B491FC01EE58FA
:10050000FF4FC591D49161110EC09FB7F8948C91A3
:10051000E22FE0958E238C932881E223E8839FBF0E
:10052000DF91CF9108958FB7F894EC91E22BEC9383
:100530008FBFF6CF0F931F93CF93DF93D82FC8E0D1
:1005400060E0809145020E940F020D2F0D2E000CDD
:10055000110B61E0D0FF60E0809146020E940F0223
:1005600015950795D02F61E0809145020E940F02FA
:10057000C15031F760E0809145020E940F0261E0B6
:10058000809146020E940F0261E0809145020E9424
:100590000F0260E0809146020E94690283EC90E0C5
:1005A0000197F1F7809146020E94E6018C018111CA
:1005B0000AC061E0809146020E94690260E0809179
:1005C00046020E940F02C3ECD0E0CE010197F1F782
:1005D00061E0809146020E9469022197F1F7C8010B
:1005E0009927DF91CF911F910F910895CF93DF93BA
:1005F000D82F862F0E948C00C82F0E943D0284E4D1
:100600000E949A020E9453020E943D028D2F806C2C
:100610000E949A028C2F0E949A020E9453020E940A
:100620003D02809141020E949A02DF91CF910C9489
:1006300053023FB7F89480918B0190918C01A09167
:100640008D01B0918E0126B5A89B05C02F3F19F0F2
:100650000196A11DB11D3FBFBA2FA92F982F882742
:10066000BC01CD01620F711D811D911D42E0660F1D
:10067000771F881F991F4A95D1F708958F929F92EF
:10068000AF92BF92CF92DF92EF92FF926B017C010B
:100690000E9419034B015C01C114D104E104F1046F
:1006A000B9F00E941903681979098A099B09683E03
:1006B00073408105910580F321E0C21AD108E10859
:1006C000F10888EE880E83E0981EA11CB11CE4CFCF
:1006D000FF90EF90DF90CF90BF90AF909F908F9062
:1006E00008951F93CF93DF9360E0809135020E94BD
:1006F000690210E0D0E0C0E0809135020E94E6017E
:1007000099270C2E01C0880F0A94EAF7182B61E094
:10071000809136020E940F0260E0809136020E94B2
:100720000F022196C830D10539F7812FDF91CF9183
:100730001F9108950F931F93CF93DF93D82F61E0FC
:10074000809135020E9469021091360200913502B3
:10075000C8E06D2F6170802F0E940F02D69561E076
:10076000812F0E940F0260E0812F0E940F02C15072
:1007700081F7DF91CF911F910F9108950F931F93F0
:10078000CF93DF93182F062FC4E3D2E060E08A8175
:100790000E940F0261E088810E940F02812F880F62
:1007A00080680E949A03802F0E949A0360E08881EB
:1007B000DF91CF911F910F910C940F021F920F9216
:1007C0000FB60F9211242F933F934F935F936F9324
:1007D0007F938F939F93AF93BF93EF93FF938FE894
:1007E00091E00E942E01FF91EF91BF91AF919F91F7
:1007F0008F917F916F915F914F913F912F910F90CA
:100800000FBE0F901F9018951F920F920FB60F9268
:1008100011242F938F939F93EF93FF93E0919F0168
:10082000F091A0018081E091A501F091A60182FDE7
:100830001BC090818091A8018F5F8F732091A901C7
:10084000821741F0E091A801F0E0E157FE4F958F4B
:100850008093A801FF91EF919F918F912F910F901D
:100860000FBE0F901F9018958081F4CF1F920F92AA
:100870000FB60F9211242F933F938F939F93AF93B3
:10088000BF938091870190918801A0918901B091D7
:100890008A013091860123E0230F2D3758F5019608
:1008A000A11DB11D2093860180938701909388013B
:1008B000A0938901B0938A0180918B0190918C0162
:1008C000A0918D01B0918E010196A11DB11D809363
:1008D0008B0190938C01A0938D01B0938E01BF91F9
:1008E000AF919F918F913F912F910F900FBE0F90DD
:1008F0001F90189526E8230F0296A11DB11DD2CF97
:10090000CF93DF93EFE8F1E01382128288EE93E059
:10091000A0E0B0E084839583A683B78383E791E06A
:100920009183808385EC90E09587848784EC90E0C8
:100930009787868780EC90E0918B808B81EC90E0AC
:10094000938B828B82EC90E0958B848B86EC90E08D
:10095000978B868B118E128E138E148ECFE3D2E07E
:1009600084E090E09D838C8381E18E8380E18F839E
:1009700061E081E10E94690261E08F810E94690269
:10098000C4E3D2E088E0888387E0898386E08A83B5
:1009900061E088E00E94690261E08A810E94690248
:1009A000ECE2F2E08AED97E09683858381E0848330
:1009B000838310821182128285E08783DF91CF9139
:1009C0000895CF93DF93CDB7DEB7789484B5826076
:1009D00084BD84B5816084BD85B5826085BD85B5E3
:1009E000816085BD80916E00816080936E00109261
:1009F00081008091810082608093810080918100DC
:100A0000816080938100809180008160809380006C
:100A10008091B10084608093B1008091B0008160CA
:100A20008093B00080917A00846080937A008091F6
:100A30007A00826080937A0080917A00816080934E
:100A40007A0080917A00806880937A001092C100C9
:100A500060E0809136020E940F0261E080913402D2
:100A60000E940F0281E80E949A030E947103182FCE
:100A700060E0809134020E940F02612F6F7780E066
:100A80000E94BE0360E087E00E94BE03E0919F01E8
:100A9000F091A00182E08083E0919B01F0919C01A4
:100AA0001082E0919D01F0919E018FEC8083109265
:100AB000A701E091A301F091A40186E08083E09179
:100AC000A101F091A201808180618083E091A10168
:100AD000F091A201808188608083E091A101F09172
:100AE000A201808180688083E091A101F091A20140
:100AF00080818F7D80836FE780E00E94F6026FE740
:100B000081E00E94F6026FE782E00E94F6026FE742
:100B100083E00E94F60280E480933F0280EC8093A1
:100B200040028FE88093410261E8862E61E0962EB4
:100B3000740110E000E08091430290914402023081
:100B40001105A9F10817190704F164EF71E080E0BD
:100B500090E00E943E035801D12CC12C80914302A9
:100B6000909144022FEFA21AB20AC816D9069CF43B
:100B7000F501E81BF90BEF57FE4F60818C2D0E94A9
:100B8000F6028FEFC81AD80AE9CFD7016C918E2DE3
:100B900088190E94F6020F5F1F4FBFEFEB1AFB0A86
:100BA000CACF6FE7802F0E94F6020F5F1F4F809120
:100BB000430290914402081719079CF31AE04CE095
:100BC000542E04E650E0A52E50E0B52E60E0809152
:100BD00036020E940F0261E0809134020E940F02EF
:100BE0008FEB0E949A0337E3E32E32E0F32E0E944C
:100BF0007103F70181937F01FFE3EF16F2E0FF0637
:100C0000B1F760E0809134020E940F0280913702B8
:100C1000982F929597708F70382F919F300D1124D7
:100C200080913802982F929597708F70482F919FDE
:100C3000400D112420913902822F90E0522F5F70D5
:100C400027FF8DC025FB882780F9589E500D112461
:100C500020913A0290913B0260913C0280913D02CA
:100C600050932C0240932D0230932E02322F329556
:100C700037702F70319F200D112420932F02292FC0
:100C8000229527709F70219F900D11249093300220
:100C9000982F92959F708F70919F800D112490E0F6
:100CA0008053984F909332028093310260933302C5
:100CB00041E050E064E871E08FE891E00E94B0000C
:100CC00081E08093420264EF71E080E090E00E9456
:100CD0003E0330912D0220912C02832F612F0E9420
:100CE000110790930301832F602F0E941107892F12
:100CF000612F0E94110780930201822F0E94110729
:100D000090930101822F602F0E941107892F612F7C
:100D10000E941107809300018DB69EB66090430239
:100D2000709044028DB79EB7861997090FB6F89454
:100D30009EBF0FBE8DBFADB7BEB711966D0120E04F
:100D4000822F90E086159705A4F4F601E80FF91FAD
:100D500080509F4FDC018C9180832F5FF1CF24E086
:100D6000959587952A95E1F78370819F500D112401
:100D70006FCF412CE42CF12CE614F70454F4EC0C66
:100D8000FD1CF70180810E948C00D7018C93439455
:100D9000F1CF0E943D0280E40E949A020E94530219
:100DA0000E943D02809140020E949A02F12C8F2DF8
:100DB00090E020914302309144028217930744F45B
:100DC0008C0D9D1DFC0180810E949A02F394EFCF4F
:100DD0000E9453020E943D02809141020E949A02A9
:100DE0000E9453020FB6F8949EBE0FBE8DBE809136
:100DF0002C028C3051F480912D02893131F464EF52
:100E000071E080E090E00E943E03A114B10409F477
:100E1000DDCE0E941A01882309F4D8CE0E9400007A
:100E2000D5CE991B79E004C0991F961708F0961B40
:100E3000881F7A95C9F780950895EE0FFF1F0590DA
:0A0E4000F491E02D0994F894FFCF1F
:100E4A00000102030000000000000000000063002F
:100E5A000040000000000000000000000000000048
:100E6A000000000000777C395E79713576061E75C0
:100E7A003837545C737B506D781C3E7E766E1B004F
:100E8A0000000108005F7C585E797135740416759C
:100E9A003837545C7367506D781C3E2A766E1B3F58
:100EAA00065B4F666D7D077F6F777C395E797100CF
:100EBA000000005001B000DD009D010E01EC0000B1
:060ECA00017631000A0070
:00000001FF
