:100000000C9463000C948B000C948B000C948B006C
:100010000C948B000C948B000C948B000C94230795
:100020000C948B000C948B000C948B000C948B0024
:100030000C948B000C948B000C948B000C948B0014
:100040000C94D9060C948B000C94A7060C94810692
:100050000C948B000C948B000C948B000C948B00F4
:100060000C948B000C948B000000000024002700EF
:100070002A0000000000250028002B0000000000DE
:1000800023002600290004040404040404040202DA
:100090000202020203030303030301020408102007
:1000A0004080010204081020010204081020000012
:1000B0000008000201000003040700000000000027
:1000C0000000C207FB1011241FBECFEFD8E0DEBF37
:1000D000CDBF23E0AEEEB1E001C01D92AB3AB20756
:1000E000E1F711E0A0E0B1E0ECE1FCE202C0059034
:1000F0000D92AE3EB107D9F710E0C2E6D0E004C0E1
:100100002197FE010E940914C136D107C9F70E9448
:100110003F080C9401160C940000E82F8F37F9F07B
:10012000803160F40E2E000CFF0BEB59FE4F8081E6
:100130009091A203911190E8890F089580ED8E0FA0
:100140008A3030F40E2E000CFF0BEB5CFE4FEFCF2D
:10015000E052EB3520F4F0E0E65FFE4FE8CF80E0C0
:10016000E7CFCF92DF92EF92FF92CF93DF93EC0134
:10017000072E000C880B990B0E9412116B017C0159
:1001800020E030E040E45FE30E94711120E030E0C5
:1001900048E452E40E94ED120E945F13C617D7078D
:1001A000D4F020E030E040EA5FE3C701B6010E94EE
:1001B000711120E030E048E452E40E94ED1220E0AA
:1001C00030E040E85FE30E9481120E945F1321E06B
:1001D0006C177D070CF420E0822F90E0DF91CF9127
:1001E000FF90EF90DF90CF9008958F929F92AF9203
:1001F000BF92CF92DF92EF92FF920F931F93CF9314
:10020000DF93FC0120813181E0910702F091080227
:1002100001E010E02E173F070CF043C0D901AA0FF0
:10022000BB1FE0910502F0910602EA0FFB1FA080C0
:10023000B1808901009510950170112720FD23C020
:100240002CE93FEFEA016B017C014901840E951E08
:10025000B401C5010E94B100892BC1F48C0E9D1E12
:10026000B401C5010E94B100892B49F5BE01680D9A
:10027000791DC5010E94B10023E030E0892B41F4D3
:100280000FEF1FEF0EC024E630E0DCCF21E030E0BE
:10029000F601808191810196821793079CF49183E6
:1002A0008083C801DF91CF911F910F91FF90EF9054
:1002B000DF90CF90BF90AF909F908F90089522E0F5
:1002C00030E0E6CF11821082F701808191810196A2
:1002D000E6CFFC01248135816217730748F48081E1
:1002E0009181009729F0860F971FFC018081089566
:1002F00080E00895DC0114962D913C9115976217CA
:10030000730728F4ED91FC91E60FF71F40830895E1
:100310000895AF92BF92CF92DF92EF92FF920F9328
:100320001F93CF93DF936C017B018B01040F151F8B
:10033000EB015E01AE18BF08C017D10759F06991F3
:10034000D601ED91FC910190F081E02DC601099557
:10035000892B79F7C501DF91CF911F910F91FF9004
:10036000EF90DF90CF90BF90AF900895FC01538D38
:10037000448D252F30E0842F90E0821B930B54177F
:1003800010F0CF96089501970895FC01918D828D0C
:10039000981761F0A28DAE0FBF2FB11D5D968C91A5
:1003A000928D9F5F9F73928F90E008958FEF9FEFE4
:1003B0000895FC01918D828D981731F0828DE80FA0
:1003C000F11D858D90E008958FEF9FEF0895FC015A
:1003D000918D228D892F90E0805C9F4F821B910927
:1003E0008F739927089589E092E00E94E70121E048
:1003F000892B09F420E0822F089580E090E0892B7A
:1004000029F00E94F30181110C9400000895FC0171
:10041000A48DA80FB92FB11DA35ABF4F2C91848D65
:1004200090E001968F739927848FA689B7892C93C2
:10043000A089B1898C91837080648C93938D848D15
:10044000981306C00288F389E02D80818F7D808318
:100450000895EF92FF920F931F93CF93DF93EC01D8
:1004600081E0888F9B8D8C8D98131AC0E889F9895B
:10047000808185FF15C09FB7F894EE89FF8960835E
:10048000E889F98980818370806480839FBF81E0DF
:1004900090E0DF91CF911F910F91FF90EF90089521
:1004A000F62E0B8D10E00F5F1F4F0F731127E02EFC
:1004B0008C8D8E110CC00FB607FCFACFE889F98934
:1004C000808185FFF5CFCE010E940702F1CFEB8D31
:1004D000EC0FFD2FF11DE35AFF4FF0829FB7F89408
:1004E0000B8FEA89FB8980818062CFCFCF93DF9326
:1004F000EC01888D8823B9F0AA89BB89E889F9893C
:100500008C9185FD03C0808186FD0DC00FB607FC70
:10051000F7CF8C9185FFF2CF808185FFEDCFCE01A3
:100520000E940702E9CFDF91CF910895833081F0D7
:1005300028F4813099F08230A9F008958730A9F02D
:100540008830C9F08430B1F4809180008F7D03C081
:10055000809180008F7780938000089584B58F7795
:1005600084BD089584B58F7DFBCF8091B0008F77D7
:100570008093B00008958091B0008F7DF9CFCF9324
:10058000DF93282F30E0F901E255FF4F8491F90104
:10059000E656FF4FD491F901EA57FF4FC491CC239F
:1005A000A1F081110E949602EC2FF0E0EE0FFF1FE8
:1005B000E458FF4FA591B491EC91ED2381E090E0D8
:1005C00009F480E0DF91CF91089580E090E0FACFC8
:1005D0001F93CF93DF93282F30E0F901E255FF4FAF
:1005E0008491F901E656FF4FD491F901EA57FF4F84
:1005F000C491CC23A9F0162F81110E949602EC2FF2
:10060000F0E0EE0FFF1FEE58FF4FA591B4918FB7AA
:10061000F894EC91111108C0D095DE23DC938FBFC4
:10062000DF91CF911F910895DE2BF8CFCF93DF9309
:10063000CFE9D3E061E08E810E94E80261E08F8122
:100640000E94E80260E08F810E94E80260E08E81F3
:10065000DF91CF910C94E802CF93DF93CFE9D3E001
:1006600060E08E810E94E80260E08F810E94E802D3
:1006700061E08E810E94E80261E08F81DF91CF917D
:100680000C94E802CF93DF9390E0FC01E656FF4F15
:1006900024918A579F4FFC0184918823D1F090E0E8
:1006A000880F991FFC01E859FF4FA591B491FC01F7
:1006B000EE58FF4FC591D49161110EC09FB7F894C9
:1006C0008C91E22FE0958E238C932881E223E8839E
:1006D0009FBFDF91CF9108958FB7F894EC91E22BF3
:1006E000EC938FBFF6CF0F931F93CF93DF93D82F49
:1006F000C8E060E08091A5030E94E8020D2F0D2E56
:10070000000C110B61E0D0FF60E08091A6030E9415
:10071000E80215950795D02F61E08091A5030E940E
:10072000E802C15031F760E08091A5030E94E80221
:1007300061E08091A6030E94E80261E08091A50338
:100740000E94E80260E08091A6030E94420383ECCD
:1007500090E00197F1F78091A6030E94BF028C01FF
:1007600081110AC061E08091A6030E94420360E00B
:100770008091A6030E94E802C3ECD0E0CE0101976D
:10078000F1F761E08091A6030E9442032197F1F7FF
:10079000C8019927DF91CF911F910F910895CF93B1
:1007A000DF93D82F862F0E948D00C82F0E9416033A
:1007B00084E40E9473030E942C030E9416038D2F71
:1007C000806C0E9473038C2F0E9473030E942C0381
:1007D0000E9416038091A1030E947303DF91CF91C1
:1007E0000C942C033FB7F8948091F3019091F4019D
:1007F000A091F501B091F60126B5A89B05C02F3F49
:1008000019F00196A11DB11D3FBFBA2FA92F982F36
:100810008827BC01CD01620F711D811D911D42E031
:10082000660F771F881F991F4A95D1F708958F92F9
:100830009F92AF92BF92CF92DF92EF92FF926B01A5
:100840007C010E94F2034B015C01C114D104E1045C
:10085000F104B9F00E94F203681979098A099B0929
:10086000683E73408105910580F321E0C21AD108EA
:10087000E108F10888EE880E83E0981EA11CB11CE7
:10088000E4CFFF90EF90DF90CF90BF90AF909F901C
:100890008F9008951F93CF93DF9360E0809195032D
:1008A0000E94420310E0D0E0C0E0809195030E94D6
:1008B000BF0299270C2E01C0880F0A94EAF7182B63
:1008C00061E0809196030E94E80260E080919603C7
:1008D0000E94E8022196C830D10539F7812FDF91B7
:1008E000CF911F9108950F931F93CF93DF93D82F2C
:1008F00061E0809195030E9442031091960300915C
:100900009503C8E06D2F6170802F0E94E802D69594
:1009100061E0812F0E94E80260E0812F0E94E802DE
:10092000C15081F7DF91CF911F910F9108950F93DF
:100930001F93CF93DF93182F062FC4E9D3E060E015
:100940008A810E94E80261E088810E94E802812F8A
:10095000880F80680E947304802F0E94730460E0F7
:100960008881DF91CF911F910F910C94E8029F92A3
:10097000AF92BF92CF92DF92EF92FF920F931F93AD
:10098000CF93DF93CDB7DEB7ADB6BEB6C090A303AD
:10099000D090A4038DB79EB78C199D090FB6F8941B
:1009A0009EBF0FBE8DBFADB7BEB711967D0120E0D3
:1009B000822F90E08C159D0554F4F701E80FF91F84
:1009C00080509F4FDC018C9180832F5FF1CF912C61
:1009D000092D10E00C151D0554F40E0D1F1DF80116
:1009E00080810E948D00D8018C939394F1CF0E9456
:1009F000160380E40E9473030E942C030E941603D6
:100A00008091A0030E94730310E0812F90E0209159
:100A1000A3033091A4038217930744F48E0D9F1D06
:100A2000FC0180810E9473031F5FEFCF0E942C03A3
:100A30000E9416038091A1030E9473030E942C035D
:100A40000FB6F894BEBE0FBEADBEDF91CF911F9121
:100A50000F91FF90EF90DF90CF90BF90AF909F905D
:100A60000895EF92FF920F931F93CF93DF937C0132
:100A700010E000E0E70109900020E9F72197CE1986
:100A8000DF098091A3039091A4030C171D0758F56B
:100A900008171907F4F064EF71E080E090E00E941D
:100AA0001704D0E0C0E09E018091A3039091A403BD
:100AB000219628173907A4F4F801EC0FFD1FE81B55
:100AC000F90BEE0DFF1D60818C2F81500E94CF032A
:100AD000EACFF701E00FF11F6081802F0E94CF0362
:100AE0000F5F1F4FC7CF8091A3039091A403C81736
:100AF000D90734F46FE78C2F0E94CF032196F3CFF0
:100B0000DF91CF911F910F91FF90EF900895FC011D
:100B100001900020E9F73197AF01481B590BBC0148
:100B200089E092E00C948901CF93DF930E948705BE
:100B3000EC0187E891E00E9487058C0F9D1FDF91F3
:100B4000CF910895FC0180819181009711F00C9460
:100B5000AB1408950F931F93CF93DF938C01EB0198
:100B6000FC01808191810097E1F0688179816115B4
:100B70007105A9F0428153812C813D8142175307B1
:100B800070F00E94FA158C819D81F8019583848311
:100B90001D821C82DF91CF911F910F9108950E94B9
:100BA000AB1488819981F801918380838A819B812C
:100BB000938382838C819D8195838483198218829B
:100BC0001B821A82E5CFEF92FF920F931F93CF9370
:100BD000DF93EC017B01198218821B821A821D822D
:100BE0001C82FB0101900020E9F731978F01061B61
:100BF000170BB8016F5F7F4F90E080E00E943415C3
:100C00000097B9F0998388831B830A832C813D81E7
:100C1000232B11F4FC0110821D830C83B701888102
:100C20009981DF91CF911F910F91FF90EF900C94DC
:100C3000FA1588819981009711F00E94AB141982EE
:100C400018821D821C821B821A82DF91CF911F9114
:100C50000F91FF90EF900895CF92DF92EF92FF9265
:100C60000F931F93CF93DF9300D0CDB7DEB78C01E6
:100C7000FC01118210821382128215821482698310
:100C80001A82CE0101966C01FC0101900020E9F767
:100C900031977F01E81AF90AB7016F5F7F4F90E043
:100CA00080E00E943415F801009799F091838083C9
:100CB000F382E28224813581232B11F4FC0110821E
:100CC000F801F582E482B601808191810E94FA15D3
:100CD0000DC080819181009711F00E94AB14F80142
:100CE0001182108215821482138212820F900F904B
:100CF000DF91CF911F910F91FF90EF90DF90CF90F8
:100D000008951F920F920FB60F9211242F933F93C5
:100D10004F935F936F937F938F939F93AF93BF9303
:100D2000EF93FF9389E092E00E940702FF91EF9119
:100D3000BF91AF919F918F917F916F915F914F91F3
:100D40003F912F910F900FBE0F901F9018951F92FB
:100D50000F920FB60F9211242F938F939F93EF93BF
:100D6000FF93E0911902F0911A028081E0911F0235
:100D7000F091200282FD1BC09081809122028F5F42
:100D80008F7320912302821741F0E0912202F0E05C
:100D9000E75FFD4F958F80932202FF91EF919F9126
:100DA0008F912F910F900FBE0F901F9018958081FB
:100DB000F4CF1F920F920FB60F9211242F933F93EF
:100DC0008F939F93AF93BF938091EF019091F00128
:100DD000A091F101B091F2013091EE0123E0230FD7
:100DE0002D3758F50196A11DB11D2093EE0180937A
:100DF000EF019093F001A093F101B093F201809183
:100E0000F3019091F401A091F501B091F6010196E2
:100E1000A11DB11D8093F3019093F401A093F501FE
:100E2000B093F601BF91AF919F918F913F912F9118
:100E30000F900FBE0F901F90189526E8230F029673
:100E4000A11DB11DD2CF1F920F920FB60F92112488
:100E50002F933F934F935F936F937F938F939F93C2
:100E6000AF93BF93EF93FF938091A6020E94BF02BE
:100E70002091A9023091AA022F5F3F4F3093AA021E
:100E80002093A90290917303943618F095E0909303
:100E9000A7029091A702933009F44AC0D0F492308F
:100EA00001F19091A802992319F0811169C02D9A3E
:100EB000FF91EF91BF91AF919F918F917F916F9132
:100EC0005F914F913F912F910F900FBE0F901F9008
:100ED0001895943009F448C0953019F78111E1CF85
:100EE00009C08111DECF2091A9023091AA022436D7
:100EF000310528F41092AA021092A902D2CF1092C2
:100F00007303E091730391E09E0F90937303F0E0FD
:100F10002091A9023091AA02EE0FFF1FEA55FD4F62
:100F2000368325831092AA021092A90293E019C079
:100F3000813009F0B6CFE091730391E09E0F90935A
:100F40007303F0E02091A9023091AA02EE0FFF1F77
:100F5000EA55FD4F368325831092AA021092A9020A
:100F600094E09093A7029DCF882359F22091A90283
:100F70003091AA022536310508F493CF95E0F1CFE0
:100F80002D9896CFCF93DF93E9E0F2E0138212829F
:100F900088EE93E0A0E0B0E084839583A683B783D6
:100FA00089E791E09183808385EC90E09587848741
:100FB00084EC90E09787868780EC90E0918B808B23
:100FC00081EC90E0938B828B82EC90E0958B848B0C
:100FD00086EC90E0978B868B118E128E138E148E7A
:100FE000CFE9D3E084E090E09D838C8381E18E8320
:100FF00080E18F8361E081E10E94420361E08F81A3
:101000000E944203C4E9D3E088E0888387E08983B3
:1010100086E08A8361E088E00E94420361E08A8181
:101020000E944203E6EAF2E082E080831282ECE86A
:10103000F3E08AED97E09683858381E08483838360
:1010400010821182128285E0878369E871E086E868
:1010500093E00E94E30569E871E080E893E00E9474
:10106000E30569E871E08AE793E00E94E30569E837
:1010700071E084E793E0DF91CF910C94E305CF9387
:10108000DF93CDB7DEB7AF970FB6F894DEBF0FBED4
:10109000CDBF789484B5826084BD84B5816084BD01
:1010A00085B5826085BD85B5816085BD80916E0006
:1010B000816080936E001092810080918100826037
:1010C0008093810080918100816080938100809174
:1010D00080008160809380008091B1008460809363
:1010E000B1008091B00081608093B00080917A005F
:1010F000846080937A0080917A00826080937A0085
:1011000080917A00816080937A0080917A00806873
:1011100080937A001092C10060E0809196030E9453
:10112000E80261E0809194030E94E80281E80E9455
:1011300073040E944A04182F60E0809194030E9477
:10114000E802612F6F7780E00E94970460E087E0FB
:101150000E949704E0911902F0911A0212E01083A4
:10116000E0911502F09116021082E0911702F091C1
:1011700018028FEC808310922102E0911D02F09101
:101180001E0286E08083E0911B02F0911C028081A8
:1011900080618083E0911B02F0911C028081886055
:1011A0008083E0911B02F0911C0280818068808323
:1011B000E0911B02F0911C0280818F7D80836FE79C
:1011C00080E00E94CF036FE781E00E94CF036FE7CA
:1011D00082E00E94CF036FE783E00E94CF0380E4A8
:1011E00080939F0380EC8093A0038FE88093A103FA
:1011F0008AE891E00E94310561E089E00E944203A3
:1012000061E08AE00E94420361E08BE00E944203B9
:1012100061E08CE00E944203F8941093B0001093B8
:10122000B10084E68093B3001092B2001093700076
:1012300078941093A702109273038091A60260E045
:101240000E94420360E0809196030E94E80261E000
:10125000809194030E94E8028FEB0E94730407E9D7
:1012600013E00E944A04D8018D938D01B3E00F3939
:101270001B07B9F760E0809194030E94E802809117
:101280009703982F929597702AE08F70582F929F0E
:10129000500D112480919803982F929597708F701C
:1012A000382F929F300D112460919903862F90E082
:1012B000462F4F7067FFF1C065FB882780F9ECE08F
:1012C0008E9F400D112420919A0390919B03609171
:1012D0009C0380919D0340938C0330938D03509326
:1012E0008E03322F329537701AE02F70319F200D08
:1012F000112420938F03292F229527709F70219FFF
:10130000900D112490939003982F92959F708F7059
:10131000919F800D112490E08053984F90939203F9
:10132000809391036093930301E00093A20364EF21
:1013300071E080E090E00E9417040093A20364EF44
:1013400071E080E090E00E94170440918D0330919D
:101350008C03842F612F0E94A5139093030124E630
:10136000842F622F0E94A513892F612F0E94A5133D
:1013700080930201832F0E94A51390930101832F74
:10138000622F0E94A513892F612F0E94A5138093BD
:1013900000010E94B7046DE871E0CE0182960E94C0
:1013A000E305F12CE12C2BEA32E030930602209386
:1013B00005028091730390E09093080280930702E6
:1013C0008091A702853009F031C68091AD029091DD
:1013D000AE02885891098D35910508F094C080912E
:1013E0007303843009F063C08091AF029091B00222
:1013F0008097479708F05BC08091B1029091B2024C
:101400000997099708F053C0109204021092030242
:101410008FEF9FEFDC018093FF0190930002A09378
:101420000102B0930202A1E0B0E0B093FC01A093EE
:10143000FB018091FF0190910002A0910102B09107
:1014400002028736E8E99E07EFEFAE07B10509F41F
:101450008AC408F052C4873C28E392072FEFA20702
:10146000B10509F42CC608F02FC48F3EE0E19E07B9
:10147000EFEFAE07B10509F41FC68D3DF2E29F07FD
:10148000FFEFAF07B10509F40AC68D3F9240AF4F99
:10149000B10509F06EC445E367C4F4E095958795FE
:1014A000FA95E1F78370829F400D11240CCF809153
:1014B0007303843440F18091AF029091B002825462
:1014C00091098E9700F590E080E040E050E0BA018D
:1014D000FC01EF54FD4F2081318129503109293021
:1014E000310588F4FC01ED54FD4F208131812651F6
:1014F00031092131310528F120813181265031090E
:1015000027303105E8F1809173038A3108F46DC00A
:101510008091AB029091AC02843F9140B0F5109263
:101520000402109203028FEF9FEFDC018093FF0112
:1015300090930002A0930102B093020289E090E030
:1015400048C1440F551F661F771F416004968038BD
:10155000910509F0BDCFE0E2F0E0F0930402E093E2
:1015600003024093FF0150930002609301027093C5
:10157000020221E030E03093FC012093FB0159CFBF
:10158000440F551F661F771FE1CF8091AD029091E8
:10159000AE0285974B9748F5E6EAF2E082E090E0EC
:1015A00040E050E0BA01A09173039C012F5F3F4FD0
:1015B000A217130609F00CF4F4C0218532852750D8
:1015C00031092730310508F0ECC0238534852351DB
:1015D00031092F30310508F4D7C0238534852A50CE
:1015E00031092930310508F4D7C0809173038A315D
:1015F00008F43FC08091AB029091AC0280329340DE
:1016000008F48DCF8091AD029091AE02C697869777
:1016100080F58091AF029091B002C697869748F509
:10162000E6EAF2E083E090E040E050E0BA01A09109
:1016300073039C012F5F3F4FA217130609F00CF4B0
:10164000DAC0238534852C5031092B30310508F060
:10165000D2C025853685255231092B31310508F454
:10166000BDC0258536852C5031092A30310508F456
:10167000BDC080917303823238F18091AD029091A8
:10168000AE020697079700F5E6EAF2E082E090E006
:1016900040E050E0BA01DC011196209173032A1753
:1016A0001B0609F00CF4D3C0218532852E51310977
:1016B0002731310508F4B6C0218532852C50310917
:1016C0002B30310508F4BDC0809173038D3008F4D0
:1016D000EFC0E1E0F0E0F9A7E8A71A82198249E734
:1016E00053E0BE016F5F7F4FCE0188960E94F500E8
:1016F000892B09F0DDC049E753E0BE016F5F7F4FE2
:10170000CE0188960E94F500019709F0D1C049E703
:1017100053E0BE016F5F7F4FCE0188960E94F500B7
:101720008C01892B09F0C4C0812C912C540120918B
:10173000730388A599A52817190609F00CF4A9C008
:1017400049E753E0BE016F5F7F4FCE0188960E944C
:10175000F5006C0149E753E0BE016F5F7F4FCE019A
:1017600088960E94F500F1E0CF16D10409F088C0F8
:10177000892B09F09DC0880C991CAA1CBB1C68947D
:1017800080F80F5F1F4FD3CF440F551F661F771F81
:1017900041600296349607CF440F551F661F771F8E
:1017A000F8CF019795958795909304028093030253
:1017B0000C972CF4109204021092030216CF40935F
:1017C000FF0150930002609301027093020282E0D5
:1017D00090E09093FC018093FB012BCE440F551FAA
:1017E000661F771F41600296349621CF440F551F24
:1017F000661F771FF8CF0197959587959093040200
:10180000809303020C972CF41092040210920302AE
:1018100030CF4093FF015093000260930102709318
:1018200002028CCE440F551F661F771F416023852F
:1018300034853496235031092530310538F4029629
:101840002ACF440F551F661F771FF1CFCD01019797
:1018500095958795909304028093030240972CF40A
:1018600010920402109203022FCF4093FF01509375
:10187000000260930102709302028AE090E0A9CF17
:10188000CD28B1F40197A1F4880C991CAA1CBB1CAB
:1018900078CF10930402009303028092FF0190928C
:1018A0000002A0920102B092020283E090E091CF88
:1018B0008091070290910802181619060CF084C056
:1018C000E0910502F091060221E030E039A728A757
:1018D0008281938189974E9708F076C082E090E0EC
:1018E00099A788A7848195810B970A9708F06CC007
:1018F00083E090E099A788A71A8219824CEB51E007
:10190000BE016F5F7F4FCE0188960E94F5008C016B
:10191000892B09F059C04CEB51E0BE016F5F7F4F3E
:10192000CE0188960E94F500019709F04DC0412C28
:10193000512C3201209107023091080288A599A507
:10194000821793070CF0ABC04CEB51E0BE016F5F08
:101950007F4FCE0188960E94F5005C01033011058F
:1019600039F14CEB51E0BE016F5F7F4FCE0188969D
:101970000E94F5006C010330110561F44CEB51E05D
:10198000BE016F5F7F4FCE0188960E94F500C8169A
:10199000D906D1F4A114B10409F474C0AA94AB28F7
:1019A00099F4CD2889F4440C551C661C771C74C02E
:1019B0004CEB51E0BE016F5F7F4FCE0188960E94D5
:1019C000F500A816B90669F22090050230900602CB
:1019D000D10112968D919C911397C697869728F501
:1019E00014968D919C914B974597F8F4F10136969A
:1019F0006101B6ECCB0ED11C20E030E040E050E0BD
:101A000060E070E080E090E0A081B18119971897C4
:101A100060F4A281B38151971D9708F44FC0A28151
:101A2000B3811497159708F46EC0809173038232C6
:101A300009F06DC0F101828193810A97099708F03E
:101A400066C0E0917303F0E0E150F048EE0FFF1F35
:101A5000E20DF31D808191810A97099708F057C024
:101A600010920402109203028FEF9FEFDC0180932B
:101A7000FF0190930002A0930102B093020288E05C
:101A800090E0A7CECA94CD2809F09ECF440C551CF7
:101A9000661C771C689440F80F5F1F4F4BCF109364
:101AA0000402009303024092FF01509200026092F0
:101AB00001027092020284E090E08BCE01E00E946D
:101AC000D31321603496EC15FD0509F09DCF2093CA
:101AD000FF0130930002409301025093020200E2A2
:101AE0000E94EE132093FD013093FE0187E090E009
:101AF0009093FC018093FB0180E390E090930402BB
:101B00008093030296CC01E00E94D313DBCFD10176
:101B100012968D919C911397895791098335910560
:101B200040F580917303813220F114968D919C9140
:101B3000CA978997F0F4F101369680E090E0DC01D5
:101B400023E030E0408151814A505109493051052C
:101B500080F442815381465151094131510508F4C5
:101B600090C042815381465051094730510508F4D5
:101B7000A6C00091070210910802063011050CF46E
:101B800050C235EC832E3DE9932E3CE1A32E31E883
:101B9000B32E43E0C42ED12CF1013497FFA7EEA75A
:101BA000C601880F991FFC01E20DF31D6081718150
:101BB0002EA53FA5820F931FDC010D90BC91A02D97
:101BC000BBA7AAA790E080E00E9410112B013C0166
:101BD000EAA5FBA5BF0190E080E00E9410116AA772
:101BE0007BA78CA79DA72DEC3CEC4CE45FE30E9407
:101BF00071119B01AC01C301B2010E940B11F0E015
:101C0000E0E087FD16C02DEC3CEC4CE45FE3C30143
:101C1000B2010E9471119B01AC016AA57BA58CA544
:101C20009DA50E940B11E2E0F0E087FD02C0E1E01B
:101C3000F0E0A501940163E971E080E091E00E9489
:101C400095134F01FF0FAA08BB0886269726A826E2
:101C5000B926FFEFCF1ADF0AC016D10609F0A0CFD0
:101C60008092FF0190920002A0920102B0920202C3
:101C700020E230E030930402209303028FEF9FEFC5
:101C8000A8CD880F991FAA1FBB1F81602E5F3F4FF1
:101C900034962332310509F055CFF101EA5BFF4F4D
:101CA000208131812A5031092930310508F061CF76
:101CB00020E130E03093040220930302D8CE880F55
:101CC000991FAA1FBB1FE2CF8D3932E693073FEF62
:101CD000A307B10509F4DFC18F36E0E99E07EFEFF6
:101CE000AE07B10509F4E1C1853A9A45AF4FB10598
:101CF00009F03FC08BE991E0DCC18D3322EC920703
:101D00002FEFA207B10509F4CCC1B8F48735E8EA92
:101D10009E07EFEFAE07B10509F4C5C18F34F0EBB4
:101D20009F07FFEFAF07B10509F4C1C18D35924A96
:101D3000AF4FB105F1F441E317C08D3132EE930797
:101D40003FEFA307B10509F4A8C18F3FEFEF9E074E
:101D5000AE07BE0709F4B6C18F31904EAF4FB10543
:101D600041F447E301C040E3B701CE0182960E94EF
:101D70007A018091FF0190910002A0910102B0913F
:101D800002028F3420EB92072FEFA207B10531F04A
:101D90008F3E9041AF4FB10509F0B6C070E060E0F2
:101DA000CE0182960E946901682FCE0101960E94A1
:101DB0002C06BE016F5F7F4F86E893E00E94AA0564
:101DC000CE0101960E94A20561E070E0CE018296EC
:101DD0000E946901682FCE0101960E942C06BE0167
:101DE0006F5F7F4F80E893E00E94AA05CE010196C5
:101DF0000E94A20562E070E0CE0182960E94690115
:101E0000682FCE0101960E942C06BE016F5F7F4FA6
:101E10008AE793E00E94AA05CE0101960E94A205DE
:101E200063E070E0CE0182960E946901682FCE01C6
:101E300001960E942C06BE016F5F7F4F84E793E0FE
:101E40000E94AA05CE0101960E94A2058CEA91E0AB
:101E50000E94310570E060E0CE0182960E94690127
:101E600060E00E94CF0361E070E0CE0182960E94A4
:101E7000690161E00E94CF0368EE73E080E090E0CA
:101E80000E94170481EB91E00E94310562E070E04E
:101E9000CE0182960E94690162E00E94CF0363E056
:101EA00070E0CE0182960E94690163E00E94CF0338
:101EB00064E670E080E090E00E94170480918C035B
:101EC000811122C080918D038032F1F40091F701DD
:101ED0001091F8010130110509F415C10CF0F5C09D
:101EE0000115110509F4FEC00F5F1F4F04301105E5
:101EF0000CF021C11093F8010093F70162E070E04B
:101F000080E090E00E9417048091FF019091000210
:101F1000A0910102B0910202873C9843AF4FB105F6
:101F200031F485EB91E00E9431050E94B704809165
:101F3000FF0190910002A0910102B0910202853A46
:101F40009A45AF4FB10509F06CC08EE891E00E9450
:101F5000310580E480937C0080917A0080648093D6
:101F60007A0080917A0086FDFCCF90917800809174
:101F700079008927982789279093FA018093F9019E
:101F800068EE73E080E090E00E9417048AEB91E035
:101F90000E9487058090F9019090FA01092C000CAD
:101FA000AA08BB08B7FECCC06DE289E092E00E94AF
:101FB000290222273327A901281939094A095B096F
:101FC00019A28E010F5D1F4FCA01B9012AE030E04E
:101FD00040E050E00E94B113605DD8016E938D0126
:101FE000211531054105510579F70115110519F044
:101FF000C8010E94870587E891E00E9487058091CB
:10200000F9019091FA01181619060CF4B1C08AEE84
:1020100091E00E94310564EF71E080E090E00E9461
:10202000170482E08093A70210927303B701CE01D8
:1020300082960E9469018D3219F421E0E21AF108BA
:1020400064EF71E080E090E00E9417044EA15FA170
:102050006AA17BA189E092E00E94890187E891E072
:102060000E9487053FEFE31AF30A85E0E816F104C2
:1020700009F099C9CE0182960E94A20580E090E005
:10208000892B09F4DFC80E94F301882309F4DAC818
:102090000E940000D7C842E367CE43E365CE44E325
:1020A00063CE46E361CE48E35FCE49E35DCE83E98C
:1020B00091E00E9494055DCE86E991E0FACF81EA35
:1020C00091E0F7CF84EA91E0F4CF0230110549F1B5
:1020D0000330110509F008CF61E089E00E94E802B1
:1020E00060E024C060E089E00E94E80260E08AE0ED
:1020F0000E94E80260E08BE00E94E80261E08CE070
:102100000E94E802F1CE60E089E00E94E80260E00F
:102110008AE00E94E80261E08BE00E94E80260E051
:10212000EECF60E089E00E94E80261E08AE00E9470
:10213000E80260E0F1CF1092F8011092F701DECED4
:10214000A501940119A28E010F5D1F4FCA01B901AB
:102150002AE030E040E050E00E94B113605DF801F9
:1021600062938F01211531054105510579F73DCF66
:10217000823491051CF484EC91E04BCF83389105B7
:102180001CF488EC91E045CF843C91051CF48CEC68
:1021900091E03FCF8530F1E09F071CF480ED91E0A6
:1021A00038CF863421E092071CF484ED91E031CFE2
:1021B000873831E093071CF488ED91E02ACF883C02
:1021C000A1E09A071CF48CED91E023CF8930B2E0B6
:1021D0009B071CF480EE91E01CCF8A34E2E09E075E
:1021E0001CF484EE91E015CF8B3892400CF013CFA5
:1021F00088EE91E00ECF84E793E00E94A2058AE783
:1022000093E00E94A20580E893E00E94A20586E880
:1022100093E00C94A2050E944D1108F481E008950A
:10222000E89409C097FB3EF4909580957095619570
:102230007F4F8F4F9F4F9923A9F0F92F96E9BB2726
:102240009395F695879577956795B795F111F8CFA2
:10225000FAF4BB0F11F460FF1BC06F5F7F4F8F4F0D
:102260009F4F16C0882311F096E911C0772321F003
:102270009EE8872F762F05C0662371F096E8862F9B
:1022800070E060E02AF09A95660F771F881FDAF7F2
:10229000880F9695879597F90895990F0008550F1F
:1022A000AA0BE0E8FEEF16161706E807F907C0F0DC
:1022B00012161306E407F50798F0621B730B840BE4
:1022C000950B39F40A2661F0232B242B252B21F4BE
:1022D00008950A2609F4A140A6958FEF811D811D5E
:1022E00008950E9484110C94F5110E94E71138F0B2
:1022F0000E94EE1120F0952311F00C94DE110C9445
:10230000E41111240C9429120E94061270F3959F77
:10231000C1F3950F50E0551F629FF001729FBB27DC
:10232000F00DB11D639FAA27F00DB11DAA1F649F78
:102330006627B00DA11D661F829F2227B00DA11D2B
:10234000621F739FB00DA11D621F839FA00D611DB1
:10235000221F749F3327A00D611D231F849F600DD2
:10236000211D822F762F6A2F11249F5750409AF0FB
:10237000F1F088234AF0EE0FFF1FBB1F661F771F87
:10238000881F91505040A9F79E3F510580F00C9452
:10239000DE110C9429125F3FE4F3983ED4F3869546
:1023A00077956795B795F795E7959F5FC1F7FE2BF2
:1023B000880F911D9695879597F9089597F99F67CE
:1023C00080E870E060E008959FEF80EC08950024BD
:1023D0000A941616170618060906089500240A948A
:1023E00012161306140605060895092E0394000C10
:1023F00011F4882352F0BB0F40F4BF2B11F460FF9F
:1024000004C06F5F7F4F8F4F9F4F089557FD9058C7
:10241000440F551F59F05F3F71F04795880F97FBA8
:10242000991F61F09F3F79F0879508951216130662
:102430001406551FF2CF4695F1DF08C01616170691
:102440001806991FF1CF86957105610508940895C6
:10245000E894BB2766277727CB0197F908950E9458
:102460007112A59F900DB49F900DA49F800D911D9A
:10247000112408952F923F924F925F926F927F9214
:102480008F929F92AF92BF92CF92DF92EF92FF9284
:102490000F931F93CF93DF93CDB7DEB7CA1BDB0B30
:1024A0000FB6F894DEBF0FBECDBF09942A883988D5
:1024B00048885F846E847D848C849B84AA84B984DC
:1024C000C884DF80EE80FD800C811B81AA81B981E8
:1024D000CE0FD11D0FB6F894DEBF0FBECDBFED01FC
:1024E0000895A29FB001B39FC001A39F700D811DED
:1024F0001124911DB29F700D811D1124911D08950D
:102500005058BB27AA270E9498120C94F5110E94DC
:10251000E71138F00E94EE1120F039F49F3F19F4D2
:1025200026F40C94E4110EF4E095E7FB0C94DE1114
:10253000E92F0E94061258F3BA176207730784073F
:10254000950720F079F4A6F50C9428120EF4E09586
:102550000B2EBA2FA02D0B01B90190010C01CA015D
:10256000A0011124FF27591B99F0593F50F4503E08
:1025700068F11A16F040A22F232F342F4427585FFA
:10258000F3CF469537952795A795F0405395C9F712
:102590007EF41F16BA0B620B730B840BBAF09150CA
:1025A000A1F0FF0FBB1F661F771F881FC2F70EC069
:1025B000BA0F621F731F841F48F48795779567953C
:1025C000B795F7959E3F08F0B0CF9395880F08F028
:1025D0009927EE0F9795879508950E9401130C9403
:1025E000F5110E94EE1158F00E94E71140F029F415
:1025F0005F3F29F00C94DE1151110C9429120C94B8
:10260000E4110E94061268F39923B1F3552391F364
:10261000951B550BBB27AA2762177307840738F051
:102620009F5F5F4F220F331F441FAA1FA9F335D0AE
:102630000E2E3AF0E0E832D091505040E695001C62
:10264000CAF72BD0FE2F29D0660F771F881FBB1F1C
:10265000261737074807AB07B0E809F0BB0B802DFA
:10266000BF01FF2793585F4F3AF09E3F510578F026
:102670000C94DE110C9429125F3FE4F3983ED4F3DE
:10268000869577956795B795F7959F5FC9F7880FFA
:10269000911D9695879597F90895E1E0660F771F4C
:1026A000881FBB1F621773078407BA0720F0621BDD
:1026B000730B840BBA0BEE1F88F7E09508950E9408
:1026C00066136894B1110C94291208950E940E1299
:1026D00088F09F5798F0B92F9927B751B0F0E1F0E3
:1026E000660F771F881F991F1AF0BA95C9F714C093
:1026F000B13091F00E942812B1E008950C94281294
:10270000672F782F8827B85F39F0B93FCCF38695CB
:1027100077956795B395D9F73EF490958095709528
:1027200061957F4F8F4F9F4F0895DB018F939F934C
:102730000E942F12BF91AF91A29F800D911DA39F68
:10274000900DB29F900D11240895991B79E004C05B
:10275000991F961708F0961B881F7A95C9F78095E0
:102760000895A1E21A2EAA1BBB1BFD010DC0AA1FD2
:10277000BB1FEE1FFF1FA217B307E407F50720F0EA
:10278000A21BB30BE40BF50B661F771F881F991F65
:102790001A9469F760957095809590959B01AC01AE
:1027A000BD01CF010895002E083090F0982F872F9B
:1027B000762F652F542F432F322F22270850F4CF26
:1027C000220F331F441F551F661F771F881F991F35
:1027D0000A95B2F7002D089597FD1094002E083049
:1027E00098F00850232F342F452F562F672F782F1E
:1027F000892F912DF4CF15949795879577956795A7
:1028000057954795379527950A95AAF71124002DD6
:102810000895EE0FFF1F0590F491E02D09940F939A
:102820001F93CF93DF938230910510F482E090E004
:10283000E091A903F091AA0330E020E0B0E0A0E02D
:10284000309799F42115310509F44AC0281B390B3A
:1028500024303105D8F58A819B816115710589F194
:10286000FB0193838283FE0111C04081518102816B
:10287000138148175907E0F04817590799F4109742
:1028800061F012960C93129713961C933296CF0117
:10289000DF91CF911F910F9108950093A903109399
:1028A000AA03F4CF2115310551F04217530738F030
:1028B000A901DB019A01BD01DF01F801C1CFEF01E0
:1028C000F9CF9093AA038093A903CDCFFE01E20F25
:1028D000F31F819391932250310939832883D7CFF5
:1028E0002091A7033091A803232B41F420910601E6
:1028F000309107013093A8032093A703209104018E
:10290000309105012115310541F42DB73EB74091B5
:10291000080150910901241B350BE091A703F091A8
:10292000A803E217F307A0F42E1B3F0B2817390763
:1029300078F0AC014E5F5F4F2417350748F04E0F1B
:102940005F1F5093A8034093A703819391939FCF58
:10295000F0E0E0E09CCFCF93DF930097E9F0FC013B
:10296000329713821282A091A903B091AA03ED01BC
:1029700030E020E01097A1F420813181820F931F75
:102980002091A7033091A8032817390709F061C0E7
:10299000F093A803E093A703DF91CF910895EA0194
:1029A000CE17DF07E8F54A815B819E01411551058D
:1029B000B1F7E901FB83EA8349915991C40FD51F0F
:1029C000EC17FD0761F4808191810296840F951FB9
:1029D000E90199838883828193819B838A83F0E0D4
:1029E000E0E012968D919C9113970097B9F52D9187
:1029F0003C911197CD010296820F931F2091A7035E
:102A00003091A8032817390739F6309751F51092FD
:102A1000AA031092A903B093A803A093A703BCCF65
:102A2000D383C28340815181840F951FC817D90772
:102A300061F44E5F5F4F88819981480F591F518320
:102A400040838A819B81938382832115310509F01C
:102A5000B0CFF093AA03E093A9039ECFFD01DC0160
:102A6000C0CF13821282D7CFB0E0A0E0EAE3F5E155
:102A70000C943C128C01009751F4CB010E940F146E
:102A80008C01C801CDB7DEB7E0E10C945812FC010F
:102A9000E60FF71F9C0122503109E217F30708F4F3
:102AA0009DC0D901CD91DC911197C617D70798F039
:102AB000C530D10530F3CE0104978617970708F388
:102AC000C61BD70B2297C193D1936D937C93CF01F3
:102AD0000E94AB14D6CF5B01AC1ABD0A4C018C0E20
:102AE0009D1EA091A903B091AA03512C412CF12C59
:102AF000E12C109731F58091A7039091A8038815D8
:102B0000990509F05CC04616570608F058C0809138
:102B1000040190910501009741F48DB79EB7409153
:102B2000080150910901841B950BE817F90708F07B
:102B300055C0F093A803E093A703F9017183608364
:102B4000A0CF8D919C91119712966C90129713962D
:102B50007C901397A815B90559F56C0142E0C40E95
:102B6000D11CCA14DB0420F1AC014A195B09DA015B
:102B70001296159780F06282738251834083D90147
:102B80006D937C93E114F10471F0D7011396FC93DB
:102B9000EE93129776CF22968C0F9D1FF9019183A9
:102BA0008083F301EFCFF093AA03E093A90369CFE9
:102BB0004816590608F42C017D01D3019ACFCB01A8
:102BC0000E940F147C01009749F0AE01B8010E94E9
:102BD000F115C8010E94AB14870153CF10E000E04B
:102BE00050CFFB01DC0102C001900D9241505040DA
:102BF000D8F70895FB01DC0101900D920020E1F768
:102C0000089510E0C2E6D0E004C0FE010E9409145D
:0C2C10002196C336D107C9F7F894FFCF16
:102C1C00000102030000AB03800000000000000074
:102C2C0000000000630000400000000000000000F5
:102C3C000000000000000000000000777C395E7985
:102C4C00713576061E753837545C737B506D781C65
:102C5C003E7E766E1B0000000108005F7C585E799A
:102C6C007135740416753837545C7367506D781C65
:102C7C003E2A766E1B3F065B4F666D7D077F6F7736
:102C8C007C395E79710000000029028901B6017659
:102C9C0002E701C501D9010D0A004F6E002D2D2D43
:102CAC002D2D002023004C656674005269676874F2
:102CBC00004F4B002052455045415400486F7572EF
:102CCC00004D696E00537572650073656E736F729B
:102CDC00203D200031305000323050003330500055
:102CEC0034307000353050003630500037305000E2
:0E2CFC00383050003930500031303050000078
:00000001FF
