:100000000C9462000C948A000C948A000C948A0070
:100010000C948A000C948A000C948A000C946D0B4A
:100020000C948A000C948A000C948A000C948A0028
:100030000C948A000C948A000C948A000C948A0018
:100040000C94230B0C948A000C94F10A0C94CB0AA8
:100050000C948A000C948A000C948A000C948A00F8
:100060000C948A000C948A000000000024002700F1
:100070002A0000000000250028002B0000000000DE
:1000800023002600290004040404040404040202DA
:100090000202020203030303030301020408102007
:1000A0004080010204081020010204081020000012
:1000B0000008000201000003040700000000000027
:1000C00000000C0C11241FBECFEFD8E0DEBFCDBF67
:1000D00023E0ACEEB1E001C01D92A339B207E1F715
:1000E00011E0A0E0B1E0ECE8FCE202C005900D9266
:1000F000AC3EB107D9F710E0C2E6D0E004C02197CA
:10010000FE010E944C14C136D107C9F70E94720C3F
:100110000C9444160C940000E82F8F37F9F08031CE
:1001200060F40E2E000CFF0BEB59FE4F8081909176
:100130008A03911190E8890F089580ED8E0F8A301F
:1001400030F40E2E000CFF0BEB5CFE4FEFCFE052B5
:10015000EB3520F4F0E0E65FFE4FE8CF80E0E7CF3C
:10016000CF92DF92EF92FF92CF93DF93EC01072EB5
:10017000000C880B990B0E9428116B017C0120E078
:1001800030E040E45FE30E94871120E030E048E483
:1001900052E40E9403130E947513C617D707D4F0C8
:1001A00020E030E040EA5FE3C701B6010E9487111A
:1001B00020E030E048E452E40E94031320E030E005
:1001C00040E85FE30E9497120E94751321E06C17CC
:1001D0007D070CF420E0822F90E0DF91CF91FF901B
:1001E000EF90DF90CF9008958F929F92AF92BF9241
:1001F000CF92DF92EF92FF920F931F93CF93DF93F3
:10020000FC0120813181E0910702F091080201E0B8
:1002100010E02E173F070CF043C0D901AA0FBB1FF7
:10022000E0910502F0910602EA0FFB1FA080B18069
:100230008901009510950170112720FD23C02CE93C
:100240003FEFEA016B017C014901840E951EB40168
:10025000C5010E94B000892BC1F48C0E9D1EB40113
:10026000C5010E94B000892B49F5BE01680D791DBA
:10027000C5010E94B00023E030E0892B41F40FEF6C
:100280001FEF0EC024E630E0DCCF21E030E0F601C5
:10029000808191810196821793079CF491838083DA
:1002A000C801DF91CF911F910F91FF90EF90DF90E8
:1002B000CF90BF90AF909F908F90089522E030E054
:1002C000E6CF11821082F701808191810196E6CFFD
:1002D0002F923F924F925F926F927F928F929F9256
:1002E000AF92BF92CF92DF92EF92FF920F931F9344
:1002F000CF93DF9300D000D000D0CDB7DEB78BEA2C
:1003000092E090930602809305028091730390E03F
:1003100090930802809307028091A702853009F02C
:1003200062C48091AD029091AE02885891098D35DA
:10033000910508F054C080917303843021F58091B9
:10034000AF029091B00280974797E8F48091B10294
:100350009091B20209970997B0F41092040210929A
:1003600003028FEF9FEFDC018093FF019093000267
:10037000A0930102B093020281E090E09093FC010F
:100380008093FB0143C380917303843440F18091D7
:10039000AF029091B002825491098E9700F530E03F
:1003A00020E080E090E0DC01F901EF54FD4F408156
:1003B0005181495051094930510588F4F901ED54F2
:1003C000FD4F40815181465151094131510528F17C
:1003D00040815181465051094730510580F180914B
:1003E00073038A3108F460C08091AB029091AC0233
:1003F000843F914048F510920402109203028FEF5F
:100400009FEFDC018093FF0190930002A093010213
:10041000B093020289E090E0B1CF880F991FAA1F24
:10042000BB1F81602C5F3F4F2038310509F0BCCFE6
:1004300020E230E0309304022093030295CF880F2E
:10044000991FAA1FBB1FEECF8091AD029091AE0203
:1004500085974B9748F5E6EAF2E082E090E040E0CD
:1004600050E0BA01A09173039C012F5F3F4FA21788
:10047000130609F00CF4F6C02185328527503109A6
:100480002730310508F0EEC023853485235131092A
:100490002F30310508F4D9C0238534852A5031091D
:1004A0002930310508F4D9C0809173038A3108F4EA
:1004B0003FC08091AB029091AC028032934008F42F
:1004C0009ACF8091AD029091AE02C697869780F543
:1004D0008091AF029091B002C697869748F5E6EA00
:1004E000F2E083E090E040E050E0BA01A0917303B5
:1004F0009C012F5F3F4FA217130609F00CF4D8C0E0
:10050000238534852C5031092B30310508F0D0C0BB
:1005100025853685255231092B31310508F4BBC0BC
:10052000258536852C5031092A30310508F4BBC0A9
:1005300080917303823238F18091AD029091AE02C6
:100540000697079700F5E6EAF2E082E090E040E0E7
:1005500050E0BA01DC011196209173032A171B06A3
:1005600009F00CF4D1C0218532852E513109273193
:10057000310508F4B4C0218532852C5031092B3067
:10058000310508F4BBC0809173038D3008F40AC1B3
:1005900081E090E09C838B831A82198249E753E0C3
:1005A000BE016F5F7F4FCE0103960E94F400892B3E
:1005B00009F0F8C049E753E0BE016F5F7F4FCE01FD
:1005C00003960E94F4008C01019709F0EBC049E703
:1005D00053E0BE016F5F7F4FCE0103960E94F4008F
:1005E0005C01892B09F0DEC0C12CD12C7601209151
:1005F00073038B819C812817190609F00CF4A6C09F
:1006000049E753E0BE016F5F7F4FCE0103960E9422
:10061000F4004C0149E753E0BE016F5F7F4FCE010C
:1006200003960E94F400B1E08B16910409F085C096
:10063000892B09F0B7C0CC0CDD1CEE1CFF1C6894A4
:10064000C0F8EFEFAE1ABE0AD2CF440F551F661F97
:10065000771F41600296349605CF440F551F661FE1
:10066000771FF8CF01979595879590930402809313
:1006700003020C972CF4109204021092030214CF80
:100680004093FF01509300026093010270930202B5
:1006900082E090E073CE440F551F661F771F4160C4
:1006A0000296349623CF440F551F661F771FF8CF4D
:1006B00001979595879590930402809303020C9778
:1006C0002CF4109204021092030232CF4093FF01E7
:1006D0005093000260930102709302029BCE440F7C
:1006E000551F661F771F416023853485349623503C
:1006F00031092530310538F402962CCF440F551FAF
:10070000661F771FF1CFCD0101979595879590933F
:1007100004028093030240972CF41092040210927A
:10072000030231CF4093FF01509300026093010216
:10073000709302028AE090E021CE892899F5019712
:1007400089F5CC0CDD1CEE1CFF1C7BCFB0920402A3
:10075000A0920302C092FF01D0920002E092010237
:10076000F092020283E090E09093FC018093FB0101
:10077000C80126960FB6F894DEBF0FBECDBFDF913D
:10078000CF911F910F91FF90EF90DF90CF90BF908E
:10079000AF909F908F907F906F905F904F903F9021
:1007A0002F9008958091070290910802181619065B
:1007B0000CF087C0E0910502F091060281E090E024
:1007C0009C838B838281938189974E9708F079C0AF
:1007D00082E090E09C838B83848195810B970A97BC
:1007E00008F06FC083E090E09C838B831A821982AB
:1007F0004CEB51E0BE016F5F7F4FCE0103960E942C
:10080000F4007C01892B09F05CC04CEB51E0BE0187
:100810006F5F7F4FCE0103960E94F4008C01019719
:1008200009F04FC0412C512C320120910702309128
:1008300008028B819C81821793070CF0B4C04CEBAB
:1008400051E0BE016F5F7F4FCE0103960E94F4001E
:100850005C01F3E0EF16F10441F14CEB51E0BE0115
:100860006F5F7F4FCE0103960E94F4006C0123E07E
:10087000E216F10461F44CEB51E0BE016F5F7F4F73
:10088000CE0103960E94F400C816D906D1F4A11433
:10089000B10409F47AC0AA94AB2899F4CD2889F45C
:1008A000440C551C661C771C7AC04CEB51E0BE0111
:1008B0006F5F7F4FCE0103960E94F400A816B90621
:1008C00061F2E0910502F091060282819381C69760
:1008D000869778F5848195814B97459750F5DF0190
:1008E00016967F0126ECE20EF11C20E030E040E09D
:1008F00050E060E070E080E090E00D911C91119775
:100900000950110908301105A0F412960D911C919F
:100910001397015111090D30110508F453C01296B7
:100920000D911C911397045011090530110508F41D
:1009300070C080917303823209F06FC0828193810D
:100940000A97099708F069C0A0917303B0E0A1501D
:10095000B048AA0FBB1FAE0FBF1F8D919C910A9785
:10096000099708F05AC010920402109203028FEF08
:100970009FEFDC018093FF0190930002A09301029E
:10098000B093020288E090E0F9CCCA94CD2809F037
:1009900098CF440C551C661C771C689440F8AFEF48
:1009A000EA1AFA0A42CFF0920402E092030240925D
:1009B000FF0150920002609201027092020284E0F4
:1009C00090E0D2CE01E00E94021421601496EA1653
:1009D000FB0609F092CF2093FF0130930002409371
:1009E00001025093020200E20E941D142093FD01B7
:1009F0003093FE0187E090E09093FC018093FB012F
:100A000080E390E0909304028093030201E010E001
:100A1000AFCE01E00E940214D9CF82819381895721
:100A200091098335910568F580917303813248F10E
:100A300084819581CA97899720F59F012A5F3F4F4E
:100A4000C12CD12C760143E050E0D9016D917C910D
:100A500011976A5071096930710598F412966D9179
:100A60007C911397665171096131710508F484C056
:100A700012966D917C91665071096730710508F48A
:100A8000A8C080910702909108029E838D830697EB
:100A90000CF4A4C08F010E5F1F4F85ECC82E8DE9AA
:100AA000D82E8CE1E82E81E8F82E93E0292E312C07
:100AB000D80114966D917C911597AD90BC9090E003
:100AC00080E00E9426112B013C01B50190E080E0FE
:100AD0000E9426114B015C012DEC3CEC4CE45FE3E1
:100AE0000E9487119B01AC01C301B2010E94211138
:100AF000F0E0E0E087FD14C02DEC3CEC4CE45FE35B
:100B0000C301B2010E9487119B01AC01C501B40170
:100B10000E942111E2E0F0E087FD02C0E1E0F0E098
:100B2000A701960163E971E080E091E00E94B013B3
:100B30006F01FF0FEE08FF08C626D726E826F92624
:100B4000BFEF2B1A3B0A0E5F1F4FED81FE812E1661
:100B50003F0609F0ADCFC092FF01D0920002E092B3
:100B60000102F092020280E290E0909304028093EE
:100B700003028FEF9FEF02CCD701C601880F991FA8
:100B8000AA1FBB1F6C017D016894C0F84E5F5F4FC8
:100B90002C5F3F4F4332510509F057CF9F012A5B2D
:100BA0003F4FD9012D913C912A503109293031050F
:100BB00008F067CF20E130E0309304022093030275
:100BC000C092FF01D0920002E0920102F092020274
:100BD000D9CECC0CDD1CEE1CFF1CD8CF82E080935C
:100BE000A7021092730310E000E0C2CDDC0114965E
:100BF0002D913C9115976217730728F4ED91FC91A4
:100C0000E60FF71F40830895AF92BF92CF92DF9215
:100C1000EF92FF920F931F93CF93DF936C017B01B1
:100C20008B01040F151FEB015E01AE18BF08C01742
:100C3000D10759F06991D601ED91FC910190F081B5
:100C4000E02DC6010995892B79F7C501DF91CF9178
:100C50001F910F91FF90EF90DF90CF90BF90AF90DA
:100C60000895FC01538D448D252F30E0842F90E0B2
:100C7000821B930B541710F0CF9608950197089597
:100C8000FC01918D828D981761F0A28DAE0FBF2F60
:100C9000B11D5D968C91928D9F5F9F73928F90E0B6
:100CA00008958FEF9FEF0895FC01918D828D981725
:100CB00031F0828DE80FF11D858D90E008958FEF62
:100CC0009FEF0895FC01918D228D892F90E0805C2B
:100CD0009F4F821B91098F739927089589E092E0B5
:100CE0000E94620621E0892B09F420E0822F0895FA
:100CF00080E090E0892B29F00E946E0681110C940F
:100D000000000895FC01A48DA80FB92FB11DA35AAE
:100D1000BF4F2C91848D90E001968F739927848F1B
:100D2000A689B7892C93A089B1898C91837080643E
:100D30008C93938D848D981306C00288F389E02DDF
:100D400080818F7D80830895EF92FF920F931F9390
:100D5000CF93DF93EC0181E0888F9B8D8C8D98136E
:100D60001AC0E889F989808185FF15C09FB7F8947A
:100D7000EE89FF896083E889F989808183708064C6
:100D800080839FBF81E090E0DF91CF911F910F9111
:100D9000FF90EF900895F62E0B8D10E00F5F1F4F20
:100DA0000F731127E02E8C8D8E110CC00FB607FC2F
:100DB000FACFE889F989808185FFF5CFCE010E94BD
:100DC0008206F1CFEB8DEC0FFD2FF11DE35AFF4FA3
:100DD000F0829FB7F8940B8FEA89FB89808180624B
:100DE000CFCFCF93DF93EC01888D8823B9F0AA8908
:100DF000BB89E889F9898C9185FD03C0808186FDD6
:100E00000DC00FB607FCF7CF8C9185FFF2CF808124
:100E100085FFEDCFCE010E948206E9CFDF91CF9111
:100E20000895833081F028F4813099F08230A9F060
:100E300008958730A9F08830C9F08430B1F48091EA
:100E400080008F7D03C0809180008F778093800029
:100E5000089584B58F7784BD089584B58F7DFBCFC9
:100E60008091B0008F778093B00008958091B0009A
:100E70008F7DF9CFCF93DF93282F30E0F901E25532
:100E8000FF4F8491F901E656FF4FD491F901EA57DB
:100E9000FF4FC491CC23A1F081110E941107EC2FC8
:100EA000F0E0EE0FFF1FE458FF4FA591B491EC91D5
:100EB000ED2381E090E009F480E0DF91CF91089587
:100EC00080E090E0FACF1F93CF93DF93282F30E09C
:100ED000F901E255FF4F8491F901E656FF4FD49195
:100EE000F901EA57FF4FC491CC23A9F0162F8111C5
:100EF0000E941107EC2FF0E0EE0FFF1FEE58FF4F9E
:100F0000A591B4918FB7F894EC91111108C0D095C8
:100F1000DE23DC938FBFDF91CF911F910895DE2BED
:100F2000F8CFCF93DF93C7E8D3E061E08E810E94D2
:100F3000630761E08F810E94630760E08F810E94F8
:100F4000630760E08E81DF91CF910C946307CF93AC
:100F5000DF93C7E8D3E060E08E810E94630760E022
:100F60008F810E94630761E08E810E94630761E0C8
:100F70008F81DF91CF910C946307CF93DF9390E043
:100F8000FC01E656FF4F24918A579F4FFC01849144
:100F90008823D1F090E0880F991FFC01E859FF4F9A
:100FA000A591B491FC01EE58FF4FC591D491611108
:100FB0000EC09FB7F8948C91E22FE0958E238C930E
:100FC0002881E223E8839FBFDF91CF9108958FB7F7
:100FD000F894EC91E22BEC938FBFF6CF0F931F9315
:100FE000CF93DF93D82FC8E060E080918D030E94FB
:100FF00063070D2F0D2E000C110B61E0D0FF60E098
:1010000080918E030E94630715950795D02F61E0AC
:1010100080918D030E946307C15031F760E0809199
:101020008D030E94630761E080918E030E94630735
:1010300061E080918D030E94630760E080918E03E0
:101040000E94BD0783EC90E00197F1F780918E0339
:101050000E943A078C0181110AC061E080918E03E1
:101060000E94BD0760E080918E030E946307C3EC7D
:10107000D0E0CE010197F1F761E080918E030E94EC
:10108000BD072197F1F7C8019927DF91CF911F91F3
:101090000F910895CF93DF93D82F862F0E948C0055
:1010A000C82F0E94910784E40E94EE070E94A707C0
:1010B0000E9491078D2F806C0E94EE078C2F0E945A
:1010C000EE070E94A7070E949107809189030E9462
:1010D000EE07DF91CF910C94A7073FB7F89480916A
:1010E000F1019091F201A091F301B091F40126B5C4
:1010F000A89B05C02F3F19F00196A11DB11D3FBF50
:10110000BA2FA92F982F8827BC01CD01620F711D1E
:10111000811D911D42E0660F771F881F991F4A9518
:10112000D1F708958F929F92AF92BF92CF92DF92A4
:10113000EF92FF926B017C010E946D084B015C01F4
:10114000C114D104E104F104B9F00E946D086819DA
:1011500079098A099B09683E73408105910580F3EE
:1011600021E0C21AD108E108F10888EE880E83E078
:10117000981EA11CB11CE4CFFF90EF90DF90CF90A0
:10118000BF90AF909F908F9008951F93CF93DF9360
:1011900060E080917D030E94BD0710E0D0E0C0E0D8
:1011A00080917D030E943A0799270C2E01C0880F79
:1011B0000A94EAF7182B61E080917E030E9463078E
:1011C00060E080917E030E9463072196C830D105BC
:1011D00039F7812FDF91CF911F9108950F931F93BE
:1011E000CF93DF93D82F61E080917D030E94BD07EC
:1011F00010917E0300917D03C8E06D2F6170802FF8
:101200000E946307D69561E0812F0E94630760E02A
:10121000812F0E946307C15081F7DF91CF911F9109
:101220000F9108950F931F93CF93DF93182F062FDD
:10123000CCE7D3E060E08A810E94630761E08881A7
:101240000E946307812F880F80680E94EE08802F1C
:101250000E94EE0860E08881DF91CF911F910F918D
:101260000C9463079F92AF92BF92CF92DF92EF925E
:10127000FF920F931F93CF93DF93CDB7DEB7ADB639
:10128000BEB6C0908B03D0908C038DB79EB78C19DF
:101290009D090FB6F8949EBF0FBE8DBFADB7BEB708
:1012A00011967D0120E0822F90E08C159D0554F46D
:1012B000F701E80FF91F80509F4FDC018C9180836C
:1012C0002F5FF1CF912C092D10E00C151D0554F462
:1012D0000E0D1F1DF80180810E948C00D8018C9397
:1012E0009394F1CF0E94910780E40E94EE070E9440
:1012F000A7070E949107809188030E94EE0710E0E3
:10130000812F90E020918B0330918C0382179307FB
:1013100044F48E0D9F1DFC0180810E94EE071F5F2B
:10132000EFCF0E94A7070E949107809189030E9436
:10133000EE070E94A7070FB6F894BEBE0FBEADBE63
:10134000DF91CF911F910F91FF90EF90DF90CF90A1
:10135000BF90AF909F900895EF92FF920F931F93CD
:10136000CF93DF937C0110E000E0E70109900020BB
:10137000E9F72197CE19DF0980918B0390918C03B7
:101380000C171D0758F508171907F4F064EF71E002
:1013900080E090E00E949208D0E0C0E09E01809141
:1013A0008B0390918C03219628173907A4F4F80138
:1013B000EC0FFD1FE81BF90BEE0DFF1D60818C2F5C
:1013C00081500E944A08EACFF701E00FF11F6081C7
:1013D000802F0E944A080F5F1F4FC7CF80918B0359
:1013E00090918C03C817D90734F46FE78C2F0E94B3
:1013F0004A082196F3CFDF91CF911F910F91FF9073
:10140000EF900895FC0101900020E9F73197AF01BA
:10141000481B590BBC0189E092E00C940406CF9361
:10142000DF930E94020AEC0187E891E00E94020A21
:101430008C0F9D1FDF91CF910895FC0180819181D8
:10144000009711F00C94EE140895EF92FF920F9311
:101450001F93CF93DF93EC017B018A0188819981EF
:10146000009729F02A813B812417350788F4B801B9
:101470006F5F7F4F0E947715009791F09983888363
:101480001B830A832C813D81232B11F4FC011082E4
:101490001D830C83B701888199810E943D160CC081
:1014A00088819981009711F00E94EE1419821882A8
:1014B0001D821C821B821A82CE01DF91CF911F9167
:1014C0000F91FF90EF900895AF92BF92CF92DF926D
:1014D000EF92FF920F931F93CF93DF93EC016B0179
:1014E0005A0179012417350720F48B2D5901E42E78
:1014F000F82E198218821B821A821D821C8250E0EB
:1015000040E069E871E0CE010E94250AD6011496F8
:101510000D911C91A016B10628F5E016F10608F40D
:101520008701D601ED91FC911197E00FF11FF0803A
:1015300010826D917C916A0D7B1D61157105F1F032
:10154000FB0101900020E9F73197AF01461B570BD3
:10155000CE010E94250AF60180819181080F191F92
:10156000D801FC92CE01DF91CF911F910F91FF9096
:10157000EF90DF90CF90BF90AF90089588819981D0
:10158000009711F00E94EE14198218821D821C82AD
:101590001B821A82E0CF1F920F920FB60F92112476
:1015A0002F933F934F935F936F937F938F939F936B
:1015B000AF93BF93EF93FF9389E092E00E9482067E
:1015C000FF91EF91BF91AF919F918F917F916F911B
:1015D0005F914F913F912F910F900FBE0F901F90F1
:1015E00018951F920F920FB60F9211242F938F937D
:1015F0009F93EF93FF93E0911902F0911A0280817B
:10160000E0911F02F091200282FD1BC09081809129
:1016100022028F5F8F7320912302821741F0E091A5
:101620002202F0E0E75FFD4F958F80932202FF9149
:10163000EF919F918F912F910F900FBE0F901F9060
:1016400018958081F4CF1F920F920FB60F9211243C
:101650002F933F938F939F93AF93BF938091ED010F
:101660009091EE01A091EF01B091F0013091EC0169
:1016700023E0230F2D3758F50196A11DB11D2093AE
:10168000EC018093ED019093EE01A093EF01B093F4
:10169000F0018091F1019091F201A091F301B091DC
:1016A000F4010196A11DB11D8093F1019093F20107
:1016B000A093F301B093F401BF91AF919F918F91EB
:1016C0003F912F910F900FBE0F901F90189526E815
:1016D000230F0296A11DB11DD2CF1F920F920FB6FC
:1016E0000F9211242F933F934F935F936F937F93A8
:1016F0008F939F93AF93BF93EF93FF938091A60235
:101700000E943A072091A9023091AA022F5F3F4F11
:101710003093AA022093A90290917303943618F093
:1017200095E09093A7029091A702933009F44AC0E4
:10173000D0F4923001F19091A802992319F081110F
:1017400069C02D9AFF91EF91BF91AF919F918F91B9
:101750007F916F915F914F913F912F910F900FBEAD
:101760000F901F901895943009F448C0953019F7E0
:101770008111E1CF09C08111DECF2091A902309102
:10178000AA022436310528F41092AA021092A90266
:10179000D2CF10927303E091730391E09E0F909368
:1017A0007303F0E02091A9023091AA02EE0FFF1F0F
:1017B000EA55FD4F368325831092AA021092A902A2
:1017C00093E019C0813009F0B6CFE091730391E046
:1017D0009E0F90937303F0E02091A9023091AA022A
:1017E000EE0FFF1FEA55FD4F368325831092AA02A4
:1017F0001092A90294E09093A7029DCF882359F2FA
:101800002091A9023091AA022536310508F493CF20
:1018100095E0F1CF2D9896CFCF93DF93E9E0F2E0FA
:101820001382128288EE93E0A0E0B0E08483958377
:10183000A683B78389E791E09183808385EC90E06C
:101840009587848784EC90E09787868780EC90E08A
:10185000918B808B81EC90E0938B828B82EC90E07B
:10186000958B848B86EC90E0978B868B118E128EF5
:10187000138E148EC7E8D3E084E090E09D838C83C0
:1018800081E18E8380E18F8361E081E10E94BD0769
:1018900061E08F810E94BD07CCE7D3E088E08883B8
:1018A00087E0898386E08A8361E088E00E94BD0743
:1018B00061E08A810E94BD07E6EAF2E082E080836F
:1018C0001282E4E7F3E08AED97E09683858381E076
:1018D0008483838310821182128285E08783DF9163
:1018E000CF910895CF93DF93CDB7DEB7A9970FB609
:1018F000F894DEBF0FBECDBF789484B5826084BDFE
:1019000084B5816084BD85B5826085BD85B5816003
:1019100085BD80916E00816080936E001092810081
:10192000809181008260809381008091810081603C
:1019300080938100809180008160809380008091FD
:10194000B10084608093B1008091B0008160809389
:10195000B00080917A00846080937A0080917A0050
:10196000826080937A0080917A00816080937A000F
:1019700080917A00806880937A001092C10060E0C4
:1019800080917E030E94630761E080917C030E9446
:10199000630781E80E94EE080E94C508182F60E0E6
:1019A00080917C030E946307612F6F7780E00E9423
:1019B000120960E087E00E941209E0911902F0919B
:1019C0001A0212E01083E0911502F09116021082C3
:1019D000E0911702F09118028FEC8083109221029F
:1019E000E0911D02F0911E0286E08083E0911B02CF
:1019F000F0911C02808180618083E0911B02F09154
:101A00001C02808188608083E0911B02F0911C029F
:101A1000808180688083E0911B02F0911C028081AC
:101A20008F7D80836FE780E00E944A086FE781E046
:101A30000E944A086FE782E00E944A086FE783E04D
:101A40000E944A0880E48093870380EC8093880397
:101A50008FE8809389038AE891E00E94AC0961E0F5
:101A600089E00E94BD0761E08AE00E94BD0761E055
:101A70008BE00E94BD0761E08CE00E94BD07F894F6
:101A80001093B0001093B10084E68093B3001092DD
:101A9000B2001093700078941093A7021092730311
:101AA0008091A60260E00E94BD07EAE04E2E512C14
:101AB000612C712C60E080917E030E94630761E0DD
:101AC00080917C030E9463078FEB0E94EE087FE702
:101AD000E72E73E0F72E07E813E00E94C508F70130
:101AE00081937F010E171F07C1F760E080917C038F
:101AF0000E94630780917F03982F929597702AE048
:101B00008F70382F929F300D112480918003982F71
:101B1000929597708F70482F929F400D112460917D
:101B20008103862F90E0562F5F7067FF33C265FBFD
:101B3000882780F9FCE08F9F500D112420918203AB
:101B40009091830360918403809185035093740383
:101B50004093750330937603322F329537701AE035
:101B60002F70319F200D112420937703292F229568
:101B700027709F70219F900D112490937803982FC8
:101B800092959F708F70919F800D112490E08053EB
:101B9000984F90937A038093790360937B0381E05D
:101BA00080938A0364EF71E080E090E00E949208E5
:101BB0004091750330917403842F612F0E94C013EC
:101BC0009093030124E6842F622F0E94C013892F73
:101BD000612F0E94C01380930201832F0E94C013C3
:101BE00090930101832F622F0E94C013892F612FD0
:101BF0000E94C013809300010E9432090E94680174
:101C0000892B09F4D5C28091FF0190910002A09127
:101C10000102B09102028F34904BAF4FB10509F031
:101C200041C18DE891E00E940F0A64EF71E080E00D
:101C300090E00E94920882E08093A70210927303C2
:101C40001BA21AA21DA21CA21FA21EA244E050E0C9
:101C500060E971E0CE0182960E94250A10E000E062
:101C600082E0D82E90E4C92E0E946801892B09F4E5
:101C7000B8C08091FF0190910002A0910102B09143
:101C800002028F3630E993073FEFA307B10509F44D
:101C9000EAC108F0A2C18D3DF2E29F07FFEFAF0756
:101CA000B10509F4D8C108F07FC18D3F32E0930738
:101CB0003FEFA307B10509F4D0C18F3E9041AF4F6C
:101CC000B10509F4D2C18091FF0190910002A09169
:101CD0000102B0910202873C9843AF4FB10531F445
:101CE0008BEA91E00E94AC090E9432098091FF01C9
:101CF00090910002A0910102B0910202853A9A45AA
:101D0000AF4FB10509F069C080E991E00E94AC09CC
:101D1000C0927C0080917A00806480937A008091E8
:101D20007A0086FDFCCF9091780080917900892718
:101D3000982789279093F6018093F50168EE73E068
:101D400080E090E00E94920880EB91E00E94020AFD
:101D50008090F5019090F601092C000CAA08BB08B0
:101D6000B7FE8EC16DE289E092E00E94A4062227B0
:101D70003327A901281939094A095B0919A2CE019B
:101D800081967C01CA01B901A30192010E94E0136E
:101D9000605DF70162937F01211531054105510511
:101DA00089F7E114F10419F0C7010E94020A87E8DB
:101DB00091E00E94020A8091F5019091F6011816B7
:101DC00019060CF473C180EE91E00E94AC0964EF37
:101DD00071E080E090E00E949208D092A7021092F9
:101DE00073038EA19FA10817190760F48AA19BA114
:101DF000009741F0800F911FFC0180818D3211F41A
:101E00000150110964EF71E080E090E00E949208B7
:101E10004EA15FA16AA17BA189E092E00E94040625
:101E200087E891E00E94020A0F5F1F4F04301105FE
:101E300009F01ACF22E030E050E040E0BE016E5DD4
:101E40007F4FCE0101960E94640A89819A81009792
:101E500009F46FC10E94E5107093FA016093F901D3
:101E6000CE0101960E941D0A2EA13FA142E050E042
:101E7000BE016E5D7F4FCE0101960E94640A89818A
:101E80009A81009709F459C10E94E5107093F801F6
:101E90006093F701CE0101960E941D0ACE01829641
:101EA0000E941D0A8091FF0190910002A091010201
:101EB000B09102028F34F0EB9F07FFEFAF07B1053F
:101EC00031F08F3E9041AF4FB10509F066C183EE0E
:101ED00091E00E94AC092090F9013090FA01B10123
:101EE000032C000C880B990B0E9428114B015C01FC
:101EF0007C016B01E894F7F820E030E0A901C7010C
:101F0000B6010E94AB1320E030E040E05FE387FDC4
:101F100018C1C701B6010E9497120E9475138B0168
:101F2000F12CE12CC0908B03D0908C0381E090E0E9
:101F300099A788A720E030E0A901C501B4010E945B
:101F4000211187FD02C019A618A6C601E8A5F9A5AA
:101F50008E1B9F0BE816F9060CF0F8C096012E199F
:101F60003F09215031096FE70115110531F0C80112
:101F70006AE070E00E94CC13682F822F0E944A080A
:101F8000C8016AE070E00E94CC138B01FFEFEF1AEA
:101F9000FF0AC8CF64E0959587956A95E1F783704D
:101FA000829F500D1124CACD853AFAE59F07FFEFB5
:101FB000AF07B10509F45EC08D3922E692072FEF15
:101FC000A207B10509F443C0873C9843AF4FB10560
:101FD00009F079CE80EA91E04AC08D33E2EC9E07A9
:101FE000EFEFAE07B105D9F1D8F48D3522EA9207AB
:101FF0002FEFA207B10549F1873538EA93073FEF84
:10200000A307B10571F187369849AF4FB10509F0C3
:102010005ACE40E3B801CE0182960E94F60553CE17
:102020008D31F2EE9F07FFEFAF07B10591F08F3FC3
:102030002FEF9207A207B20701F18F31904EAF4FF9
:10204000B10509F040CE47E3E5CF41E3E3CF42E3FA
:10205000E1CF43E3DFCF44E3DDCF45E3DBCF46E32E
:10206000D9CF48E3D7CF49E3D5CF85E991E00E94A6
:102070000F0A29CE8AE991E0FACF83EA91E0F7CFFF
:10208000A501940119A2CE0181967C01CA01B90172
:10209000A30192010E94E013605DF70162937F014A
:1020A000211531054105510589F77BCE8234910513
:1020B0001CF48AEB91E089CE833891051CF48EEBF9
:1020C00091E083CE843C91051CF482EC91E07DCEBE
:1020D0008530F1E09F071CF486EC91E076CE8634E3
:1020E00021E092071CF48AEC91E06FCE873831E052
:1020F00093071CF48EEC91E068CE883CE1E09E07EB
:102100001CF482ED91E061CE8930F2E09F071CF46F
:1021100086ED91E05ACE8A3422E092071CF48AEDD3
:1021200091E053CE8B3892400CF051CE8EED91E081
:102130004CCE60E070E0CB018FCE60E070E0CB0170
:10214000A5CEC701B6010E949612E7CE20E030E08E
:10215000A901C501B4010E94211187FF04C06DE2ED
:1021600080E00E944A0810928A0368EE73E080E0E3
:1021700090E00E94920888EE91E00E94AC09809164
:10218000F7019091F801820D931D0E94AC0964E65D
:1021900070E080E090E00E94920864EF71E080E0DF
:1021A00090E00E94920882E08093A702109273034D
:1021B00080E090E0892B09F47DCC0E946E06882394
:1021C00009F478CC0E94000075CC1F93FC0199277C
:1021D0008827BC01E89411911032E9F3193010F00E
:1021E0001E30C8F31B3251F01D3249F4689406C00A
:1021F0000E940C11610F711D811D911D11911053D1
:102200001A30B0F33EF490958095709561957F4FAC
:102210008F4F9F4F1F910895592F482F372F262FEB
:10222000660F771F881F991F660F771F881F991FDA
:10223000620F731F841F951F660F771F881F991FDA
:1022400008950E94631108F481E00895E89409C09C
:1022500097FB3EF490958095709561957F4F8F4FD9
:102260009F4F9923A9F0F92F96E9BB279395F695EF
:10227000879577956795B795F111F8CFFAF4BB0F6D
:1022800011F460FF1BC06F5F7F4F8F4F9F4F16C0D1
:10229000882311F096E911C0772321F09EE8872F5B
:1022A000762F05C0662371F096E8862F70E060E017
:1022B0002AF09A95660F771F881FDAF7880F969590
:1022C000879597F90895990F0008550FAA0BE0E834
:1022D000FEEF16161706E807F907C0F012161306E8
:1022E000E407F50798F0621B730B840B950B39F428
:1022F0000A2661F0232B242B252B21F408950A268E
:1023000009F4A140A6958FEF811D811D08950E94BB
:102310009A110C940B120E94FD1138F00E940412C5
:1023200020F0952311F00C94F4110C94FA1111245F
:102330000C943F120E941C1270F3959FC1F3950FED
:1023400050E0551F629FF001729FBB27F00DB11D39
:10235000639FAA27F00DB11DAA1F649F6627B00DC9
:10236000A11D661F829F2227B00DA11D621F739FB2
:10237000B00DA11D621F839FA00D611D221F749FC0
:102380003327A00D611D231F849F600D211D822F07
:10239000762F6A2F11249F5750409AF0F1F088232E
:1023A0004AF0EE0FFF1FBB1F661F771F881F91505B
:1023B0005040A9F79E3F510580F00C94F4110C9405
:1023C0003F125F3FE4F3983ED4F386957795679587
:1023D000B795F795E7959F5FC1F7FE2B880F911D85
:1023E0009695879597F9089597F99F6780E870E02B
:1023F00060E008959FEF80EC089500240A9416167B
:10240000170618060906089500240A9412161306E2
:10241000140605060895092E0394000C11F4882370
:1024200052F0BB0F40F4BF2B11F460FF04C06F5F8C
:102430007F4F8F4F9F4F089557FD9058440F551F62
:1024400059F05F3F71F04795880F97FB991F61F036
:102450009F3F79F087950895121613061406551FAD
:10246000F2CF4695F1DF08C0161617061806991F19
:10247000F1CF86957105610508940895E894BB270E
:1024800066277727CB0197F908950E948712A59FA9
:10249000900DB49F900DA49F800D911D112408955F
:1024A0002F923F924F925F926F927F928F929F9264
:1024B000AF92BF92CF92DF92EF92FF920F931F9352
:1024C000CF93DF93CDB7DEB7CA1BDB0B0FB6F89403
:1024D000DEBF0FBECDBF09942A88398848885F8443
:1024E0006E847D848C849B84AA84B984C884DF80B4
:1024F000EE80FD800C811B81AA81B981CE0FD11D98
:102500000FB6F894DEBF0FBECDBFED010895A29FB8
:10251000B001B39FC001A39F700D811D1124911DB7
:10252000B29F700D811D1124911D08955058BB2735
:10253000AA270E94AE120C940B120E94FD1138F0D3
:102540000E94041220F039F49F3F19F426F40C94F1
:10255000FA110EF4E095E7FB0C94F411E92F0E94B8
:102560001C1258F3BA17620773078407950720F007
:1025700079F4A6F50C943E120EF4E0950B2EBA2FCA
:10258000A02D0B01B90190010C01CA01A001112479
:10259000FF27591B99F0593F50F4503E68F11A1625
:1025A000F040A22F232F342F4427585FF3CF4695B6
:1025B00037952795A795F0405395C9F77EF41F16D8
:1025C000BA0B620B730B840BBAF09150A1F0FF0FA2
:1025D000BB1F661F771F881FC2F70EC0BA0F621F8E
:1025E000731F841F48F4879577956795B795F7957E
:1025F0009E3F08F0B0CF9395880F08F09927EE0F13
:102600009795879508950E9417130C940B120E94BA
:10261000041258F00E94FD1140F029F45F3F29F0A8
:102620000C94F41151110C943F120C94FA110E9465
:102630001C1268F39923B1F3552391F3951B550BA5
:10264000BB27AA2762177307840738F09F5F5F4F85
:10265000220F331F441FAA1FA9F335D00E2E3AF0C4
:10266000E0E832D091505040E695001CCAF72BD0DC
:10267000FE2F29D0660F771F881FBB1F261737072D
:102680004807AB07B0E809F0BB0B802DBF01FF275F
:1026900093585F4F3AF09E3F510578F00C94F41137
:1026A0000C943F125F3FE4F3983ED4F38695779500
:1026B0006795B795F7959F5FC9F7880F911D969518
:1026C000879597F90895E1E0660F771F881FBB1F74
:1026D000621773078407BA0720F0621B730B840B21
:1026E000BA0BEE1F88F7E09508950E947C1368945A
:1026F000B1110C943F1208950E94241288F09F5744
:1027000098F0B92F9927B751B0F0E1F0660F771F15
:10271000881F991F1AF0BA95C9F714C0B13091F00B
:102720000E943E12B1E008950C943E12672F782F5C
:102730008827B85F39F0B93FCCF3869577956795D0
:10274000B395D9F73EF490958095709561957F4F3C
:102750008F4F9F4F08950E94631108F48FEF0895E3
:10276000DB018F939F930E944512BF91AF91A29F6F
:10277000800D911DA39F900DB29F900D112408957F
:10278000991B79E004C0991F961708F0961B881FC3
:102790007A95C9F78095089597FB072E16F4009453
:1027A00007D077FD09D00E94381407FC05D03EF40D
:1027B000909581959F4F0895709561957F4F0895ED
:1027C000A1E21A2EAA1BBB1BFD010DC0AA1FBB1F35
:1027D000EE1FFF1FA217B307E407F50720F0A21BA7
:1027E000B30BE40BF50B661F771F881F991F1A9414
:1027F00069F760957095809590959B01AC01BD013E
:10280000CF010895002E083090F0982F872F762F53
:10281000652F542F432F322F22270850F4CF220F39
:10282000331F441F551F661F771F881F991F0A9566
:10283000B2F7002D089597FD1094002E083098F0FF
:102840000850232F342F452F562F672F782F892F8D
:10285000912DF4CF15949795879577956795579512
:102860004795379527950A95AAF71124002D0895C5
:10287000AA1BBB1B51E107C0AA1FBB1FA617B707A6
:1028800010F0A61BB70B881F991F5A95A9F78095C2
:102890009095BC01CD010895EE0FFF1F0590F491B6
:1028A000E02D09940F931F93CF93DF93823091050E
:1028B00010F482E090E0E0919103F091920330E017
:1028C00020E0B0E0A0E0309799F42115310509F43B
:1028D0004AC0281B390B24303105D8F58A819B81E9
:1028E0006115710589F1FB0193838283FE0111C09B
:1028F000408151810281138148175907E0F0481740
:10290000590799F4109761F012960C931297139649
:102910001C933296CF01DF91CF911F910F910895B3
:102920000093910310939203F4CF2115310551F0D8
:102930004217530738F0A901DB019A01BD01DF01FD
:10294000F801C1CFEF01F9CF9093920380939103E7
:10295000CDCFFE01E20FF31F8193919322503109F5
:1029600039832883D7CF20918F0330919003232B75
:1029700041F4209106013091070130939003209398
:102980008F0320910401309105012115310541F497
:102990002DB73EB74091080150910901241B350B1A
:1029A000E0918F03F0919003E217F307A0F42E1B40
:1029B0003F0B2817390778F0AC014E5F5F4F2417A3
:1029C000350748F04E0F5F1F5093900340938F03DD
:1029D000819391939FCFF0E0E0E09CCFCF93DF9382
:1029E0000097E9F0FC01329713821282A0919103C3
:1029F000B0919203ED0130E020E01097A1F4208126
:102A00003181820F931F20918F03309190032817FB
:102A1000390709F061C0F0939003E0938F03DF91D1
:102A2000CF910895EA01CE17DF07E8F54A815B816F
:102A30009E0141155105B1F7E901FB83EA834991F4
:102A40005991C40FD51FEC17FD0761F48081918166
:102A50000296840F951FE90199838883828193816F
:102A60009B838A83F0E0E0E012968D919C9113970E
:102A70000097B9F52D913C911197CD010296820FE7
:102A8000931F20918F03309190032817390739F64F
:102A9000309751F51092920310929103B0939003E6
:102AA000A0938F03BCCFD383C28340815181840F15
:102AB000951FC817D90761F44E5F5F4F88819981D0
:102AC000480F591F518340838A819B81938382835E
:102AD0002115310509F0B0CFF0939203E0939103F3
:102AE0009ECFFD01DC01C0CF13821282D7CFB0E0B0
:102AF000A0E0EDE7F5E10C9452128C01009751F43F
:102B0000CB010E9452148C01C801CDB7DEB7E0E1C1
:102B10000C946E12FC01E60FF71F9C012250310944
:102B2000E217F30708F49DC0D901CD91DC9111970C
:102B3000C617D70798F0C530D10530F3CE010497FA
:102B40008617970708F3C61BD70B2297C193D1931B
:102B50006D937C93CF010E94EE14D6CF5B01AC1A2B
:102B6000BD0A4C018C0E9D1EA0919103B091920361
:102B7000512C412CF12CE12C109731F580918F03D1
:102B8000909190038815990509F05CC04616570688
:102B900008F058C08091040190910501009741F41C
:102BA0008DB79EB74091080150910901841B950B88
:102BB000E817F90708F055C0F0939003E0938F03EE
:102BC000F90171836083A0CF8D919C91119712962A
:102BD0006C90129713967C901397A815B90559F528
:102BE0006C0142E0C40ED11CCA14DB0420F1AC011C
:102BF0004A195B09DA011296159780F06282738296
:102C000051834083D9016D937C93E114F10471F0F9
:102C1000D7011396FC93EE93129776CF22968C0FE2
:102C20009D1FF90191838083F301EFCFF09392030D
:102C3000E093910369CF4816590608F42C017D01F1
:102C4000D3019ACFCB010E9452147C01009749F026
:102C5000AE01B8010E943416C8010E94EE1487012B
:102C600053CF10E000E050CFFB01DC0102C0019027
:102C70000D9241505040D8F70895FB01DC010190BE
:0C2C80000D920020E1F70895F894FFCFBA
:102C8C00000102030000930380000000000000001C
:102C9C000000000063000040000000000000000085
:102CAC000000000000000000000000777C395E7915
:102CBC00713576061E753837545C737B506D781CF5
:102CCC003E7E766E1B0000000108005F7C585E792A
:102CDC007135740416753837545C7367506D781CF5
:102CEC003E2A766E1B3F065B4F666D7D077F6F77C6
:102CFC007C395E797100000000A40604063106F1EF
:102D0C00066206400654060D0A004F6E0020230092
:102D1C002D2D2D2D004C656674005269676874006A
:102D2C004F4B00205245504541540053757265007D
:102D3C0073656E736F72203D20003130500032305D
:102D4C005000333050003430700035305000363085
:102D5C00500037305000383050003930500031308E
:0C2D6C00305000486F7572004D696E0019
:00000001FF
