:100000000C945D000C947A000C947A000C947A00A5
:100010000C947A000C947A000C947A000C947A0078
:100020000C947A000C947A000C947A000C947A0068
:100030000C947A000C947A000C947A000C947A0058
:100040000C94C4000C947A000C947A000C947A00FE
:100050000C947A000C947A000C947A000C947A0038
:100060000C947A000C947A00000000002400270011
:100070002A0000000000250028002B0004040404CE
:100080000404040402020202020203030303030342
:10009000010204081020408001020408102001021F
:1000A00004081020000000080002010000030407FB
:1000B0000000000000000000890111241FBECFEFE6
:1000C000D8E0DEBFCDBF21E0A0E0B1E001C01D92CD
:1000D000AC30B207E1F710E0CDE5D0E004C02197E5
:1000E000FE010E94A301CC35D107C9F70E943F0150
:1000F0000C94A9010C94000090E0FC01EC55FF4F1A
:100100002491FC01E057FF4F3491FC01E458FF4F6C
:10011000E491EE23B9F0222339F02330F1F098F482
:10012000213009F1223019F1F0E0EE0FFF1FEE58F7
:10013000FF4FA591B4918FB7F894EC9130953E2381
:100140003C938FBF08952730A9F02830C9F02430A0
:1001500059F7809180008F7D03C0809180008F7758
:1001600080938000E1CF84B58F7784BDDDCF84B5E7
:100170008F7DFBCF8091B0008F778093B000D4CF7C
:100180008091B0008F7DF9CF1F920F920FB60F9222
:1001900011242F933F938F939F93AF93BF9380919D
:1001A000080190910901A0910A01B0910B013091D1
:1001B000070123E0230F2D3758F50196A11DB11D2E
:1001C000209307018093080190930901A0930A01ED
:1001D000B0930B018091030190910401A09105015E
:1001E000B09106010196A11DB11D8093030190936A
:1001F0000401A0930501B0930601BF91AF919F91B7
:100200008F913F912F910F900FBE0F901F901895D7
:1002100026E8230F0296A11DB11DD2CFCF93DF9305
:1002200090E0FC01E057FF4F249184589F4FFC0160
:1002300084918823D1F090E0880F991FFC01E85940
:10024000FF4FA591B491FC01EE58FF4FC591D49199
:1002500061110EC09FB7F8948C91E22FE0958E2328
:100260008C932881E223E8839FBFDF91CF9108958B
:100270008FB7F894EC91E22BEC938FBFF6CF789484
:1002800084B5826084BD84B5816084BD85B582609B
:1002900085BD85B5816085BD80916E00816080934C
:1002A0006E001092810080918100826080938100B5
:1002B00080918100816080938100809180008160C5
:1002C000809380008091B10084608093B100809120
:1002D000B00081608093B00080917A008460809348
:1002E0007A0080917A00826080937A0080917A000F
:1002F000816080937A0080917A00806880937A0090
:100300001092C100C0E0D0E02097F1F30E940000FD
:10031000FBCFE0E0F1E088E0808387E0818386E046
:10032000828388E00E947C0061E088E00E940E01E8
:1003300060E087E00E940E0186E00E947C0061E0A0
:1003400086E00C940E01EE0FFF1F0590F491E02D56
:060350000994F894FFCFB0
:00000001FF
