:100000000C9462000C948A000C948A000C948A0070
:100010000C948A000C948A000C948A000C948A0038
:100020000C948A000C948A000C948A000C948A0028
:100030000C948A000C948A000C948A000C948A0018
:100040000C94EA030C948A000C94B8030C94920369
:100050000C948A000C948A000C948A000C948A00F8
:100060000C948A000C948A000000000024002700F1
:100070002A0000000000250028002B0000000000DE
:1000800023002600290004040404040404040202DA
:100090000202020203030303030301020408102007
:1000A0004080010204081020010204081020000012
:1000B0000008000201000003040700000000000027
:1000C0000000340411241FBECFEFD8E0DEBFCDBF47
:1000D00011E0A0E0B1E0EEE5FCE002C005900D9279
:1000E000AC36B107D9F722E0ACE6B1E001C01D9211
:1000F000A532B207E1F710E0C2E6D0E004C02197D4
:10010000FE010E942706C136D107C9F70E94830469
:100110000C942D060C940000E5E7F1E0A089B1896C
:1001200082E08C93A485B5851C92A685B7858FEC5B
:100130008C93108EA489B58986E08C93A289B389AB
:100140008C9180618C93A289B3898C9188608C9307
:10015000A289B3898C9180688C930288F389E02D01
:1001600080818F7D80830895AF92BF92CF92DF927E
:10017000EF92FF920F931F93CF93DF936C017B015C
:100180008B01040F151FEB015E01AE18BF08C017ED
:10019000D10759F06991D601ED91FC910190F08160
:1001A000E02DC6010995892B79F7C501DF91CF9123
:1001B0001F910F91FF90EF90DF90CF90BF90AF9085
:1001C0000895FC01538D448D252F30E0842F90E05D
:1001D000821B930B541710F0CF9608950197089542
:1001E000FC01918D828D981761F0A28DAE0FBF2F0B
:1001F000B11D5D968C91928D9F5F9F73928F90E061
:1002000008958FEF9FEF0895FC01918D828D9817CF
:1002100031F0828DE80FF11D858D90E008958FEF0C
:100220009FEF0895FC01918D228D892F90E0805CD5
:100230009F4F821B91098F739927089585E791E05D
:100240000E94120121E0892B09F420E0822F0895F9
:1002500080E090E0892B29F00E941E0181110C940E
:1002600000000895FC01A48DA80FB92FB11DA35A59
:10027000BF4F2C91848D90E001968F739927848FC6
:10028000A689B7892C93A089B1898C9183708064E9
:100290008C93938D848D981306C00288F389E02D8A
:1002A00080818F7D80830895EF92FF920F931F933B
:1002B000CF93DF93EC0181E0888F9B8D8C8D981319
:1002C0001AC0E889F989808185FF15C09FB7F89425
:1002D000EE89FF896083E889F98980818370806471
:1002E00080839FBF81E090E0DF91CF911F910F91BC
:1002F000FF90EF900895F62E0B8D10E00F5F1F4FCB
:100300000F731127E02E8C8D8E110CC00FB607FCD9
:10031000FACFE889F989808185FFF5CFCE010E9467
:100320003201F1CFEB8DEC0FFD2FF11DE35AFF4FA2
:10033000F0829FB7F8940B8FEA89FB8980818062F5
:10034000CFCFCF93DF93EC01888D8823B9F0AA89B2
:10035000BB89E889F9898C9185FD03C0808186FD80
:100360000DC00FB607FCF7CF8C9185FFF2CF8081CF
:1003700085FFEDCFCE010E943201E9CFDF91CF9111
:100380000895833081F028F4813099F08230A9F00B
:1003900008958730A9F08830C9F08430B1F4809195
:1003A00080008F7D03C0809180008F7780938000D4
:1003B000089584B58F7784BD089584B58F7DFBCF74
:1003C0008091B0008F778093B00008958091B00045
:1003D0008F7DF9CF1F93CF93DF93282F30E0F90162
:1003E000E255FF4F8491F901E656FF4FD491F90190
:1003F000EA57FF4FC491CC23A9F0162F81110E9418
:10040000C101EC2FF0E0EE0FFF1FEE58FF4FA5915A
:10041000B4918FB7F894EC91111108C0D095DE23F8
:10042000DC938FBFDF91CF911F910895DE2BF8CF22
:10043000CF93DF9390E0FC01E656FF4F24918A575B
:100440009F4FFC0184918823D1F090E0880F991F81
:10045000FC01E859FF4FA591B491FC01EE58FF4F04
:10046000C591D49161110EC09FB7F8948C91E22F81
:10047000E0958E238C932881E223E8839FBFDF9150
:10048000CF9108958FB7F894EC91E22BEC938FBF46
:10049000F6CF3FB7F8948091710190917201A091CD
:1004A0007301B091740126B5A89B05C02F3F19F0C8
:1004B0000196A11DB11D3FBFBA2FA92F982F8827E4
:1004C000BC01CD01620F711D811D911D42E0660FBF
:1004D000771F881F991F4A95D1F70895FF920F93B0
:1004E0001F93CF93DF9360E080911B020E9418025C
:1004F00000E0D0E0C0E020911B0230E0F901E255BD
:10050000FF4F8491F901E656FF4FF490F901EA5745
:10051000FF4F1491112369F181110E94C101E12F54
:10052000F0E0EE0FFF1FE458FF4FA591B491EC915E
:10053000FE2231E009F430E0832F0C2E01C0880F39
:100540000A94EAF7082B61E080911C020E94EA01FC
:1005500060E080911C020E94EA012196C830D1051A
:1005600009F0C9CF802FDF91CF911F910F91FF909C
:10057000089580E0E2CF0F931F93CF93DF93D82F9E
:1005800061E080911B020E94180210911C020091F0
:100590001B02C8E06D2F6170802F0E94EA01D69582
:1005A00061E0812F0E94EA0160E0812F0E94EA0150
:1005B000C15081F7DF91CF911F910F9108950F9353
:1005C0001F93CF93DF93182F062FCAE1D2E060E08C
:1005D0008A810E94EA0161E088810E94EA01812FFC
:1005E000880F80680E94BB02802F0E94BB0260E0DF
:1005F0008881DF91CF911F910F910C94EA010F93A5
:100600001F93CF93DF93CDB7DEB728970FB6F8943B
:10061000DEBF0FBECDBF60E080911C020E94EA01E8
:1006200061E080911A020E94EA018FEB0E94BB02F6
:100630000DE112E00E946E02F80181938F01F2E059
:1006400005321F07B9F760E080911A020E94EA01A3
:1006500040911D02842F829587705AE04F70859FCC
:10066000400D112430911E02832F829587703F70B8
:10067000859F300D112460911F02862F90E0262F58
:100680002F7067FF38C065FB882780F99CE0899F41
:10069000200D11245091200260912102F09122023C
:1006A00080912302952F929597707AE05F70979FC3
:1006B000500D1124E62FE295E7706F70E79F600DF3
:1006C0001124982F92959F708F70979F800D112401
:1006D00090E08053984F9F838E83782F8F819F2F38
:1006E00028960FB6F894DEBF0FBECDBFDF91CF9135
:1006F0001F910F91089564E0959587956A95E1F7AC
:100700008370859F200D1124C5CFFC01019000202E
:10071000E9F73197AF01481B590BBC0185E791E020
:100720000C94B4001F920F920FB60F9211242F93C6
:100730003F934F935F936F937F938F939F93AF9369
:10074000BF93EF93FF9385E791E00E943201FF9101
:10075000EF91BF91AF919F918F917F916F915F9139
:100760004F913F912F910F900FBE0F901F901895B2
:100770001F920F920FB60F9211242F938F939F9376
:10078000EF93FF93E0918501F09186018081E091E4
:100790008B01F0918C0182FD1BC0908180918E01B4
:1007A0008F5F8F7320918F01821741F0E0918E014E
:1007B000F0E0EB58FE4F958F80938E01FF91EF9103
:1007C0009F918F912F910F900FBE0F901F901895B2
:1007D0008081F4CF1F920F920FB60F9211242F93A6
:1007E0003F938F939F93AF93BF9380916D019091AF
:1007F0006E01A0916F01B091700130916C0123E006
:10080000230F2D3758F50196A11DB11D20936C01C2
:1008100080936D0190936E01A0936F01B09370016E
:100820008091710190917201A0917301B091740156
:100830000196A11DB11D8093710190937201A09347
:100840007301B0937401BF91AF919F918F913F91CC
:100850002F910F900FBE0F901F90189526E8230F31
:100860000296A11DB11DD2CFCF93DF93E5E7F1E052
:100870001382128288EE93E0A0E0B0E08483958337
:10088000A683B78382E191E09183808385EC90E039
:100890009587848784EC90E09787868780EC90E04A
:1008A000918B808B81EC90E0938B828B82EC90E03B
:1008B000958B848B86EC90E0978B868B118E128EB5
:1008C000138E148ECAE1D2E088E0888387E08983A2
:1008D00086E08A8361E088E00E94180261E08A81F4
:1008E0000E941802E2E1F2E08AED97E096838583A8
:1008F00081E08483838310821182128285E0878362
:10090000DF91CF910895CF93DF93CDB7DEB72897CE
:100910000FB6F894DEBF0FBECDBF789484B5826069
:1009200084BD84B5816084BD85B5826085BD85B593
:10093000816085BD80916E00816080936E00109211
:10094000810080918100826080938100809181008C
:10095000816080938100809180008160809380001D
:100960008091B10084608093B1008091B00081607B
:100970008093B00080917A00846080937A008091A7
:100980007A00826080937A0080917A0081608093FF
:100990007A0080917A00806880937A001092C1007A
:1009A0000E948C0060E080911C020E94EA0161E0DC
:1009B00080911A020E94EA0181E80E94BB020E9413
:1009C0006E02182F60E080911A020E94EA01612FE6
:1009D0006F7780E00E94DF0260E087E00E94DF0224
:1009E0000E948C001AE02EE2222E34E6E32EF12C37
:1009F0004AE0C42ED12C5AE3352E00E30E94FF02B8
:100A00009150973008F0ECC0E92FF0E0EE0FFF1F97
:100A1000E050FF4F80819181009711F00E94850383
:100A20008EE291E00E9485030E94FF026D837E8327
:100A30008F835A3008F0AFC000932001852F612FBB
:100A40000E94F305905D90932101209222012D8157
:100A50002A3008F0A8C000932301822F612F0E9442
:100A6000F305905D90932401209225012E813F8112
:100A7000C90168EE73E00E94FF05605D6093260186
:100A8000B7010E94FF05605D60932701C901B701AE
:100A90000E94FF05B6010E94FF05605D609328017A
:100AA000C901B6010E94FF05805D80932901109263
:100AB0002A0180E291E00E9485038BE291E00E948E
:100AC00085030E94FF023A834B832A3008F072C0EC
:100AD00000932201822F612F0E94F305905D909375
:100AE0002301309224012A812A3008F06BC0009340
:100AF0002501822F612F0E94F305905D90932601BE
:100B0000309227012B812A3008F063C0009328011E
:100B1000822F612F0E94F305905D9093290110921E
:100B20002A0182E291E00E94850380E391E00E9425
:100B300085030E9449024B015C0188EE482E83E048
:100B4000582E612C712C0E944902681979098A0972
:100B50009B09683E734081059105A8F321E0421A84
:100B600051086108710888EE880E83E0981EA11C68
:100B7000B11C411451046104710429F780E090E034
:100B8000892B09F43BCF0E941E01882309F436CF3C
:100B90000E94000033CF852F612F0E94F305805DF6
:100BA000809320014BCF822F0E94F305805D8093BC
:100BB000230153CF822F612F0E94F305805D809324
:100BC000220188CF822F0E94F305805D809325014A
:100BD00090CF822F0E94F305805D8093280198CFEB
:100BE00081E291E01BCF991B79E004C0991F961711
:100BF00008F0961B881F7A95C9F78095089597FB92
:100C0000072E16F4009407D077FD09D00E94130632
:100C100007FC05D03EF4909581959F4F08957095FF
:100C200061957F4F0895AA1BBB1B51E107C0AA1F06
:100C3000BB1FA617B70710F0A61BB70B881F991F7D
:100C40005A95A9F780959095BC01CD010895EE0FB6
:0E0C5000FF1F0590F491E02D0994F894FFCF5A
:100C5E0033013A0142014C0155015C01650100006E
:100C6E0000005401B400E100A1011201F0000401E2
:100C7E007878787878787878787800202D2D20001C
:100C8E000D0A004D6F6E6461790054756573646171
:100C9E0079005765646E6573646179005468757286
:100CAE007364617900467269646179005361747589
:0C0CBE00726461790053756E6461790006
:107E0000112484B714BE81FFF0D085E080938100F7
:107E100082E08093C00088E18093C10086E0809377
:107E2000C20080E18093C4008EE0C9D0259A86E02C
:107E300020E33CEF91E0309385002093840096BBD3
:107E4000B09BFECF1D9AA8958150A9F7CC24DD24C4
:107E500088248394B5E0AB2EA1E19A2EF3E0BF2EE7
:107E6000A2D0813461F49FD0082FAFD0023811F036
:107E7000013811F484E001C083E08DD089C08234E0
:107E800011F484E103C0853419F485E0A6D080C0E4
:107E9000853579F488D0E82EFF2485D0082F10E0AE
:107EA000102F00270E291F29000F111F8ED06801E7
:107EB0006FC0863521F484E090D080E0DECF843638
:107EC00009F040C070D06FD0082F6DD080E0C81688
:107ED00080E7D80618F4F601B7BEE895C0E0D1E017
:107EE00062D089930C17E1F7F0E0CF16F0E7DF06D8
:107EF00018F0F601B7BEE89568D007B600FCFDCFD4
:107F0000A601A0E0B1E02C9130E011968C91119780
:107F100090E0982F8827822B932B1296FA010C0160
:107F200087BEE89511244E5F5F4FF1E0A038BF0790
:107F300051F7F601A7BEE89507B600FCFDCF97BE46
:107F4000E89526C08437B1F42ED02DD0F82E2BD052
:107F50003CD0F601EF2C8F010F5F1F4F84911BD097
:107F6000EA94F801C1F70894C11CD11CFA94CF0C13
:107F7000D11C0EC0853739F428D08EE10CD085E9AC
:107F80000AD08FE07ACF813511F488E018D01DD067
:107F900080E101D065CF982F8091C00085FFFCCF94
:107FA0009093C60008958091C00087FFFCCF809118
:107FB000C00084FD01C0A8958091C6000895E0E648
:107FC000F0E098E1908380830895EDDF803219F02E
:107FD00088E0F5DFFFCF84E1DECF1F93182FE3DFCA
:107FE0001150E9F7F2DF1F91089580E0E8DFEE27F6
:047FF000FF270994CA
:027FFE00040479
:0400000300007E007B
:00000001FF
