:100000000C9462000C948A000C948A000C948A0070
:100010000C948A000C948A000C948A000C948A0038
:100020000C948A000C948A000C948A000C948A0028
:100030000C948A000C948A000C948A000C948A0018
:100040000C9490030C948A000C945E030C94380377
:100050000C948A000C948A000C948A000C948A00F8
:100060000C948A000C948A000000000024002700F1
:100070002A0000000000250028002B0000000000DE
:1000800023002600290004040404040404040202DA
:100090000202020203030303030301020408102007
:1000A0004080010204081020010204081020000012
:1000B0000008000201000003040700000000000027
:1000C0000000DA0311241FBECFEFD8E0DEBFCDBFA2
:1000D00011E0A0E0B1E0ECECFBE002C005900D9275
:1000E000A631B107D9F721E0A6E1B1E001C01D9228
:1000F000AF3CB207E1F710E0C2E6D0E004C02197C0
:10010000FE010E94DE05C136D107C9F70E9429040D
:100110000C94E4050C940000AF92BF92CF92DF9252
:10012000EF92FF920F931F93CF93DF936C017B01AC
:100130008B01040F151FEB015E01AE18BF08C0173D
:10014000D10759F06991D601ED91FC910190F081B0
:10015000E02DC6010995892B79F7C501DF91CF9173
:100160001F910F91FF90EF90DF90CF90BF90AF90D5
:100170000895FC01538D448D252F30E0842F90E0AD
:10018000821B930B541710F0CF9608950197089592
:10019000FC01918D828D981761F0A28DAE0FBF2F5B
:1001A000B11D5D968C91928D9F5F9F73928F90E0B1
:1001B00008958FEF9FEF0895FC01918D828D981720
:1001C00031F0828DE80FF11D858D90E008958FEF5D
:1001D0009FEF0895FC01918D228D892F90E0805C26
:1001E0009F4F821B91098F73992708958FE191E0AA
:1001F0000E94EA0021E0892B09F420E0822F089573
:1002000080E090E0892B29F00E94F60081110C9487
:1002100000000895FC01A48DA80FB92FB11DA35AA9
:10022000BF4F2C91848D90E001968F739927848F16
:10023000A689B7892C93A089B1898C918370806439
:100240008C93938D848D981306C00288F389E02DDA
:1002500080818F7D80830895EF92FF920F931F938B
:10026000CF93DF93EC0181E0888F9B8D8C8D981369
:100270001AC0E889F989808185FF15C09FB7F89475
:10028000EE89FF896083E889F989808183708064C1
:1002900080839FBF81E090E0DF91CF911F910F910C
:1002A000FF90EF900895F62E0B8D10E00F5F1F4F1B
:1002B0000F731127E02E8C8D8E110CC00FB607FC2A
:1002C000FACFE889F989808185FFF5CFCE010E94B8
:1002D0000A01F1CFEB8DEC0FFD2FF11DE35AFF4F1B
:1002E000F0829FB7F8940B8FEA89FB898081806246
:1002F000CFCFCF93DF93EC01888D8823B9F0AA8903
:10030000BB89E889F9898C9185FD03C0808186FDD0
:100310000DC00FB607FCF7CF8C9185FFF2CF80811F
:1003200085FFEDCFCE010E940A01E9CFDF91CF9189
:100330000895833081F028F4813099F08230A9F05B
:1003400008958730A9F08830C9F08430B1F48091E5
:1003500080008F7D03C0809180008F778093800024
:10036000089584B58F7784BD089584B58F7DFBCFC4
:100370008091B0008F778093B00008958091B00095
:100380008F7DF9CF1F93CF93DF93282F30E0F901B2
:10039000E255FF4F8491F901E656FF4FD491F901E0
:1003A000EA57FF4FC491CC23A9F0162F81110E9468
:1003B0009901EC2FF0E0EE0FFF1FEE58FF4FA591D3
:1003C000B4918FB7F894EC91111108C0D095DE2349
:1003D000DC938FBFDF91CF911F910895DE2BF8CF73
:1003E000CF93DF9390E0FC01E656FF4F24918A57AC
:1003F0009F4FFC0184918823D1F090E0880F991FD2
:10040000FC01E859FF4FA591B491FC01EE58FF4F54
:10041000C591D49161110EC09FB7F8948C91E22FD1
:10042000E0958E238C932881E223E8839FBFDF91A0
:10043000CF9108958FB7F894EC91E22BEC938FBF96
:10044000F6CF3FB7F89480911B0190911C01A091C9
:100450001D01B0911E0126B5A89B05C02F3F19F0C4
:100460000196A11DB11D3FBFBA2FA92F982F882734
:10047000BC01CD01620F711D811D911D42E0660F0F
:10048000771F881F991F4A95D1F70895FF920F9300
:100490001F93CF93DF9360E08091C5010E94F0012C
:1004A00000E0D0E0C0E02091C50130E0F901E25564
:1004B000FF4F8491F901E656FF4FF490F901EA5796
:1004C000FF4F1491112369F181110E949901E12FCD
:1004D000F0E0EE0FFF1FE458FF4FA591B491EC91AF
:1004E000FE2231E009F430E0832F0C2E01C0880F8A
:1004F0000A94EAF7082B61E08091C6010E94C201CC
:1005000060E08091C6010E94C2012196C830D105E9
:1005100009F0C9CF802FDF91CF911F910F91FF90EC
:10052000089580E0E2CF0F931F93CF93DF93D82FEE
:1005300061E08091C5010E94F0011091C601009117
:10054000C501C8E06D2F6170802F0E94C201D69551
:1005500061E0812F0E94C20160E0812F0E94C201F0
:10056000C15081F7DF91CF911F910F9108950F93A3
:100570001F93CF93DF93182F062FC4ECD1E060E0D8
:100580008A810E94C20161E088810E94C201812F9C
:10059000880F80680E949302802F0E94930260E07F
:1005A0008881DF91CF911F910F910C94C2018F929E
:1005B0009F92AF92BF920F931F93CF93DF93CDB7CC
:1005C000DEB7A1970FB6F894DEBF0FBECDBF19A25C
:1005D000423008F44AE08E010F5D1F4F842E912CAB
:1005E000B12CA12CA50194010E94BC05E62FB901F4
:1005F000CA01EA3044F5E05DD801EE938D01232B6A
:10060000242B252B79F790E080E0109769F0FD010D
:1006100001900020E9F73197AF014A1B5B0BBD0148
:100620008FE191E00E948C00A1960FB6F894DEBF96
:100630000FBECDBFDF91CF911F910F91BF90AF90B3
:100640009F908F900895E95CD7CF4AE060E070E01A
:10065000CB010C94D702FC0101900020E9F73197FF
:10066000AF01481B590BBC018FE191E00C948C0049
:100670001F920F920FB60F9211242F933F934F9317
:100680005F936F937F938F939F93AF93BF93EF93FA
:10069000FF938FE191E00E940A01FF91EF91BF91DA
:1006A000AF919F918F917F916F915F914F913F910A
:1006B0002F910F900FBE0F901F9018951F920F92C1
:1006C0000FB60F9211242F938F939F93EF93FF9365
:1006D000E0912F01F09130018081E0913501F0919E
:1006E000360182FD1BC09081809138018F5F8F732E
:1006F00020913901821741F0E0913801F0E0E15E8C
:10070000FE4F958F80933801FF91EF919F918F91CC
:100710002F910F900FBE0F901F9018958081F4CFEE
:100720001F920F920FB60F9211242F933F938F9326
:100730009F93AF93BF938091170190911801A0915F
:100740001901B0911A013091160123E0230F2D37C2
:1007500058F50196A11DB11D209316018093170134
:1007600090931801A0931901B0931A0180911B0175
:1007700090911C01A0911D01B0911E010196A11D37
:10078000B11D80931B0190931C01A0931D01B09398
:100790001E01BF91AF919F918F913F912F910F902B
:1007A0000FBE0F901F90189526E8230F0296A11DEB
:1007B000B11DD2CFCF93DF93EFE1F1E0138212822C
:1007C00088EE93E0A0E0B0E084839583A683B783AE
:1007D00084E091E09183808385EC90E09587848725
:1007E00084EC90E09787868780EC90E0918B808BFB
:1007F00081EC90E0938B828B82EC90E0958B848BE4
:1008000086EC90E0978B868B118E128E138E148E51
:10081000C4ECD1E088E0888387E0898386E08A831E
:1008200061E088E00E94F00161E08A810E94F001AD
:10083000ECEBF1E08AED97E09683858381E0848399
:10084000838310821182128285E08783DF91CF91AA
:100850000895789484B5826084BD84B5816084BD38
:1008600085B5826085BD85B5816085BD80916E004E
:10087000816080936E00109281008091810082607F
:1008800080938100809181008160809381008091BC
:1008900080008160809380008091B10084608093AB
:1008A000B1008091B00081608093B00080917A00A7
:1008B000846080937A0080917A00826080937A00CD
:1008C00080917A00816080937A0080917A008068BC
:1008D00080937A001092C10060E08091C6010E946E
:1008E000C20161E08091C4010E94C20181E80E94BE
:1008F00093020E944602C82F60E08091C4010E94CA
:10090000C2016C2F6F7780E00E94B70260E087E041
:100910000E94B702E0912F01F091300182E08083C4
:10092000E0912B01F0912C011082E0912D01F091CA
:100930002E018FEC808310923701E0913301F0910A
:10094000340186E08083E0913101F09132018081B1
:1009500080618083E0913101F09132018081886073
:100960008083E0913101F091320180818068808341
:10097000E0913101F091320180818F7D808361E0CF
:1009800084E00E94F001CFECD1E04AE0F42E5CE07C
:10099000E52E00E010E060E08091C6010E94C201F7
:1009A00061E08091C4010E94C2018FEB0E9493021A
:1009B00037ECA32E31E0B32E0E944602F50181935D
:1009C0005F01CE17DF07C1F760E08091C4010E948C
:1009D000C2018091C701982F929597708F70382F20
:1009E0009F9D300D11248091C801982F929597708A
:1009F0008F70482F9F9D400D11242091C901822F97
:100A000090E0522F5F7027FFADC025FB882780F94B
:100A1000E89E500D11242091CA019091CB01609164
:100A2000CC018091CD015093BC014093BD01309326
:100A3000BE01322F329537702F703F9D200D11244B
:100A40002093BF01292F229527709F702F9D900D15
:100A500011249093C001982F92959F708F709F9D45
:100A6000800D112490E08053984F9093C2018093A1
:100A7000C1016093C30182E191E00E942B03809148
:100A8000BC018A3010F40E9425036091BC0170E023
:100A900090E080E04AE00E94D70284E191E00E9469
:100AA0002B038091BD018A3010F40E9425036091D0
:100AB000BD0170E090E080E04AE00E94D70284E14E
:100AC00091E00E942B038091BE018A3010F40E94B5
:100AD00025036091BE0170E090E080E04AE00E9452
:100AE000D7028091BC018C3089F58091BD0189319C
:100AF00069F58091BE018A3049F561E084E00E9489
:100B0000C2010E9421022B013C0184EF882E99240E
:100B10009394A12CB12C0E942102641975098609B5
:100B20009709683E734081059105A8F3F1E08F1A9B
:100B30009108A108B10828EE420E23E0521E611C64
:100B4000711C81149104A104B10429F70115110548
:100B500009F421CF0E94F600882309F41CCF0E94DB
:100B6000000019CF24E0959587952A95E1F78370C9
:100B70008F9D500D11244FCFA1E21A2EAA1BBB1B33
:100B8000FD010DC0AA1FBB1FEE1FFF1FA217B30759
:100B9000E407F50720F0A21BB30BE40BF50B661F6F
:100BA000771F881F991F1A9469F760957095809533
:100BB00090959B01AC01BD01CF010895EE0FFF1F81
:0C0BC0000590F491E02D0994F894FFCF0B
:100BCC00000000002C018C00B9007901EA00C8007B
:060BDC00DC000A003A00F3
:107E0000112484B714BE81FFF0D085E080938100F7
:107E100082E08093C00088E18093C10086E0809377
:107E2000C20080E18093C4008EE0C9D0259A86E02C
:107E300020E33CEF91E0309385002093840096BBD3
:107E4000B09BFECF1D9AA8958150A9F7CC24DD24C4
:107E500088248394B5E0AB2EA1E19A2EF3E0BF2EE7
:107E6000A2D0813461F49FD0082FAFD0023811F036
:107E7000013811F484E001C083E08DD089C08234E0
:107E800011F484E103C0853419F485E0A6D080C0E4
:107E9000853579F488D0E82EFF2485D0082F10E0AE
:107EA000102F00270E291F29000F111F8ED06801E7
:107EB0006FC0863521F484E090D080E0DECF843638
:107EC00009F040C070D06FD0082F6DD080E0C81688
:107ED00080E7D80618F4F601B7BEE895C0E0D1E017
:107EE00062D089930C17E1F7F0E0CF16F0E7DF06D8
:107EF00018F0F601B7BEE89568D007B600FCFDCFD4
:107F0000A601A0E0B1E02C9130E011968C91119780
:107F100090E0982F8827822B932B1296FA010C0160
:107F200087BEE89511244E5F5F4FF1E0A038BF0790
:107F300051F7F601A7BEE89507B600FCFDCF97BE46
:107F4000E89526C08437B1F42ED02DD0F82E2BD052
:107F50003CD0F601EF2C8F010F5F1F4F84911BD097
:107F6000EA94F801C1F70894C11CD11CFA94CF0C13
:107F7000D11C0EC0853739F428D08EE10CD085E9AC
:107F80000AD08FE07ACF813511F488E018D01DD067
:107F900080E101D065CF982F8091C00085FFFCCF94
:107FA0009093C60008958091C00087FFFCCF809118
:107FB000C00084FD01C0A8958091C6000895E0E648
:107FC000F0E098E1908380830895EDDF803219F02E
:107FD00088E0F5DFFFCF84E1DECF1F93182FE3DFCA
:107FE0001150E9F7F2DF1F91089580E0E8DFEE27F6
:047FF000FF270994CA
:027FFE00040479
:0400000300007E007B
:00000001FF
