:100000000C9463000C948B000C948B000C948B006C
:100010000C948B000C948B000C948B000C948B0034
:100020000C948B000C948B000C948B000C948B0024
:100030000C948B000C948B000C948B000C948B0014
:100040000C945C030C948B000C942A030C94040312
:100050000C948B000C948B000C948B000C948B00F4
:100060000C948B000C948B000000000024002700EF
:100070002A0000000000250028002B0000000000DE
:1000800023002600290004040404040404040202DA
:100090000202020203030303030301020408102007
:1000A0004080010204081020010204081020000012
:1000B0000008000201000003040700000000000027
:1000C0000000A603D30511241FBECFEFD8E0DEBF8A
:1000D000CDBF21E0ACE2B1E001C01D92AB3FB20761
:1000E000E1F711E0A0E0B1E0EAE5F0E102C005903F
:1000F0000D92AC32B107D9F710E0C2E6D0E004C0EF
:100100002197FE010E941F06C136D107C9F70E9440
:100110000D040C9420080C940000AF92BF92CF9273
:10012000DF92EF92FF920F931F93CF93DF936C01B7
:100130007B018B01040F151FEB015E01AE18BF0898
:10014000C017D10759F06991D601ED91FC9101904A
:10015000F081E02DC6010995892B79F7C501DF9162
:10016000CF911F910F91FF90EF90DF90CF90BF90B4
:10017000AF900895FC01538D448D252F30E0842FDE
:1001800090E0821B930B541710F0CF9608950197BF
:100190000895FC01918D828D981761F0A28DAE0FAC
:1001A000BF2FB11D5D968C91928D9F5F9F73928F33
:1001B00090E008958FEF9FEF0895FC01918D828D5F
:1001C000981731F0828DE80FF11D858D90E008952C
:1001D0008FEF9FEF0895FC01918D228D892F90E084
:1001E000805C9F4F821B91098F739927089589E343
:1001F00091E00E94EB0021E0892B09F420E0822F9E
:10020000089580E090E0892B29F00E94F700811189
:100210000C9400000895FC01A48DA80FB92FB11D06
:10022000A35ABF4F2C91848D90E001968F7399272C
:10023000848FA689B7892C93A089B1898C9183700A
:1002400080648C93938D848D981306C00288F38903
:10025000E02D80818F7D80830895EF92FF920F9330
:100260001F93CF93DF93EC0181E0888F9B8D8C8D62
:1002700098131AC0E889F989808185FF15C09FB756
:10028000F894EE89FF896083E889F9898081837019
:10029000806480839FBF81E090E0DF91CF911F91C8
:1002A0000F91FF90EF900895F62E0B8D10E00F5FE9
:1002B0001F4F0F731127E02E8C8D8E110CC00FB6BF
:1002C00007FCFACFE889F989808185FFF5CFCE0157
:1002D0000E940B01F1CFEB8DEC0FFD2FF11DE35AC6
:1002E000FF4FF0829FB7F8940B8FEA89FB898081DA
:1002F0008062CFCFCF93DF93EC01888D8823B9F054
:10030000AA89BB89E889F9898C9185FD03C0808120
:1003100086FD0DC00FB607FCF7CF8C9185FFF2CF9D
:10032000808185FFEDCFCE010E940B01E9CFDF91E7
:10033000CF910895833081F028F4813099F0823094
:10034000A9F008958730A9F08830C9F08430B1F45D
:10035000809180008F7D03C0809180008F77809393
:100360008000089584B58F7784BD089584B58F7D0E
:10037000FBCF8091B0008F778093B000089580917B
:10038000B0008F7DF9CF1F93CF93DF93282F30E0FC
:10039000F901E255FF4F8491F901E656FF4FD491E0
:1003A000F901EA57FF4FC491CC23A9F0162F811110
:1003B0000E949A01EC2FF0E0EE0FFF1FEE58FF4F66
:1003C000A591B4918FB7F894EC91111108C0D09514
:1003D000DE23DC938FBFDF91CF911F910895DE2B39
:1003E000F8CFCF93DF9390E0FC01E656FF4F2491C6
:1003F0008A579F4FFC0184918823D1F090E0880FA9
:10040000991FFC01E859FF4FA591B491FC01EE58EA
:10041000FF4FC591D49161110EC09FB7F8948C9194
:10042000E22FE0958E238C932881E223E8839FBFFF
:10043000DF91CF9108958FB7F894EC91E22BEC9374
:100440008FBFF6CFFF920F931F93CF93DF9360E0A0
:100450008091E7010E94F10100E0D0E0C0E020912E
:10046000E70130E0F901E255FF4F8491F901E656CA
:10047000FF4FF490F901EA57FF4F1491112369F1EE
:1004800081110E949A01E12FF0E0EE0FFF1FE45866
:10049000FF4FA591B491EC91FE2231E009F430E0D8
:1004A000832F0C2E01C0880F0A94EAF7082B61E015
:1004B0008091E8010E94C30160E08091E8010E9400
:1004C000C3012196C830D10509F0C9CF802FDF9133
:1004D000CF911F910F91FF90089580E0E2CF0F938D
:1004E0001F93CF93DF93D82F61E08091E7010E94A3
:1004F000F1011091E8010091E701C8E06D2F6170F2
:10050000802F0E94C301D69561E0812F0E94C30114
:1005100060E0812F0E94C301C15081F7DF91CF912C
:100520001F910F9108950F931F93CF93DF93182F6F
:10053000062FC6EED1E060E08A810E94C30161E02F
:1005400088810E94C301812F880F80680E946F02FA
:10055000802F0E946F0260E08881DF91CF911F9110
:100560000F910C94C3010F931F93CF93DF938C01D2
:10057000EB018091F1019091F201009739F0209107
:10058000F3013091F40126173707B8F4BE016F5F0D
:100590007F4F0E944A070097E1F09093F201809309
:1005A000F101D093F401C093F3012091F501309152
:1005B000F601232B11F4FC011082D093F601C093B5
:1005C000F501B8018091F1019091F2010E941908A2
:1005D00014C08091F1019091F201009711F00E94F6
:1005E000C1061092F2011092F1011092F6011092E0
:1005F000F5011092F4011092F30181EF91E0DF9187
:10060000CF911F910F9108951F920F920FB60F92E5
:1006100011242F933F934F935F936F937F938F9307
:100620009F93AF93BF93EF93FF9389E391E00E9471
:100630000B01FF91EF91BF91AF919F918F917F91AE
:100640006F915F914F913F912F910F900FBE0F903F
:100650001F9018951F920F920FB60F9211242F938F
:100660008F939F93EF93FF93E0914901F0914A019B
:100670008081E0914F01F091500182FD1BC090817B
:10068000809152018F5F8F7320915301821741F047
:10069000E0915201F0E0E75CFE4F958F80935201AC
:1006A000FF91EF919F918F912F910F900FBE0F901F
:1006B0001F9018958081F4CF1F920F920FB60F9262
:1006C00011242F933F938F939F93AF93BF93809168
:1006D000310190913201A0913301B09134013091F8
:1006E000300123E0230F2D3758F50196A11DB11DD0
:1006F000209330018093310190933201A093330114
:10070000B093340180912C0190912D01A0912E0184
:10071000B0912F010196A11DB11D80932C019093E2
:100720002D01A0932E01B0932F01BF91AF919F9106
:100730008F913F912F910F900FBE0F901F901895A2
:1007400026E8230F0296A11DB11DD2CFCF93DF93D0
:10075000E9E3F1E01382128288EE93E0A0E0B0E0DA
:1007600084839583A683B7838AE091E09183808315
:1007700085EC90E09587848784EC90E09787868766
:1007800080EC90E0918B808B81EC90E0938B828B5E
:1007900082EC90E0958B848B86EC90E0978B868B37
:1007A000118E128E138E148EE1EFF1E01182108201
:1007B000138212821582148262E070E088E191E077
:1007C0000E94B302C6EED1E088E0888387E0898387
:1007D00086E08A8361E088E00E94F10161E08A811D
:1007E0000E94F101EEEDF1E02AED37E0368325833A
:1007F00081E08483838310821182128295E0978343
:10080000E6EDF1E0368325838483838310821182B1
:1008100012829783DF91CF910895789484B5826096
:1008200084BD84B5816084BD85B5826085BD85B594
:10083000816085BD80916E00816080936E00109212
:10084000810080918100826080938100809181008D
:10085000816080938100809180008160809380001E
:100860008091B10084608093B1008091B00081607C
:100870008093B00080917A00846080937A008091A8
:100880007A00826080937A0080917A008160809300
:100890007A0080917A00806880937A001092C1007B
:1008A00060E08091E8010E94C30161E08091E6016F
:1008B0000E94C30181E80E946F020E942202C82F99
:1008C00060E08091E6010E94C3016C2F6F7780E0A9
:1008D0000E94930260E087E00E949302E091490148
:1008E000F0914A0182E08083E0914501F091460158
:1008F0001082E0914701F09148018FEC80831092C3
:100900005101E0914D01F0914E0186E08083E0912C
:100910004B01F0914C01808180618083E0914B011B
:10092000F0914C01808188608083E0914B01F091CF
:100930004C01808180688083E0914B01F0914C01F3
:1009400080818F7D808366E182E00E94930260E176
:1009500081E00E94930260E280E00E949302CAE07C
:100960003CE0E32E00E010E04AE3F42ED0E38FB742
:10097000F8948090310190903201A0903301B090B2
:1009800034018FBF8091F5019091F601892B81F19F
:10099000C090F101D090F20168E171E0C6010E94BF
:1009A0001008892B09F0BDC0809135019091360166
:1009B000A0913701B0913801A5019401281B390B92
:1009C0004A0B5B0BDA01C901883E9340A105B105D2
:1009D0000CF4A7C063E070E08BE191E00E94B302E9
:1009E0008092350190923601A0923701B092380181
:1009F0008091F5019091F601892B09F486C06BE195
:100A000071E08091F1019091F2010E941008892B10
:100A100009F07BC060E08091E8010E94C30161E0C1
:100A20008091E6010E94C3018FEB0E946F0229EEC4
:100A3000C22E21E0D22E0E942202F60181936F0184
:100A4000F1EFCF16F1E0DF06B1F760E08091E6014B
:100A50000E94C3012091E901822F829587702F7037
:100A60008C9F200D11243091EA01832F829587708D
:100A70003F708C9F300D11249091EB01492F50E075
:100A8000892F8F7097FF70C095FB442740F9E49E33
:100A9000800D1124482F8A3008F070C0D0931F01B8
:100AA000842F6C2F0E941306905D90932001F0928A
:100AB00021013A3008F069C0D0932201832F6C2FB6
:100AC0000E941306905D90932301F09224012A3036
:100AD00008F062C0D0932501822F6C2F0E9413066C
:100AE000905D909326011092270148E050E06FE15D
:100AF00071E089E391E00E948D0042E050E068E2FD
:100B000071E089E391E00E948D000115110509F45F
:100B10002ECF0E94F700882309F429CF0E940000FD
:100B200026CF6BE171E0C6010E941008892B09F005
:100B30005FCF8091350190913601A0913701B0913E
:100B40003801A5019401281B390B4A0B5B0BDA0114
:100B5000C901883E9340A105B1050CF449CF62E07C
:100B600070E088E191E03ACF94E0559547959A95E9
:100B7000E1F743704C9F800D11248CCF6C2F0E94A5
:100B80001306805D80931F018BCF832F0E94130675
:100B9000805D8093220192CF822F0E941306805D98
:100BA0008093250199CF8091F1019091F2010097F6
:100BB00011F00C94C10608952F923F924F925F92CC
:100BC0006F927F928F929F92AF92BF92CF92DF925D
:100BD000EF92FF920F931F93CF93DF93CDB7DEB7C2
:100BE000CA1BDB0B0FB6F894DEBF0FBECDBF099456
:100BF0002A88398848885F846E847D848C849B84AD
:100C0000AA84B984C884DF80EE80FD800C811B81BA
:100C1000AA81B981CE0FD11D0FB6F894DEBF0FBEE9
:100C2000CDBFED010895991B79E004C0991F961777
:100C300008F0961B881F7A95C9F780950895EE0FE6
:100C4000FF1F0590F491E02D09940F931F93CF930C
:100C5000DF938230910510F482E090E0E091F90199
:100C6000F091FA0130E020E0B0E0A0E0309799F494
:100C70002115310509F44AC0281B390B24303105F0
:100C8000D8F58A819B816115710589F1FB019383F8
:100C90008283FE0111C04081518102811381481776
:100CA0005907E0F04817590799F4109761F0129628
:100CB0000C93129713961C933296CF01DF91CF912C
:100CC0001F910F9108950093F9011093FA01F4CF49
:100CD0002115310551F04217530738F0A901DB0106
:100CE0009A01BD01DF01F801C1CFEF01F9CF909367
:100CF000FA018093F901CDCFFE01E20FF31F81933A
:100D000091932250310939832883D7CF2091F7015D
:100D10003091F801232B41F420910201309103011D
:100D20003093F8012093F7012091000130910101E7
:100D30002115310541F42DB73EB740910401509182
:100D40000501241B350BE091F701F091F801E21742
:100D5000F307A0F42E1B3F0B2817390778F0AC01DE
:100D60004E5F5F4F2417350748F04E0F5F1F5093BB
:100D7000F8014093F701819391939FCFF0E0E0E079
:100D80009CCFCF93DF930097E9F0FC013297138259
:100D90001282A091F901B091FA01ED0130E020E05A
:100DA0001097A1F420813181820F931F2091F701C8
:100DB0003091F8012817390709F061C0F093F80164
:100DC000E093F701DF91CF910895EA01CE17DF0795
:100DD000E8F54A815B819E0141155105B1F7E901B2
:100DE000FB83EA8349915991C40FD51FEC17FD0786
:100DF00061F4808191810296840F951FE9019983A6
:100E00008883828193819B838A83F0E0E0E012965D
:100E10008D919C9113970097B9F52D913C91119765
:100E2000CD010296820F931F2091F7013091F801B6
:100E30002817390739F6309751F51092FA011092B8
:100E4000F901B093F801A093F701BCCFD383C2831B
:100E500040815181840F951FC817D90761F44E5FF7
:100E60005F4F88819981480F591F518340838A8140
:100E70009B81938382832115310509F0B0CFF093D4
:100E8000FA01E093F9019ECFFD01DC01C0CF13828E
:100E90001282D7CFB0E0A0E0E0E5F7E00C94DE05E9
:100EA0008C01009751F4CB010E9425068C01C801EA
:100EB000CDB7DEB7E0E10C94FA05FC01E60FF71FB1
:100EC0009C0122503109E217F30708F49DC0D901B3
:100ED000CD91DC911197C617D70798F0C530D10591
:100EE00030F3CE0104978617970708F3C61BD70B7C
:100EF0002297C193D1936D937C93CF010E94C10639
:100F0000D6CF5B01AC1ABD0A4C018C0E9D1EA09180
:100F1000F901B091FA01512C412CF12CE12C1097E0
:100F200031F58091F7019091F8018815990509F044
:100F30005CC04616570608F058C080910001909199
:100F40000101009741F48DB79EB740910401509183
:100F50000501841B950BE817F90708F055C0F093BD
:100F6000F801E093F701F90171836083A0CF8D91BF
:100F70009C91119712966C90129713967C901397F0
:100F8000A815B90559F56C0142E0C40ED11CCA146C
:100F9000DB0420F1AC014A195B09DA0112961597BE
:100FA00080F06282738251834083D9016D937C9378
:100FB000E114F10471F0D7011396FC93EE931297AC
:100FC00076CF22968C0F9D1FF90191838083F301C8
:100FD000EFCFF093FA01E093F90169CF4816590673
:100FE00008F42C017D01D3019ACFCB010E94250684
:100FF0007C01009749F0AE01B8010E940708C801C2
:101000000E94C106870153CF10E000E050CFFB01E2
:10101000DC0102C001900D9241505040D8F7089574
:10102000FB01DC018D91019080190110D9F3990B1E
:101030000895FB01DC0101900D920020E1F7089575
:1010400010E0C2E6D0E004C0FE010E941F06219617
:0A105000C336D107C9F7F894FFCFAB
:10105A000000FB018000000000002D018D00BA0095
:10106A007A01EB00C900DD006F6E006F66660078DA
:0C107A0078787878787878000D0A00000B
:00000001FF
