:100000000C945D000C9485000C9485000C94850084
:100010000C9485000C9485000C9485000C9485004C
:100020000C9485000C9485000C9485000C9485003C
:100030000C9485000C9485000C9485000C9485002C
:100040000C94AF020C9485000C947D020C94570222
:100050000C9485000C9485000C9485000C9485000C
:100060000C9485000C94850000000008000201003B
:100070000003040700000000000000000000000072
:10008000250028002B0000000000240027002A0083
:10009000040404040404040402020202020203032E
:1000A0000303030301020408102040800102040836
:1000B0001020010204081020680411241FBECFEF95
:1000C000D8E0DEBFCDBF11E0A0E0B1E0EAE3F9E0A7
:1000D00002C005900D92A631B107D9F721E0A6E143
:1000E000B1E001C01D92AC3BB207E1F710E0CDE5F5
:1000F000D0E004C02197FE010E949504CC35D107C1
:10010000C9F70E94F9020C949B040C94000090E043
:10011000FC01EC55FF4F249180579F4FFC018491C7
:10012000882399F090E0880F991FFC01EA57FF4F50
:10013000A591B491FC01E458FF4F859194918FB73C
:10014000F894EC91E22BEC938FBF0895AF92BF929D
:10015000CF92DF92EF92FF920F931F93CF93DF9393
:100160006C017B018B01040F151FEB015E01AE18C2
:10017000BF08C017D10759F06991D601ED91FC91E4
:100180000190F081E02DC6010995892B79F7C50111
:10019000DF91CF911F910F91FF90EF90DF90CF9063
:1001A000BF90AF900895FC01538D448D252F30E012
:1001B000842F90E0821B930B541710F0CF96089574
:1001C00001970895FC01918D828D981761F0A28DA1
:1001D000AE0FBF2FB11D5D968C91928D9F5F9F7367
:1001E000928F90E008958FEF9FEF0895FC01918D1D
:1001F000828D981731F0828DE80FF11D858D90E08A
:1002000008958FEF9FEF0895FC01918D228D892F26
:1002100090E0805C9F4F821B91098F73992708950E
:100220008FE191E00E94040121E0892B09F420E094
:10023000822F089580E090E0892B29F00E94100120
:1002400081110C9400000895FC01A48DA80FB92F12
:10025000B11DA35ABF4F2C91848D90E001968F73EE
:100260009927848FA689B7892C93A089B1898C910D
:10027000837080648C93938D848D981306C002885C
:10028000F389E02D80818F7D80830895EF92FF9226
:100290000F931F93CF93DF93EC0181E0888F9B8DA9
:1002A0008C8D98131AC0E889F989808185FF15C063
:1002B0009FB7F894EE89FF896083E889F989808186
:1002C0008370806480839FBF81E090E0DF91CF9155
:1002D0001F910F91FF90EF900895F62E0B8D10E077
:1002E0000F5F1F4F0F731127E02E8C8D8E110CC0E6
:1002F0000FB607FCFACFE889F989808185FFF5CF31
:10030000CE010E942401F1CFEB8DEC0FFD2FF11DEA
:10031000E35AFF4FF0829FB7F8940B8FEA89FB896D
:1003200080818062CFCFCF93DF93EC01888D8823CB
:10033000B9F0AA89BB89E889F9898C9185FD03C048
:10034000808186FD0DC00FB607FCF7CF8C9185FF2D
:10035000F2CF808185FFEDCFCE010E942401E9CF4D
:10036000DF91CF91089590E0FC01E859FF4F24916F
:10037000FC01EC55FF4F3491FC01E057FF4FE49135
:10038000EE23C9F0222339F0233001F1A8F4213003
:1003900019F1223029F1F0E0EE0FFF1FE458FF4F72
:1003A000A591B4918FB7F894EC91611126C0309566
:1003B0003E233C938FBF08952730A9F02830C9F021
:1003C000243049F7809180008F7D03C080918000A8
:1003D0008F7780938000DFCF84B58F7784BDDBCFAC
:1003E00084B58F7DFBCF8091B0008F778093B00074
:1003F000D2CF8091B0008F7DF9CF3E2BDACF3FB7BF
:10040000F89480911B0190911C01A0911D01B09165
:100410001E0126B5A89B05C02F3F19F00196A11D0E
:10042000B11D3FBFBA2FA92F982F8827BC01CD013E
:10043000620F711D811D911D42E0660F771F881F9D
:10044000991F4A95D1F708958F929F92AF92BF92CC
:10045000CF92DF92EF92FF926B017C010E94FF012D
:100460004B015C01C114D104E104F104B9F00E9414
:10047000FF01681979098A099B09683E7340810563
:10048000910580F321E0C21AD108E108F10888EE55
:10049000880E83E0981EA11CB11CE4CFFF90EF9062
:1004A000DF90CF90BF90AF909F908F9008951F9254
:1004B0000F920FB60F9211242F933F934F935F9398
:1004C0006F937F938F939F93AF93BF93EF93FF931C
:1004D0008FE191E00E942401FF91EF91BF91AF91D4
:1004E0009F918F917F916F915F914F913F912F914C
:1004F0000F900FBE0F901F9018951F920F920FB67E
:100500000F9211242F938F939F93EF93FF93E0917A
:100510002F01F09130018081E0913501F091360199
:1005200082FD1BC09081809138018F5F8F73209175
:100530003901821741F0E0913801F0E0E15EFE4FB1
:10054000958F80933801FF91EF919F918F912F911B
:100550000F900FBE0F901F9018958081F4CF1F92BF
:100560000F920FB60F9211242F933F938F939F9367
:10057000AF93BF938091170190911801A091190139
:10058000B0911A013091160123E0230F2D3758F551
:100590000196A11DB11D2093160180931701909320
:1005A0001801A0931901B0931A0180911B01909139
:1005B0001C01A0911D01B0911E010196A11DB11D4C
:1005C00080931B0190931C01A0931D01B0931E0109
:1005D000BF91AF919F918F913F912F910F900FBE3F
:1005E0000F901F90189526E8230F0296A11DB11DAC
:1005F000D2CF789484B5826084BD84B5816084BD97
:1006000085B5826085BD85B5816085BD80916E00B0
:10061000816080936E0010928100809181008260E1
:10062000809381008091810081608093810080911E
:1006300080008160809380008091B100846080930D
:10064000B1008091B00081608093B00080917A0009
:10065000846080937A0080917A00826080937A002F
:1006600080917A00816080937A0080917A0080681E
:1006700080937A001092C10088E00E94870089E090
:100680000E9487008AE00E9487008BE00E9487001A
:10069000E0912F01F091300182E08083E0912B0105
:1006A000F0912C011082E0912D01F0912E018FEC40
:1006B000808310923701E0913301F091340186E09C
:1006C0008083E0913101F0913201808180618083EB
:1006D000E0913101F0913201808188608083E09166
:1006E0003101F0913201808180688083E091310195
:1006F000F091320180818F7D8083C0E0D0E08FE176
:1007000091E00E940401181619069CF48FE191E013
:100710000E94E20080930001682F8FE191E00E9427
:10072000460142E050E063E171E08FE191E00E9418
:10073000A60080910001813309F063C061E088E088
:100740000E94B30160E089E00E94B30160E08AE0AA
:100750000E94B30160E08BE00E94B30164E070E0AE
:1007600080E090E00E94240260E088E00E94B301F3
:1007700061E089E00E94B30160E08AE00E94B30179
:1007800060E08BE00E94B30164E070E080E090E004
:100790000E94240260E088E00E94B30160E089E0EA
:1007A0000E94B30161E08AE00E94B30160E08BE047
:1007B0000E94B30164E070E080E090E00E942402B7
:1007C00060E088E00E94B30160E089E00E94B3012C
:1007D00060E08AE00E94B30161E08BE00E94B30117
:1007E00064E070E080E090E00E942402209709F429
:1007F00086CF0E941001882309F481CF0E94000057
:100800007ECF823309F050C060E088E00E94B301DF
:1008100060E089E00E94B30160E08AE00E94B301D9
:1008200061E08BE00E94B30164E070E080E090E062
:100830000E94240260E088E00E94B30160E089E049
:100840000E94B30161E08AE00E94B30160E08BE0A6
:100850000E94B30164E070E080E090E00E94240216
:1008600060E088E00E94B30161E089E00E94B3018A
:1008700060E08AE00E94B30160E08BE00E94B30177
:1008800064E070E080E090E00E94240261E088E093
:100890000E94B30160E089E00E94B30160E08AE059
:1008A0000E94B30160E099CF803309F09FCF60E0F0
:1008B00088E00E94B30160E089E00E94B30160E03B
:1008C0008AE00E94B30160E08BE00E94B3018ECF0A
:1008D000EFE1F1E01382128288EE93E0A0E0B0E055
:1008E00084839583A683B78385E091E09183808399
:1008F00085EC90E09587848784EC90E097878687E5
:1009000080EC90E0918B808B81EC90E0938B828BDC
:1009100082EC90E0958B848B86EC90E0978B868BB5
:10092000118E128E138E148E0895EE0FFF1F0590F8
:0A093000F491E02D0994F894FFCF34
:10093A0030000000004601A600D30093010401E242
:06094A0000F6000D0A009A
:00000001FF
