:100000000C945D000C9485000C9485000C94850084
:100010000C9485000C9485000C9485000C9485004C
:100020000C9485000C9485000C9485000C9485003C
:100030000C9485000C9485000C9485000C9485002C
:100040000C947C020C9485000C944A020C942402BB
:100050000C9485000C9485000C9485000C9485000C
:100060000C9485000C94850000000008000201003B
:100070000003040700000000000000000000000072
:10008000250028002B0000000000240027002A0083
:10009000040404040404040402020202020203032E
:1000A0000303030301020408102040800102040836
:1000B0001020010204081020CB0311241FBECFEF33
:1000C000D8E0DEBFCDBF11E0A0E0B1E0E0E0F8E0B5
:1000D00002C005900D92A431B107D9F721E0A4E147
:1000E000B1E001C01D92AA3BB207E1F710E0CDE5F7
:1000F000D0E004C02197FE010E94F803CC35D1075F
:10010000C9F70E94C6020C94FE030C94000090E014
:10011000FC01EC55FF4F249180579F4FFC018491C7
:10012000882399F090E0880F991FFC01EA57FF4F50
:10013000A591B491FC01E458FF4F859194918FB73C
:10014000F894EC91E22BEC938FBF0895AF92BF929D
:10015000CF92DF92EF92FF920F931F93CF93DF9393
:100160006C017B018B01040F151FEB015E01AE18C2
:10017000BF08C017D10759F06991D601ED91FC91E4
:100180000190F081E02DC6010995892B79F7C50111
:10019000DF91CF911F910F91FF90EF90DF90CF9063
:1001A000BF90AF900895FC01538D448D252F30E012
:1001B000842F90E0821B930B541710F0CF96089574
:1001C00001970895FC01918D828D981761F0A28DA1
:1001D000AE0FBF2FB11D5D968C91928D9F5F9F7367
:1001E000928F90E008958FEF9FEF0895FC01918D1D
:1001F000828D981731F0828DE80FF11D858D90E08A
:1002000008958FEF9FEF0895FC01918D228D892F26
:1002100090E0805C9F4F821B91098F73992708950E
:100220008DE191E00E94040121E0892B09F420E096
:10023000822F089580E090E0892B29F00E94100120
:1002400081110C9400000895FC01A48DA80FB92F12
:10025000B11DA35ABF4F2C91848D90E001968F73EE
:100260009927848FA689B7892C93A089B1898C910D
:10027000837080648C93938D848D981306C002885C
:10028000F389E02D80818F7D80830895EF92FF9226
:100290000F931F93CF93DF93EC0181E0888F9B8DA9
:1002A0008C8D98131AC0E889F989808185FF15C063
:1002B0009FB7F894EE89FF896083E889F989808186
:1002C0008370806480839FBF81E090E0DF91CF9155
:1002D0001F910F91FF90EF900895F62E0B8D10E077
:1002E0000F5F1F4F0F731127E02E8C8D8E110CC0E6
:1002F0000FB607FCFACFE889F989808185FFF5CF31
:10030000CE010E942401F1CFEB8DEC0FFD2FF11DEA
:10031000E35AFF4FF0829FB7F8940B8FEA89FB896D
:1003200080818062CFCFCF93DF93EC01888D8823CB
:10033000B9F0AA89BB89E889F9898C9185FD03C048
:10034000808186FD0DC00FB607FCF7CF8C9185FF2D
:10035000F2CF808185FFEDCFCE010E942401E9CF4D
:10036000DF91CF91089590E0FC01E859FF4F24916F
:10037000FC01EC55FF4F3491FC01E057FF4FE49135
:10038000EE23C9F0222339F0233001F1A8F4213003
:1003900019F1223029F1F0E0EE0FFF1FE458FF4F72
:1003A000A591B4918FB7F894EC91611126C0309566
:1003B0003E233C938FBF08952730A9F02830C9F021
:1003C000243049F7809180008F7D03C080918000A8
:1003D0008F7780938000DFCF84B58F7784BDDBCFAC
:1003E00084B58F7DFBCF8091B0008F778093B00074
:1003F000D2CF8091B0008F7DF9CF3E2BDACF3FB7BF
:10040000F8948091190190911A01A0911B01B0916B
:100410001C0126B5A89B05C02F3F19F00196A11D10
:10042000B11D3FBFBA2FA92F982F8827BC01CD013E
:10043000620F711D811D911D42E0660F771F881F9D
:10044000991F4A95D1F708951F920F920FB60F92F8
:1004500011242F933F934F935F936F937F938F93C9
:100460009F93AF93BF93EF93FF938DE191E00E9431
:100470002401FF91EF91BF91AF919F918F917F9157
:100480006F915F914F913F912F910F900FBE0F9001
:100490001F9018951F920F920FB60F9211242F9351
:1004A0008F939F93EF93FF93E0912D01F0912E0195
:1004B0008081E0913301F091340182FD1BC0908175
:1004C000809136018F5F8F7320913701821741F041
:1004D000E0913601F0E0E35EFE4F958F80933601A8
:1004E000FF91EF919F918F912F910F900FBE0F90E1
:1004F0001F9018958081F4CF1F920F920FB60F9224
:1005000011242F933F938F939F93AF93BF93809129
:10051000150190911601A0911701B0911801309129
:10052000140123E0230F2D3758F50196A11DB11DAD
:10053000209314018093150190931601A093170145
:10054000B09318018091190190911A01A0911B019B
:10055000B0911C010196A11DB11D809319019093CA
:100560001A01A0931B01B0931C01BF91AF919F9101
:100570008F913F912F910F900FBE0F901F90189564
:1005800026E8230F0296A11DB11DD2CF789484B521
:10059000826084BD84B5816084BD85B5826085BD7F
:1005A00085B5816085BD80916E00816080936E000D
:1005B00010928100809181008260809381008091FF
:1005C00081008160809381008091800081608093B0
:1005D00080008091B10084608093B1008091B00070
:1005E00081608093B00080917A00846080937A006B
:1005F00080917A00826080937A0080917A00816095
:1006000080937A0080917A00806880937A001092BB
:10061000C10089E00E9487008AE00E9487008BE089
:100620000E9487008CE00E948700E0912D01F091EC
:100630002E0182E08083E0912901F0912A0110824D
:10064000E0912B01F0912C018FEC80831092350109
:10065000E0913101F091320186E08083E0912F0139
:10066000F0913001808180618083E0912F01F091D1
:100670003001808188608083E0912F01F09130010A
:10068000808180688083E0912F01F091300180812A
:100690008F7D808300E010E0C0910001D0910101C6
:1006A000C130D10509F44EC084F52097D1F12196CF
:1006B000C430D1050CF05EC0D0930101C09300019D
:1006C0000E94FF016B017C0192E0892E912CA12CEC
:1006D000B12C0E94FF016C197D098E099F09683EAB
:1006E000734081059105A8F328EEC20E23E0D21EC7
:1006F000E11CF11C8A9489288A288B2809F43FC0C0
:10070000812C912C54018394E4CFC230D10541F166
:10071000C330D10561F661E089E00E94B30160E079
:1007200024C060E089E00E94B30160E08AE00E949A
:10073000B30160E08BE00E94B30161E08CE00E94B5
:10074000B301B5CF60E089E00E94B30160E08AE0C8
:100750000E94B30161E08BE00E94B30160E0EECF44
:1007600060E089E00E94B30161E08AE00E94B30189
:1007700060E0F1CF1092010110920001A1CF0115AC
:10078000110509F489CF0E941001882309F484CF50
:100790000E94000081CFEDE1F1E01382128288EE29
:1007A00093E0A0E0B0E084839583A683B78386E0DE
:1007B00091E09183808385EC90E09587848784EC39
:1007C00090E09787868780EC90E0918B808B81EC1E
:1007D00090E0938B828B82EC90E0958B848B86ECFF
:1007E00090E0978B868B118E128E138E148E089547
:1007F000EE0FFF1F0590F491E02D0994F894FFCFC0
:100800000100000000004601A600D300930104018E
:04081000E200F6000C
:00000001FF
